:10000000604800207D1C00009D7D0000691C0000F0
:10001000691C0000691C0000691C0000691C0000CC
:10002000000000000000000000000000B51C0000FF
:10003000691C0000000000009D1E0000691C0000FB
:100040001D1F00001D1F00001D1F00001D1F0000C0
:100050001D1F00001D1F00001D1F00001D1F0000B0
:100060001D1F00001D1F00001D1F00001D1F0000A0
:100070001D1F00001D1F00001D1F00001D1F000090
:100080001D1F00001D1F00001D1F00001D1F000080
:100090001D1F00001D1F00001D1F00001D1F000070
:1000A0001D1F00001D1F00001D1F00001D1F000060
:1000B0001D1F00001D1F00001D1F00001D1F000050
:1000C0001D1F00001D1F00001D1F00001D1F000040
:1000D0001D1F00001D1F00001D1F00001D1F000030
:1000E0001D1F00001D1F00001D1F00001D1F000020
:1000F0001D1F00001D1F00001D1F00001D1F000010
:100100001D1F00001D1F00001D1F00001D1F0000FF
:100110001D1F00001D1F00001D1F00001D1F0000EF
:100120001D1F00001D1F00001D1F00001D1F0000DF
:100130001D1F00001D1F00001D1F00001D1F0000CF
:100140001D1F00001D1F00001D1F00001D1F0000BF
:040150001D1F00006F
:1001540053B94AB9002908BF00281CBF4FF0FF312A
:100164004FF0FF3000F00CB8ADF1080C6DE904CE8F
:1001740000F01AF8DDF804E0DDE9022304B070476A
:10018400704700BF10F8012B11F8013B012A28BF6A
:100194009A42F7D0D01A7047034613F8012B002A6D
:1001A400FBD1181A013870472DE9F0478C468E466A
:1001B400089E154604461946002B40F0D08072452F
:1001C40047D9B2FA82F74FB1C7F120030EFA07FC00
:1001D400BD40BC4020FA03F343EA0C0C4FEA154E31
:1001E400A8B2230CBCFBFEF80EFB18CC08FB00F9EC
:1001F40043EA0C43994528D9EB1808F1FF3204D29D
:10020400994502D9A8F102022B44A3EB0903A4B235
:10021400B3FBFEFC0EFB1C330CFB00F044EA03446E
:10022400A04214D92C190CF1FF3304D2A04202D9F4
:10023400ACF102032C44241A43EA02401EB1FC40F0
:10024400002334607360BDE8F0874246DDE763460F
:10025400F1E7002A79D0B2FA82F3002B3FD0194695
:10026400C1F1200302FA01F500FA01F42EFA03F2B7
:100274000EFA01FE20FA03F3AFB243EA0E034FEA8B
:10028400154EB2FBFEFC0EFB1C201A0C0CFB07F8EF
:1002940042EA004290455AD9AA180CF1FF3004D220
:1002A400904502D9ACF102002A44A2EB08029BB2A9
:1002B400B2FBFEFC0EFB1C220CFB07F743EA0243D5
:1002C4009F4246D9EB180CF1FF3204D29F4202D967
:1002D400ACF102022B44DB1B42EA004202E0AEEB2B
:1002E400020301224FEA154EAFB2200CB3FBFEFC11
:1002F4000EFB1C330CFB07F840EA034398452AD94C
:10030400EB180CF1FF3004D2984502D9ACF102008D
:100314002B44A3EB0803A4B2B3FBFEFC0EFB1C337B
:100324000CFB07F744EA0344A74216D92C190CF135
:10033400FF3304D2A74202D9ACF102032C44E41BDC
:1003440043EA00400F46114678E71F2188E76046DC
:10035400ABE76246BFE76046DBE76346EFE773451A
:1003640006D916B9002108466DE7C6E9000EF9E77B
:10037400B3FA83F787B9734501D3824207D8841A45
:100384006EEB030301209C461EB900215BE738464F
:10039400FAE7C6E9004CF8E7C7F1200CBB4000FAC5
:1003A40007F422FA0CF520FA0CF1BA401D432EFA98
:1003B4000CF30EFA07FE4FEA154941EA0E011FFA43
:1003C40085FEB3FBF9F809FB18300B0C08FB0EFA99
:1003D40043EA00439A4540D9EB1808F1FF3004D2B0
:1003E4009A4502D9A8F102002B44A3EB0A0389B26F
:1003F400B3FBF9F809FB183308FB0EFE41EA03418D
:100404008E452CD9691808F1FF3304D28E4502D9E0
:10041400A8F10203294443EA0040A1EB0E01A0FB2A
:1004240002984145CE46434602D306D14C4504D2F8
:100434000138B9EB020E68EB0503002EA5D0B4EB2E
:100444000E0261EB030101FA0CFC22FA07F3F940F6
:100454004CEA0303C6E9003197E74046C5E7434643
:10046400D9E7000008B50649AF23064A064807F055
:10047400A7FB064807F0A4FBAF21024807F097FB4F
:10048400F58C0000B48C0000028D00001F8D00006C
:100494007FB50E461D460446A0B90AAB0B4803932C
:1004A40007F046FD2A460146089B0948009607F0D6
:1004B40071FB0399074800F0CFFB074807F06AFB7C
:1004C40002F0DAF9204604B070BD00BF3A8D000096
:1004D400758D0000FAA70000F9A70000F0B50546E5
:1004E40085B0006807F018FC134F144EC0F30723BF
:1004F400C4B28DF80D3020463623114A11490197B4
:100504000096FFF7C5FF9DF80D000CB9FFF7AAFF91
:1005140037230B4A0C49CDE90067FFF7B9FF286878
:1005240000F01CFF3823CDE90067054A0749C0B233
:10053400FFF7AEFF05B0F0BDFAA70000BC8D0000C8
:100544003A8D00009D8D0000C78D0000D98D0000FC
:100554002DE9F041A6B009AE304607F0D5FB304690
:1005640007F0DAFB404D414CC7B2C0F307282523FE
:1005740038463F4A3F4901950094FFF789FF0FB978
:10058400FFF770FF26233A4A3B494046CDE9004530
:10059400FFF77EFF304600F0E1FE2723344A374957
:1005A400ADF83C00CDE90045C0B2FFF771FF30461D
:1005B40007F0B2FBC7B2C0F3072829233846CDE9B8
:1005C40000452B4A2B49FFF763FF002FD8D02A237D
:1005D400274A29494046CDE90045FFF759FF3046EF
:1005E40000F0BCFE2B23224A2449ADF83C00CDE99F
:1005F4000045C0B2FFF74CFF0921214A0FA800F0C3
:10060400F3FE0023CDE905631E4B05A908931E4B99
:100614000FA8079300F020FF079BADF80C001BB157
:1006240005A90322084698473A23114A1749CDE9F8
:1006340000459DF80C00FFF72BFF0FA800F0B8FF52
:100644003B230B4A1249ADF81400CDE90045C0B272
:10065400FFF71EFF0FA807F077FB304607F05BFBA0
:1006640026B0BDE8F08100BFFAA70000F18D0000BC
:100674003A8D00009D8D0000C78D0000D98D0000CB
:10068400128E0000E1040000FF780000CC8D000011
:10069400248E00002DE9F04104460D4607F082F94E
:1006A400804600284AD12946204607F04CF90146E5
:1006B400204607F08FF904EB80010E6996B90122F8
:1006C400E36882401343E36002220D612B4629460E
:1006D400204607F02DF9032229462046BDE8F041C3
:1006E40007F026B902223146204607F016F9032204
:1006F40001460746204607F010F986420AD04521F4
:100704000F4807F0D1FA88F31188BFF36F8F0423E1
:10071400184602DF3B4602222946204607F008F924
:10072400032233462946204607F002F939462B4670
:10073400204607F0FDF802223146CEE7BDE8F081FD
:10074400458E00002DE9F041174603220E4604466B
:1007540007F0E3F88642054607F104080AD10122AE
:10076400E368BA4023EA0203E360002344F8283034
:10077400BDE8F08102223146204607F0CEF803227C
:1007840001460746204607F0C8F8864206D10222F1
:100794002946204607F0C1F886420BD045210D4872
:1007A40007F082FA002383F31188BFF36F8F0423C9
:1007B400184602DF2B4639462046032244F82850C7
:1007C40007F0B6F83B4629462046BDE8F041022230
:1007D40007F0AEB8458E000038B5012205460C4638
:1007E40007F09BF8C30713D42146284607F0D4F832
:1007F4000146284607F0C9F8844209D12146284613
:1008040007F0C3F80146284607F0C6F884420BD027
:100814004521064807F048FA002383F31188BFF303
:100824006F8F0423184602DF38BD00BF6E8E0000B0
:10083400F8B50E46002900F08480046801222046A1
:1008440007F0BEF801460546204607F066F810EAB0
:1008540002070BD1324645213A4807F025FA87F3BF
:100864001188BFF36F8F0423184602DF2946204600
:1008740007F092F80146204607F087F8A8420CD00A
:1008840032464521304807F00FFA002383F31188DC
:10089400BFF36F8F0423184602DF2946204607F072
:1008A40074F80146204607F077F8A8420CD0324687
:1008B4004521264807F0F8F9002383F31188BFF394
:1008C4006F8F0423184602DF00222946204607F0D2
:1008D40040F8294607F060F8012201460646204602
:1008E40007F01BF8C2070CD431462046FFF774FF0B
:1008F4003146204607F0BDF832462946204607F027
:1009040073F82946204607F040F8012201460646BE
:10091400204607F002F8C3070DD431462046FFF7FE
:100924005BFF3146204607F0A4F82A4631462046AC
:1009340007F05AF8354629462046BDE8F840FFF747
:10094400A9BEF8BD1B8F0000C18E0000EF8E000011
:100954002DE9F0474B42066803EA010731EA030335
:100964001446B2681DD0B2F5004F2CBF08230423EF
:10097400BB4228BF3B46B946CF1B07F1FF3A1AEAF0
:10098400070F1DD03C4940F2E9133C4A3C4807F0AC
:1009940017F93C4807F014F940F2E911374807F019
:1009A40006F9B2F5004F34BF04230823994204D852
:1009B4002146BDE8F04707F0B0B84FF00009DCE786
:1009C4001CB900252846BDE8F087B2F5004F34BFB6
:1009D40004250825FB1AE10804F0070001EBD30104
:1009E400073003F0070303442B4401EBD301914286
:1009F40028BF1146304607F052F880460028E0D060
:100A0400B36809EBC005B3F5004F34BF04230823D2
:100A14001D4435445544B5FBF7F57D43A5EB090565
:100A24002946304606F0CCFF2C44073424F0070452
:100A3400A41B804507464FEAE40408D20246414617
:100A4400304606F0EFFF41463046FFF723FE3946B5
:100A5400304606F0A1FFA04208D939463046224666
:100A640006F0E0FF21463046FFF714FE0122394626
:100A7400304606F06EFFA5E76D8F0000458F00003D
:100A8400028D0000888F0000B2F5802FF8B510D2D7
:100A9400042A28D83F4940F2E3233F4A3F4807F05D
:100AA4008FF83F4807F08CF840F2E3213A4807F00A
:100AB4007EF80823D21ACC1D114424F0070421F037
:100AC4000701091B17294FEAD1060ED835494FF4FF
:100AD4003B73314A314807F073F8314807F070F836
:100AE4004FF43B71E2E70423E4E70023046031465A
:100AF4002046A660E36006F06DFF820002F11B054C
:100B0400B6F5004F4FEAD5050FD26B1C9E420CD2AE
:100B1400254940F20233204A204807F051F8204882
:100B240007F04EF840F20231C0E70021043204F12C
:100B3400100007F0AEFD2A462046002106F021FFF2
:100B4400002320461A46194606F0F2FE771B194682
:100B54002046012206F0FDFE3A46294606F011FF22
:100B64002B4600222946204606F0E2FE3146204666
:100B740006F007FF3B4631462046002206F0D8FE29
:100B840031462046012206F0E4FE2946BDE8F8403D
:100B9400FFF780BDA58F0000458F0000028D000087
:100BA400C68F0000DF8F00000890000010B5EFF33F
:100BB4001184202383F31288BFF36F8F184806F043
:100BC4003DF968B98423174A1749184806F0F8FF15
:100BD4001349174806F0F4FF8421124806F0E7FF92
:100BE4000F4806F04FF910220021124807F051FD7A
:100BF4000B4806F031F968B94FF49973094A0E4964
:100C04000A4806F0DDFF06490C4806F0D9FF4FF408
:100C14009971E2E784F31188BFF36F8F10BD00BFB1
:100C2400400500204C9000007E900000028D0000E2
:100C340093900000E0000020A9900000C090000004
:100C4400014B1B68184700BF00000020014B1860CF
:100C5400704700BF0000002030B5044685B00D4643
:100C640010220021684607F014FD02238DF802309B
:100C7400044B2A4621466846019306F0FBFB05B067
:100C840030BD00BF450C000080B505460E46174632
:100C9400984605F0B5FD034601F050F9DFF83C90A5
:100CA400044649F80030424639463046A8470C4BC2
:100CB4001B7873B90B4940F246330B4A0B4806F0D4
:100CC4007FFF0B4806F07CFF40F24631064806F0F1
:100CD4006EFF54F8090001F0C9F800BF08000000D5
:100CE4001E07002005910000D5900000028D000031
:100CF400189100002DE9F84F0546AB8B08461907FB
:100D0400904616D501280CBF43F0100343F020038E
:100D1400AB831435284606F09FF8002840F0B181D3
:100D2400AE494FF49973AE4AAE4806F049FF2946DE
:100D34009DE0022803F0070140F07D81284606F07B
:100D44004CFF052800F2FA8001A353F820F000BFFD
:100D5400170D00003B100000410F0000E50D0000DE
:100D64007F0E0000DF0E000002F00702531F012B6C
:100D74001AD80023062A2E68A4B2C5E9003309D183
:100D8400334603E0EA8B0132EA831B68002BF9D176
:100D940044F002042846AC8306F01FFF002800F04C
:100DA4005A8144F0200455E1042A0DD1A4B2284606
:100DB400AC8306F012FF0646002800F04C8144F094
:100DC40020040026AC8346E1874940F21B13874A7E
:100DD400844806F0F5FE40F21B11844806F0E7FE55
:100DE40049B183494FF4AB73804A7E4806F0E8FE6C
:100DF4004FF4AB71F1E72B684BB97E4940F25713BE
:100E04007A4A784806F0DCFE40F25711E5E72B6990
:100E14001F684FB978494FF4AD73744A714806F0AE
:100E2400CFFE4FF4AD71D8E70E468A464FF006095F
:100E3400AC8B24F0070444F00604A4B2AC83AB6882
:100E4400002B00F00F814FF0010B44F00804AC8339
:100E540005F11404204605F0FFFF002878D15F490E
:100E64004FF499735E4A5F4806F0AAFE2146634830
:100E740006F0A6FE4FF499718EE0022909D060496C
:100E840040F25D13594A574806F09AFE40F25D114C
:100E9400A3E7EE8B4EB15B494FF4AF73534A51480D
:100EA40006F08EFE4FF4AF7197E72B695F684FB978
:100EB400514940F261134D4A4A4806F081FE40F21E
:100EC40061118AE7AC8BB24624F0070444F00404B1
:100ED400A4B24FF00409AC83B1E7012909D04A490F
:100EE4004FF4B273414A3F4806F06AFE4FF4B271C0
:100EF40073E72B684BB93F4940F265133B4A3948C5
:100F040006F05EFE40F2651167E72B699F684FB9F2
:100F140039494FF4B473354A324806F051FE4FF460
:100F2400B4715AE70026AC8BB24624F0070444F0AF
:100F34000504A4B24FF00509AC8380E72A4940F2C6
:100F44006B132A4A274806F03BFE40F26B1144E734
:100F540088F31188BFF36F8FBBF1000F1ED1002EF1
:100F640033D117B128462949B847EFF31188202314
:100F740083F31288BFF36F8F204605F05FFF0028CC
:100F84004AD18423164A2249164806F019FE2146FE
:100F9400204806F015FE842111481FE7A96800299E
:100FA400DDD0D1F800800029D9D053464A462846DE
:100FB400D1F804B0D847B8F1000F04D0D8F8003005
:100FC40041469846EFE74346FAE7314653464A46D8
:100FD4002846366806F02DFEC1E700BFA990000040
:100FE4004C900000028D00004EA5000045910000C9
:100FF4006F9100007B9100009E910000C090000062
:10100400B5910000CB910000DA910000951000002A
:101014007E90000093900000204605F033FFAC8BD7
:1010240024F00804A4B2AC83E20621D524F0100312
:10103400AB8304F00701D5F818A0AA8BBAF1000F0E
:1010440022F00704BFF690AE00232E68C5E90033F2
:1010540044F00104AC8304F0070989454FF000070C
:101064007FF4EDAE0EB9002FDED04FF0000BECE6AE
:10107400A3067FF54EAE24F02003AB8304F00701F2
:101084005CE688F31188BFF36F8FBDE8F88F00BF6B
:10109400F8B504460D4600F11406EFF3118720233A
:1010A40083F31288BFF36F8F304605F0C7FE68B92B
:1010B40084230C4A0C490D4806F082FD31460C4845
:1010C40006F07EFD8421074806F071FD304605F0E8
:1010D400D9FEA5613A462046BDE8F8400121FFF754
:1010E40009BE00BF4C9000007E900000028D0000FD
:1010F400939000002DE9F04704460E4606F089FD62
:10110400051E66DB04F11409EFF3118A202383F32F
:101114001288BFF36F8F484605F090FE804660B991
:101124008423374A3749384806F04AFD4946374848
:1011340006F046FD8421324843E0484605F0A2FE0D
:101144004FF6FF72E38BA78B934207F0070743D058
:10115400062F2CD8DFE807F01F43092B1F041F00BC
:101164006FF085054FF0000802E002250133E383A8
:10117400484605F071FE002834D14FF49973204A93
:101184002349214806F01CFD4946224806F018FD73
:101194004FF49971CFE700233360636823B9C4E93E
:1011A400006687B13D46DDE71E606660F9E71A49CF
:1011B40015484FF4E473194A06F002FD4FF4E47144
:1011C400164806F0F4FC524602212046FFF792FD31
:1011D4003D462846BDE8F0876FF00A05C2E76FF088
:1011E4000405BFE78AF31188BFF36F8FB8F1000FCE
:1011F400EFD000233A463146204606F01AFDE8E7D0
:101204004C9000007E900000028D0000939000003E
:10121400A9900000C0900000DA9100004591000000
:1012240008B54268034602F00302032A81600AD02B
:101234006AB9084908484523084A06F0C1FC452113
:10124400064806F0B4FC006800225A6008BD00207D
:10125400FAE700BF4EA50000028D0000F0910000E7
:10126400014B036000207047588B000013B54069A0
:101274004FF0FF324FF0FF3304F026F9044690B1EB
:10128400024645210B4806F00FFD86230A4A0B4906
:101294000B4806F095FC21460A4806F091FC86218D
:1012A400054806F084FC000C000440F0010002B084
:1012B40010BD00BF2792000042920000EB8D000099
:1012C400028D00006E92000013B54469D1E900015B
:1012D400012871F100032DDB40F2E733C90341EA31
:1012E4005041C003C0184FF47A724FF0000341F12B
:1012F4000001FEF72DFF02460B46204604F0E4F8F9
:1013040010F10B0F04464FF0010316D0D0B1024682
:1013140045210D4806F0C8FC9E230C4A0C490D4893
:1013240006F04EFC21460C4806F04AFC9E21074874
:1013340006F03DFC00221346DFE7002043EA0020CC
:1013440002B010BD1846F9E727920000429200004F
:10135400EB8D0000028D00006E92000013B5406911
:1013640004F07AF9044690B1024645210B4806F090
:101374009BFCAB230A4A0B490B4806F021FC21468F
:101384000A4806F01DFCAB21054806F010FC000CD1
:10139400000440F0010002B010BD00BF86920000BE
:1013A40042920000EB8D0000028D0000A392000029
:1013B40010B504460121183006F094FC636B0BB998
:1013C40007F055F9A36B04F12C0098472046FFF76A
:1013D4004DFF044A20461378013B1370BDE81040CA
:1013E400FFF7BCBF1407002070B504460D4616462F
:1013F40006F08AFC04F1180006F06CFC0023C4E932
:101404000B33C4E90D3304F1480384F83C502364DE
:101414007EB13046FEF7C0FE0F2805460BD90130D9
:1014240007F014F9A56420642A46314607F024F92C
:1014340006E0084EEDE7012D206C08D133780370E7
:101444000023226C65645355A365204670BD002DAE
:10145400F6D0E9E7DD920000F0B504468FB00D4602
:10146400FFF704FFA26D002A40F08980454E3378CF
:10147400012B0DD97023444A4449454806F0A0FB8A
:101484000221444806F09CFB70213F4806F08FFB84
:101494000AAB0A92D5E9027C5A602FB195E80300A1
:1014A400C5E9022283E8030093E8030008AD85E858
:1014B400030004F12C0292E8030083E8030095E89A
:1014C400030082E80300626B18460C92A26B676308
:1014D400C4F838C00D9206F0F4FB94F93C2035783A
:1014E4004FF0FF304FF0FF310023A827CDE906016C
:1014F40029492A48CDE90323CDE901334FF4006299
:1015040007FB0500264B009401EBC52104F014FBF6
:10151400A06550B92349B3231B4A1D4806F050FB6C
:10152400214806F04DFBB321AFE7216C04F07EFAAD
:10153400054658B1B923144A1A49154806F040FB28
:1015440029461A4806F03CFBB9219EE7A06D05F038
:10155400FFF8337801333370012320468DF82830A7
:101564008DF82950FFF7FAFE00209DF8283063F328
:1015740007009DF8293063F30F200FB0F0BD00235E
:101584007825EAE714070020F8920000259300006C
:10159400028D00004193000020070020F00000208D
:1015A400B5130000EB8D00006E9300007D930000E6
:1015B40037B50546FFF75AFEADF80000C0B278B95A
:1015C4009DF80140D6232F4A2F49304806F0F8FAF7
:1015D40021462F4806F0F4FAD6212A4806F0E7FA05
:1015E400AB6D002B39D02846FFF7B8FEADF80000EC
:1015F400C0B268B99DF80140DB23224A224923483E
:1016040006F0DEFA2146234806F0DAFADB21E4E7A5
:10161400A86D4FF0FF324FF0FF3305F02BFA04466C
:1016240028B10023C4B243EA042003B030BD2846E5
:10163400FFF71CFEADF80000C0B268B99DF8014088
:10164400E423104A1049114806F0BAFA214610481A
:1016540006F0B6FAE421C0E7AC652846FFF77EFE43
:10166400C3B2C0F30724002BDDD1EB23054A06499E
:10167400064806F0A5FA2146064806F0A1FAEB2131
:10168400ABE700BFF892000093930000028D0000C6
:1016940097930000B793000008B50348034A00215C
:1016A400121A06F071FB08BDE0000020200700209C
:1016B400074808B5074A0849121A06F067FBBDE84F
:1016C40008400648064A0749121A06F05FBB00BFE5
:1016D40000000020DC00002078AE000000000020A4
:1016E4000000002078AE000037B505460C46C9B1AD
:1016F4008B6814480093D1E90023452106F0D4FAFD
:10170400636945210093D4E903230F4806F0CCFA1A
:101714004521E2690D4806F0C7FA4521A2690C4843
:1017240006F0C2FA012D06D1EFF3058245210948DE
:10173400103A06F0B9FA2146284603B0BDE8304015
:1017440003F0D8BCE2930000169400004A94000011
:101754005E9400009194000030BFFFF7FDBF00BF0E
:101764002DE9F04105460B4EDFF82C80324606EB9E
:101774000807CC1B2046094906F07EFFA019424603
:101784000021083C06F085FFC5F8984007F10800E1
:10179400BDE8F0810000000008000000448B000058
:1017A40010B5244C4521244806F07EFAA36A990119
:1017B4003ED52248452106F077FA1E20A36ADA01B5
:1017C40004D51F48452106F06FFA1F20194CA36A5F
:1017D400DB0204D51B48452106F066FA0220A36A01
:1017E4001C0304D51848452106F05EFA2120114C4B
:1017F400A36A590304D51548452106F055FA222059
:10180400A36A9A0304D51248452106F04DFA232011
:10181400084CA36ADB0304D50E48452106F044FABC
:101824002420A36A6FEA03436FEA1343A36210BD43
:101834001D20C3E700ED00E0A9940000C694000059
:10184400DE940000FD9400002C9500004F950000EC
:10185400799500009895000070B5284C06460D4611
:101864002748452106F020FAA36AD9043BD5254828
:10187400452106F019FA1720A36A1A0504D522484F
:10188400452106F011FA18201C4CA36A9B0511D5BA
:101894001E48452106F008FAA26BA36A180408D56D
:1018A40045211B4806F000FA1EB1A36A23F4004345
:1018B400A3621920114CA36A590504D51548452182
:1018C40006F0F2F91A20A36ADA050ED5124845216A
:1018D40006F0EAF91B20094A936A43F47F439362B2
:1018E40000232B7070BD1620C6E7A36A9B04F2D5B3
:1018F4000A48452106F0D8F91C20ECE700ED00E089
:10190400C8950000E3950000F995000011960000C9
:101914002F96000049960000699600008696000004
:1019240070B5344C06460D463348452106F0BCF9E3
:10193400A36AD9064CD53148452106F0B5F91120E2
:10194400A36A1A0704D52E48452106F0ADF91220E2
:10195400284CA36A9B0711D545212A4806F0A4F90F
:10196400626BA36A190608D54521274806F09CF93D
:101974001EB1A36A23F08003A36213201D4CA36A43
:10198400DA0704D52148452106F08EF91420A36A0C
:101994009B0604D51E48452106F086F91520154BF3
:1019A4009A6AD60602D49A6A940713D59B6AD90612
:1019B40010D5184940F22D13174A184806F000F9BB
:1019C400174806F0FDF840F22D11134806F0EFF821
:1019D4001020B5E7074B9A6A920642BF5A6A22F46E
:1019E40000525A629A6A42F0FF029A6200232B70F4
:1019F40070BD00BF00ED00E0BA960000D59600006F
:101A0400F99500000D9700002A9700004597000003
:101A140086960000A097000069970000028D0000E0
:101A2400EA970000F0B5754B0446586800258BB062
:101A3400C0F3080385F31188BFF36F8F02F07F466C
:101A4400B6F17F4F07D102F00C06082E12D14521C2
:101A54006B4806F029F96B4940F21B436A4A6B480C
:101A640006F0AEF86A4806F0ABF840F21B4166484F
:101A740006F09DF816074CBF0C460125002CEAD051
:101A84000026DA1E8DF80760092A00F2A880DFE834
:101A940002F0059B9F7EA6A6A6A6A6A345215D48A7
:101AA40006F002F98DF80760544EF36A9A0705D5DB
:101AB4004521594806F0F8F800232DE0F36A002B7D
:101AC40002DA45215548F5E7F36A5B006FD54521F5
:101AD400534806F0E9F87369A26943F480737361AB
:101AE400BFF34F8FBFF36F8F32F8023C726922F459
:101AF40080727261BFF34F8FBFF36F8F03F47F4225
:101B0400B2F55F4F2AD1DBB2022B27D145212268DF
:101B1400444806F0C9F823689DF80720E2B902AEEC
:101B240004F12007324620686168083403C2BC42CD
:101B34001646F7D1099A002D5DD0C2F3080121B9E8
:101B44006FEA52226FEA42220992102B34BF1846E0
:101B5400002002A9FFF7C8FD0BB0F0BD274B9A6A1D
:101B6400D2B232B101200DF10701FFF7D9FE0346CD
:101B7400D2E79A6A12F47F4F05D001200DF10701D4
:101B8400FFF76AFEF3E79B6AB3F5803F02D3FFF7E2
:101B940007FEECE7244940F2ED231B4A1B4806F0FC
:101BA4000FF8224806F00CF840F2ED215FE71E49D9
:101BB4004FF43C73144A154806F002F81C4805F02B
:101BC400FFFF4FF43C7152E700200DF10701CCE711
:101BD40000200DF10701D3E7452116486AE71649AD
:101BE40010F4F87F154A164818BF0A46103B4521E1
:101BF40006F05AF860E76FF30802A5E700ED00E08D
:101C04007C980000AC98000069970000028D0000E9
:101C1400BF980000FD980000199900003F9900004A
:101C240052990000769900004EA500009799000093
:101C3400BB990000EB990000639800004E980000E7
:101C4400149A0000064B5A6942F010025A615A690C
:101C540042F480625A615A6922F008025A6170475C
:101C640000ED00E0EFF30880EFF3098101B572465F
:101C7400FFF7D8FE01BD00BF0B4880F3088802F0CF
:101C84002BF9202080F3118808484FF40061401894
:101C940080F30988EFF314800221084380F3148849
:101CA400BFF36F8F00F072F86048002020370020E7
:101CB4001EF0040F0CBFEFF30880EFF30980816975
:101CC40011F8021C0229FFD001B5724606F060F833
:101CD40001BD00BF40B2002807DB01234109034ACC
:101CE40000F01F00834042F82130704700E100E01B
:101CF400054B420953F82220012300F01F0003FA88
:101D040000F01040704700BF00E100E038B54B1C04
:101D1400072B04460D460FD96B23104A104911486E
:101D240005F04EFF294610480723224605F048FFD8
:101D34006B210A4805F03BFF40B20028ACBF00F11C
:101D440060400A4A4FEA4313DBB2ABBF00F561407F
:101D540000F00F0080F80033135438BD2C9A0000B3
:101D6400689A0000028D0000839A000014ED00E0E0
:101D7400044B054A23F07F039360BFF34F8FBFF3F7
:101D84006F8F70470000000000ED00E008B5FFF71A
:101D9400EFFF0B4AD2F8883023F47003C2F888307E
:101DA400EFF3148323F0040383F31488BFF36F8FDA
:101DB400FFF772FCFFF77CFC00F0A2F803F0D6FA00
:101DC40000ED00E042F8203C009B0B4942F81C3C2B
:101DD400019B21F0010142F8183C029B42F8081CC7
:101DE40042F8143C4FF0807342F8043C0023203A3C
:101DF4000265C0F89C3070478D0C000000B50E4B96
:101E040015469860D0F898200C4B0E461A60D0F80E
:101E1400883083F30B882C4686F309880020044B12
:101E240098472046002100220023024C204700004E
:101E3400C37D00008D0C0000D40600204405002062
:101E44001022014B1A61704700ED00E0054B5A69FE
:101E54009B689A421FBF044A536843F080535360FF
:101E6400704700BFD406002000ED00E0084B9B68DB
:101E740083420BD1EFF3058343B1064B5A6842F01A
:101E840080525A605A6A22F400425A6204F0BEBC7C
:101E9400D406002000ED00E016498A684FF03000B7
:101EA4001044EFF3098C80E8F01F202080F312889F
:101EB400BFF36F8F104F4FF000664A698A603E602F
:101EC400D2F898000D4C2060D2F89C000023C2F890
:101ED4009C3080F3118802F1300090E8F01F8CF3FD
:101EE400098802F1000004B505F061FFBDE8044073
:101EF40070470000D406002004ED00E044050020F3
:101F0400002320210348C2180133452B82F8001313
:101F1400F9D1704700E100E008B5EFF30583064A04
:101F2400103B02EBC30152F8330049688847BDE80F
:101F34000840FFF78BBF00BF4888000001480068D5
:101F440070470000440500201FB50121094B0A4ACF
:101F54000A4800F00BF90023064A0393084B0121B9
:101F6400019301A8D31A029300F024F905B05DF897
:101F740004FB00BF0000072000000020588B000075
:101F8400E00000200A7A0B6810B562F304031C46D3
:101F9400CB68520923F01F0343EA4203044A43F087
:101FA4000103C2F89800C2F89C40C2F8A03010BDEA
:101FB40000ED00E010B50A4B0446D3F89030C3F3AB
:101FC4000723013B984208D902464521054805F0FC
:101FD4006BFE6FF01504204610BDFFF7D3FFFAE740
:101FE40000ED00E0C79A00002DE9F04F8946144641
:101FF40006464FF000084F4D85B0C84527DAD6F89D
:1020040004A0BAF1000F44D0BAF11F0F18D91AF086
:102014001F0F15D1D6F800B01BF01F0F10D1584672
:1020240005F009FF07460AEB0B00013805F003FF32
:10203400874210D06FF015073A4645213E4802E02A
:10204400424645213D4805F02FFE6FF01504204619
:1020540005B0BDE8F08F17F1160FEDD0BC42EBDDF3
:10206400C5F89870D5F89C10C5F89870D5F8A030CC
:1020740021F01F0143F01F0BD6E900321A449942A4
:1020840002F1FF3A1AD1D34507D13146F8B205F02F
:10209400DBFE08F101080C36AFE73146C5F898704D
:1020A400D5F89C30E0B263F30402C5F89C2005F037
:1020B400CBFE10F1160FC8D0441CEAE7C5F898709F
:1020C400D5F8A020013B23F01F0302F01F021343A5
:1020D400D3453146E0B2C5F8A030E8D005F0B4FEEF
:1020E40010F1160FB1D0C5F89870D5F89C209DF862
:1020F40008300BF1FF3B62F304038DF80830D5F888
:10210400A0309DF808205B0863F347128DF808207F
:10211400D6E900321344009323F01F035B44A3EB7E
:102124000A03013023F01F036946C0B20393FFF78B
:1021340041FFBEE700ED00E01D9B0000F29A0000A5
:102144000522044BC3F89420BFF34F8FBFF36F8F66
:10215400704700BF00ED00E0BFF35F8F0022024B29
:10216400C3F89420704700BF00ED00E038B50C4D73
:102174000C462A78FFF738FF287016300FD140F24A
:102184008913084A0849094805F01AFD21460848F8
:1021940005F016FD40F28911024805F008FD38BD2E
:1021A40015070020459B00004EA50000028D00008D
:1021B400799B00002DE9F74F314D894606464FF0D3
:1021C4000008AB462F4FC84502DB03B0BDE8F08FD3
:1021D400D6F804A0BAF1000F4CD03168084601913A
:1021E40005F029FE019904460AEB0100013805F0C7
:1021F40022FE84424FF01402234B15D002FB08F355
:102204006FF015024BF8032040F299131F4A20493E
:10221400204805F0D5FC49461F4805F0D1FC40F2A2
:1022240099111A4805F0C3FC14F1160F2C60EBD079
:102234001978A142E8DD02FB08B0C7F89840C7F856
:102244009840D7F89C4000F10801007B64F3040037
:102254000871D7F8A0000C79400860F347140C719A
:10226400D7F89C1021F01F016960D7F8A01021F065
:102274001F01296108F1010814350C36A3E700BFDA
:102284004805002000ED00E015070020459B0000F4
:102294004EA50000028D0000A59B00002DE9F04131
:1022A4006B4D6C4ED5F890303468C3F307239C42D1
:1022B40086B013D940F20223674A6849684805F09A
:1022C4007FFCD5F8902021466648C2F3072205F02A
:1022D40077FC40F20221604805F069FC0020FFF71A
:1022E4003BFF614BC5F8C03084421BD15F4D01A850
:1022F4002C70FEF7B5FF002607464FF061085C4CD2
:10230400B74216D100202B785149D1F89020C2F35E
:1023140007229342C0F295800020FFF711FF06B018
:10232400BDE8F081716801EB0011FFF72BFE01306D
:10233400DAE7019A300102EB0613D3F80CC00CEA79
:102344000401B1F1807F57D00AD8B1F5001F29D01C
:10235400B1F5800F43D0B1F5801F14D00136CFE71B
:10236400B1F1006F48D0B1F1805FF7D159689B6833
:102374001258013B21F01F000344CDE9021223F05F
:102384001F0301220BE0596812589B68CDE9021221
:102394002122013B21F01F00034423F01F038DF889
:1023A400102036E0596812589B68CDE90212412288
:1023B400013B21F01F00034423F01F031CF0010F15
:1023C4008DF81020059325D02A498423224A2448D5
:1023D40005F0F6FB284805F0F3FB84217BE75968F8
:1023E4009B681258013B21F01F000344CDE90212FF
:1023F40023F01F030622D2E7596812589B6821F084
:102404001F00013BCDE90212034423F01F038DF8A2
:1024140010800593287802A9FFF7CCFD00280CDA78
:102424000E4940F235230C4A0D4805F0C9FB134808
:1024340005F0C6FB40F235214DE72B7801332B70B4
:102444008CE7C1F89830C1F8A00001335DE700BF04
:1024540000ED00E0648B0000459B00004EA50000E9
:10246400028D0000D49B0000AAFF44001507002041
:102474000000F0FF089C00002E9C00005D9C000002
:1024840008B5024B1B689847002008BD5C05002076
:10249400034B044A1860937843F002039370704727
:1024A4005C0500200400002008B5054805F072FB17
:1024B400002383F31188BFF36F8F0423184602DFD0
:1024C400969C000008B50649064821F00701C1F1B1
:1024D400005202F5E022FEF7D7FA002008BD00BF43
:1024E400674800206005002008B54FF0FF324FF028
:1024F400FF33074802F0E8FF48B1064906487F2346
:10250400064A05F05DFB7F21044805F050FB08BD39
:1025140014000020DE9C0000028D00009F9C00003F
:10252400014803F099B800BF1400002038B50546EF
:10253400FFF7DAFF2A4608210748FEF709FA04469E
:1025440028B925B1FFF7FAFC0C22044B1A50FFF707
:10255400E7FF204638BD00BF600500200C000000E6
:1025640010B50446FFF7C0FF21460348FEF760F9A3
:10257400BDE81040FFF7D4BF60050020054B03EB16
:102584008000D0F8003223F0E04343F04053C0F819
:102594000032704700258450052370B5144D154E44
:1025A4002C780134B4FBF3F303EB8303E41A05F052
:1025B400A6FD114A137823B156F82430C01A07280F
:1025C40014D94FF05023D3F8141141B10021C3F8AA
:1025D4001411D3F814312C700CB9012313702C7816
:1025E40005F08DFD46F82400012070BD0020FCE7B5
:1025F400170700206C05002016070020012208B5EB
:10260400114B1249C3F8002502230020C1F8D0362B
:10261400FFF7B4FF1046FFF7B1FFC1F80427C1F874
:102624000429C1F8002B00F0A1F858B10849094861
:1026340040F23123084A05F0C3FA40F2312106483A
:1026440005F0B5FA08BD00BF00100050004000506E
:102654001B9D0000028D0000EC9C000007B50022C9
:10266400134B1449C3F8A821C3F8AC204FF480627B
:10267400C3F8B8254FF400620F48C3F83C250DF1A8
:10268400070205F085FD00280BDA0C490C4840F2DE
:102694003B230C4A05F094FA40F23B21094805F02B
:1026A40086FA9DF8070001F015FD03B05DF804FB00
:1026B40000A002502CA0025028A102501B9D000033
:1026C400028D0000EC9C000048B1054B054A1B68D4
:1026D400B3FBF2F35843044B43F00103184770472C
:1026E400B800002040420F00508B0000002170B55C
:1026F400184C194D000714F8013B5E0914D0012E43
:1027040006D14FF6FF7203F01F03DA40D2070ED44E
:10271400124913484FF47473124A05F051FA4FF4F6
:102724007471104805F043FA4FF0FF32EBE70E4A9C
:102734000131012E18BF2A4602EB8302D2F800327F
:10274400042923F0E04343EA0003C2F80032D2D163
:1027540070BD00BF59AE000000258450609D00008C
:10276400028D0000289D0000002884500149024881
:1027740005F075BA8C8B00008005002008B54FF079
:10278400FF33044A13603F231046536001F07CFC7E
:10279400002008BDA005002070B50546074C084E72
:1027A400B44202D30024204670BD28462168FDF7B8
:1027B400E9FC0028F7D01C34F2E700BFBC8A000013
:1027C400D88A00002DE9F84380460D4614460023BC
:1027D4000E4F0F4EDFF83C903B704E450ED3D8F8A9
:1027E40008300BB12046984702220B4B20461A7042
:1027F400AB68984701233B70BDE8F883336813B195
:102804002146284698470836E7E700BF1907002005
:10281400EC8A0000F48A0000D000002008B50F48BC
:10282400FFF724FB05F081FEB8B90D4B1B7873B993
:102834000C4940F246330C4A0C4805F0C1F90C48E7
:1028440005F0BEF940F24631074805F0B0F9FFF74C
:1028540075FB084B1858FFF709FB08BD4002002020
:102864001E07002005910000D5900000028D000095
:10287400189100000800000008B50E4B1B7873B1D6
:102884005A1E012A0FD9052B96BF0B4A0B4952F841
:1028940023100B4805F07EF902220A4B01E00522C1
:1028A400094B1A7008BD0222074B1A70BDE8084094
:1028B400FFF7B4BFD0000020988B0000839D000078
:1028C4008D9D00001A0700201907002070B50546E9
:1028D40039B101F11404084EB44204D30024204653
:1028E40070BD064CF7E728462168FDF74BFC00282D
:1028F400F5D01434F0E700BFEC8A0000D88A000059
:102904002DE9F04F8BB017460646099140B90222D3
:102914004FF0FF388E4B1A7040460BB0BDE8F08F75
:1029240001688C4805F036F98B4805F033F900202E
:102934008A4B1870DFF828A28AF80000894B1870B7
:102944009AF80030052B02D0706800B180474FF030
:102954000009002F08BF0746C8464D46099B994504
:10296400C0F2DC80B8F1000F3168D4BF7E487F48E4
:1029740005F010F904227B4B1A703369002BCBD07D
:1029840038469847C8E77A4B20469B686968984759
:10299400002800F0BF802A69764813680133136069
:1029A400696805F0F7F801236E4A137005F0A7FB78
:1029B400714B18604FF0FF324FF0FF33CDE906231F
:1029C4004FF0FF330822CDE90157CDE903326B49BB
:1029D4004FF400526A4B00966A4803F0ADF86968F8
:1029E40011B1684803F022F89AF80030043B012B37
:1029F40009D9644803F0ACFE4FF0FF324FF0FF33C7
:102A0400604804F037F80322564B1A70F3680BB190
:102A1400384698475C4CDFF874B105E0636813B13D
:102A240039462846984708345C45F7D305F067FBD8
:102A3400514B4FF47A711B680022C01A47F6FF739A
:102A4400E0FB0132DB0B43EA4243514A13602A693B
:102A54001169994238BF136105229AF80040414B2D
:102A6400022C1A704B4B03D0944201D01A7862B3F3
:102A7400002201241A704348FFF7F8F96B68DFF865
:102A840018B10893454B9B4526D34FF47A71404BBC
:102A940043481A68B2FBF1F301FB13224149009247
:102AA40051F82410089A05F075F82B4805F072F8CF
:102AB400022C2B692AD1294A127812B10121244A05
:102AC40011705A6801325A6024E0033C012C8CBF17
:102AD400002401246400CEE70899DBF80400FDF724
:102AE40051FB60B92968DBF80000FDF74BFB30B9F6
:102AF4009BF8083033B1012BC7D1023C03E00BF142
:102B04000C0BBFE7013C18BF0124BEE7D4B9DA6857
:102B14000132DA600E4B1B78022B10D03468294640
:102B24002046FFF7D3FE054600287FF42CAF084B60
:102B34001A7822B9B8F1000F01D001221A7009F1F4
:102B440001090BE79A6808F1010801329A60E1E78C
:102B54001A070020C09D0000D69D00001807002021
:102B640019070020D0000020449E00005C9E000055
:102B7400C08B00001B9E0000AC0500202017002025
:102B8400C927000040020020EC8A0000F48A0000FB
:102B9400A80500201B070020BC8A0000BC8A000096
:102BA400279E0000B08B00002DE9F74FDFF87890E6
:102BB400019399F800309046022B009031D0002602
:102BC4001A4CDFF86CB01B4B9C4203D3304603B065
:102BD400BDE8F08F0027BA46A569B84506DC99F828
:102BE40000305644022BF1D01C34ECE72146DBF8CC
:102BF40004200098904780B1002220460199FFF7F5
:102C04007FFE2A680AF1010A01322A60AA680028B4
:102C140018BF0132AA600137DFE76A6801326A60CF
:102C2400F9E70026D2E700BF1A070020BC8A00009B
:102C3400C08B0000D88A00002DE9F04101271E4C0A
:102C44001E4EB4420ED31E4C1E4EB44214D317B9BA
:102C540001221D4B1A700127194C1B4DB4421AD383
:102C6400BDE8F081A3691D6825B92168174804F0FF
:102C740091FF2F461C34E4E7D4F800804046FFF768
:102C84008BFD054628B942466168114804F082FF6D
:102C94002F461434D9E72269D2E902310B44516832
:102CA40012680B44934205D0D4E90012094804F099
:102CB40071FF2F701434D1E7BC8A0000D88A000059
:102CC400D88A0000EC8A00001A070020729E0000D7
:102CD400979E0000D99E000010B4024C2468A446BC
:102CE40010BC6047C08B00002DE9F04F8BB005F09D
:102CF4000BF9594804F04EFF584EDFF864A1594BC4
:102D04009E4215D3584804F045FF584B58481B7849
:102D1400002B00F09A8004F03DFF564804F03AFF7F
:102D24005549564804F036FF00200BB0BDE8F08F3B
:102D340000252C46A8462F46AB46A94633682146B3
:102D440018460993FFF7C2FD099B044600283CD1AD
:102D5400B8454DD04A49A8EB070201FB09F191FBA4
:102D6400F2F14FF47A7291FBF2F246486FF0090ED9
:102D740000FB02110A2091FBF0F00EFB0011BBF1E5
:102D8400000C18BF4FF0010C042900DD01304FF492
:102D94007A7EB5FBFEF10EFB11550093CDE90515C6
:102DA4000346CDE90378CDE9019B5AF82C10364847
:102DB40004F0F0FE21463068FFF788FD0446D8B9D8
:102DC400324804F0E7FE1C3699E7226908F101084D
:102DD40011690D44D2E90001814201D10137AEE706
:102DE400D26890420CBF09F101090BF1010BA6E76F
:102DF4004FF0020C0246CAE74FF47A77D4E9002375
:102E0400256928692968B0FBF7FC07FB1C006F687B
:102E14008F420DD0ED68A94213D0A5B10191491B91
:102E2400CDE902C000911A481A4904F0B3FEC1E783
:102E34000221CDE900C05AF82110174804F0AAFE77
:102E4400B8E70021F5E70121F3E704F0A3FE094800
:102E540004F0A0FE114964E7EE9E0000BC8A000065
:102E6400B08B0000D88A0000F89F00001A070020E9
:102E7400D69D00001EA0000047A000004EA0000048
:102E8400A086010018FCFFFF179F0000F9A70000AF
:102E9400819F00007B9F0000CC9F000064A0000085
:102EA40037B540230C460A490093411A4911054697
:102EB4002346084A084805F03CF8014628B128464C
:102EC400234603B0BDE83040184703B030BD00BF0F
:102ED400C4050020A77F0000D8870000C9B20329D9
:102EE40008B509D909490A487E230A4A04F068FE4C
:102EF4007E21084804F05BFE0C22036901FB0233C7
:102F0400D3F8880000F0070008BD00BFEBA0000064
:102F1400028D0000A9A0000070B5C9B203290346C0
:102F240000690BD919491A484FF4E873194A04F097
:102F340047FE4FF4E871174804F039FEEFF31186A9
:102F4400202484F31288BFF36F8F0C2505FB010442
:102F5400D4F8884014F0C00401D0A24212D1012256
:102F640005FB0100C0F88820002086F31188BFF318
:102F74006F8F30B90C225B6802FB01335B689847A2
:102F8400002070BD4FF0FF30EFE700BFEBA0000062
:102F9400028D0000A9A0000070B50D460649044644
:102FA400411A491140220548FFF7B6FF2B46014656
:102FB4002046BDE870401847C4050020D8870000AB
:102FC4002DE9F8430022012107460520FEF79EFE65
:102FD400114801F09FF80446C0B901F0CFF8254626
:102FE4004FF00C094FF001083E690C4906EB4510FF
:102FF40004F035FE031E0CDB09FB05660135042DC8
:10300400C6F88880F0D12046BDE8F8836FF0040448
:10301400F9E71C46F7E700BFDD300000CC8B000069
:103024001FB5002201236C46CDE902236B46074AF3
:10303400CDE9004404F0AEFF28B94FF480420023E8
:10304400684602F079FC04B010BD00BFCB7F0000DD
:1030540010B5EFF31184202383F31288BFF36F8F2D
:10306400074A136823F00201DB07116002D4012030
:1030740001F0E0F884F31188BFF36F8F10BD00BF37
:10308400740600200C22124B014602FB0033002080
:1030940030B4D3E92052C3F88000EFF31180202428
:1030A40084F31288BFF36F8FD3F8884004F0C00410
:1030B40044F00204C3F8884080F31188BFF36F8F93
:1030C4001DB12B4630BC0348184730BC704700BFC5
:1030D400C4050020D887000008B5092822D8DFE8F5
:1030E40000F00513212121212115110F134BD3F8D1
:1030F400880010F007001FD1BDE80840FFF7C2BFE9
:103104000220F9E70320F7E70120F5E70C4940F234
:10311400FA230C4A0C4804F053FD40F2FA21094802
:1031240004F045FD06494FF44173064A064804F08D
:1031340047FD4FF44171F2E708BD00BFC40500200C
:103144004EA50000A9A00000028D000010B4EFF30A
:103154001180202282F31288BFF36F8F18490B6805
:1031640043F0020413F001030C601CD04FF0502311
:10317400D3F80C14D3F80C3413F0010313D0EFF389
:10318400118182F31288BFF36F8F0E4AD2F8883010
:1031940003F0C00343F00203C2F8883081F31188BE
:1031A400BFF36F8F012380F31188BFF36F8F1BB1BF
:1031B400002010BCFFF766BF012010BC01F000B86E
:1031C40074060020C40500202DE9F04101220646C2
:1031D4004349D1E8EF3FC1E8E02F0028F9D1A3B972
:1031E400404941484B60CB608A60FDF783FF00286B
:1031F4000BDA3E4940F2A3233D4A3E4804F0E0FC8A
:1032040040F2A3213A4804F0D2FC002E50D0731EA1
:10321400012B5AD8012E07D14FF05023D3F81C3478
:1032240003F00303022B43D005F07FF9054658B1A0
:10323400EFF31188202383F31288BFF36F8F0125E6
:103244004FF050242C4F22E02C4B1B78002BEFD056
:103254004FF0502302228046C3F80823F0E74DB311
:10326400404604F0CCFDD4F81835DBB2012B0ED166
:10327400D4F804215AB10022C4F80421D4F804215A
:103284000222C4F818252022C7F88021A360D4F8AC
:103294001824D4F81834D203E1D503F00303022B25
:1032A40001D0012EDBD155B188F31188BFF36F8FA4
:1032B400BDE8F0810021212003F018FAD3E74FF094
:1032C40050230222C3F80423F2E70D4940F2B52348
:1032D400074A084804F074FC40F2B52192E700BFA5
:1032E400C0050020B0050020E40500200FA1000067
:1032F400A9A00000028D000000E100E01E070020EC
:103304004EA5000008B5074805F0EDF838B10648A9
:10331400FFF7BEF80448FDF799FC002008BD6FF0E4
:103324001200FBE72C880000313300000A2838B56E
:103334000446074D04D1AB680D2128465B689847C5
:10334400AB6803485B68E1B29847204638BD00BFCC
:103354002C88000038B5036961B921496423214AE6
:10336400214804F02DFC214804F02AFC64211D4866
:1033740004F01DFC486850B91D496523194A1A48D0
:1033840004F01EFC1B4804F01BFC6521EFE75868A1
:1033940000B30024884219D108688CB99C6858602D
:1033A400A14200D19860002008602AB15A680A60DE
:1033B4009A68596002B9996000200FE02846E9E74D
:1033C40020609868814208BF9C60ECE70568044669
:1033D400002DF3D1002AE9D16FF0150038BD00BFEC
:1033E40093A1000052A10000028D00009CA10000E6
:1033F400ABA10000BDA1000008B50368590914D0B1
:10340400012906D14FF6FF7203F01F03DA40D207F9
:103414000ED40B490B484FF474730B4A04F0D0FBE1
:103424004FF47471084804F0C2FB4FF0FF32EBE72D
:103434000360064B0648012908BF184608BD00BFB3
:10344400609D0000028D0000289D0000002884502B
:103454000025845070B5446801F01F05207C86B0B7
:1034640045EA4015A06800286ED0B2F5001F04D1CB
:10347400294601F0F3FC00204AE00026B2F5800F53
:1034840001A80196466032D1B3F1007F14BF052331
:1034940004238DF804300023CDE904030393E36887
:1034A4006E46CB4013F0010F34D1B2F1A07F31D17D
:1034B40068460095FFF7A0FF009B803350F8233047
:1034C400DB0727D46A462946A06801F05DFB163065
:1034D40018D002962946A06803AA01F0F5F900283D
:1034E40016DB01222946A06801F036FCC3E7B3F1DC
:1034F400C06F05D0B3F1007F14BF01230223C8E7D6
:103504000323C6E76946A06801F002FC0028E0DA5C
:1035140006B070BD32462946A06801F035FB00288C
:10352400D8D19DF80010A06801F0D2FB0028D1D0BA
:10353400074908484FF4F373074A04F041FB4FF47A
:10354400F371054804F033FB6FF08500E0E700BF3A
:103554001B9D0000028D0000D4A100002DE9F04362
:10356400466840F20635337CD00601F01F0747EA6F
:10357400431748BF032302EA050558BFC2F34013AB
:1035840087B0B5F5837F14468DF8033043D00DD84A
:10359400062D16D005D8A5B1022D3ED06FF015002A
:1035A40036E0B5F5807FF9D101250AE040F2022228
:1035B400954234D0B5F5407F33D0B5F5007FEDD1D9
:1035C400022522032FD5012372688B409360B068D3
:1035D40080BB03A80397FFF70FFF039B00EB830057
:1035E400C4F3004383F00103C4F34044D0F8002241
:1035F40044EA43049DF8033022F4706244EA8304ED
:1036040022F00F0244EA05231343C0F800320020DD
:1036140007B0BDE8F0830725D3E70425D1E70525E6
:10362400CFE70325CDE7630341BF012372688B40D5
:10363400D360CCE739460DF1020201F0A5FA14F487
:10364400403F804617D13946B06801F029FBB8F1F4
:10365400000FDCD19DF80210B06801F039FB00289E
:10366400D5D01E491E48F5231E4A04F0A9FAF521B7
:103674001C4804F09CFA4FF0000901ABCDE9019914
:10368400CDE90439CDF80C903946B06803AA01F0AD
:103694001BF94845BBDB14F4003314D09DF8033008
:1036A400C4F3004484F001048DF80E308DF80C50FE
:1036B4008DF80D404B463946B06803AA01F0C6F9AF
:1036C4000028C4DAA3E7CDE904330DF1030303931F
:1036D4003946B06803AA01F0F7F8F1E71B9D000032
:1036E400028D0000D4A100004209034670B502D047
:1036F400012A1ED070BD144E326951680029F9D0D8
:10370400012503F01F030C689D400029F2D08A684C
:103714002A4012D04B6873B90C4989230C4A0D48CE
:1037240004F04EFA0C4804F04BFA8921084804F0DE
:103734003EFA0A4EE0E7304698471CB1236821461A
:103744001C46E2E72346FAE71088000005A20000C1
:1037540052A10000028D0000BDA10000F48700000A
:1037640038B54568A86890B101F080FA014670B98F
:10377400A86801F03DFA044658B902460649A8680B
:1037840001F0EAF9224605210D20FEF7BFFA0020D8
:1037940038BD6FF00400FBE7ED36000008B50368A0
:1037A400590914D0012906D14FF6FF7203F01F0303
:1037B400DA40D2070ED40B490B484FF474730B4A0A
:1037C40004F0FEF94FF47471084804F0F0F94FF076
:1037D400FF32EBE70360064B0648012908BF184691
:1037E40008BD00BF609D0000028D0000289D000000
:1037F40000288450002584502DE9F04F15460746D3
:103804004FF0010985B000EB8108B84503D10020D1
:1038140005B0BDE8F08F3B68C3F3C322082AC3F3A5
:10382400080400F2BB805F498E5C40F2FF129442B0
:1038340008BF4FF0FF34B3F1485F4FEA13621CD264
:10384400312A1CD8DFE802F01E2D3241353C411BE1
:103854001B1B1B47A71B1B1B1B1B1B1B1B1B538A55
:103864008D901B1B1B93989B9EA1A41B1B1B1B1BB6
:103874001B1B1B1B1B1B1B1B47A74E2A28D06FF0AF
:103884008500C5E7C5F80C45621C65D003A8039400
:10389400FFF784FF039B4FF0010A09FA03F38360E7
:1038A40038E0C5F814454FF0000A1BE0C5F8084598
:1038B400EAE74FF0000AC5F80845611C22D14BE045
:1038C4004FF0010AC5F80C45F7E7C5F81045EAE7DB
:1038D400C5F81445D8E7C5F80845002EE3D14FF0E4
:1038E400000A0626631C37D04FF0000B14E0C5F81D
:1038F40060457B88601C03F001032DD0002BC5D1EB
:103904004FF0010A03A80394FFF748FF039B09FA49
:1039140003F3C3604FF0010B3A6803A8130444BFD8
:103924004FF0010A4FF0000B01920394FFF736FFAA
:10393400039B019A00EB8300C2F341223302D0F8C7
:10394400001243EA8203184A43EA0B030A40134372
:1039540043EA4A03C0F80032043756E7C5F8644521
:10396400C7E7C5F86845C4E7C5F86C45C1E7C5F8BD
:1039740024454FF0010AB5E7C5F8284584E7C5F8A2
:103984003045F6E7C5F83445F3E7C5F83845F0E7C0
:10399400C5F83C4578E7C5F80C459EE76FF015007F
:1039A40036E700BF5DAE0000F0F0FCFF2DE9F0410A
:1039B40004460D46476804F0B8FD88B14FF020086E
:1039C400EFF31186314688F31288BFF36F8F606876
:1039D40004F055FB50BB86F31188BFF36F8FEFE7FC
:1039E4001F4B1B78002BE9D04FF020086426606839
:1039F40004F045FB70B9012004F095FB013EF6D1BB
:103A04000021212002F072FEF0E786F31188BFF353
:103A14006F8FF5E7EFF31186314688F31288BFF311
:103A24006F8F606804F02BFB0028EED0FB69002048
:103A34001D706368FA691B68C3F844250122C3F842
:103A44004825C3F82001D3F82041C3F85801D3F81E
:103A540058019A6081F31188BFF36F8FBDE8F0813C
:103A64001E0700202DE9F04105460022012108200F
:103A7400FEF74CF90820FEF72DF96C680121E06887
:103A840004F02EFB6B6819682369C1F82435A27D04
:103A9400637D207D1343228B02431343C1F86C35AD
:103AA4006F680022D7E9004313F001031BD0D5F857
:103AB400108004F10C01C4F8A02104F59070C4F83E
:103AC4008C2008F1080204F063FB061E06DA452187
:103AD400214804F0E9F83046BDE8F08198F8080080
:103AE40000F0F8FA01230822C4F80025FA6901213C
:103AF400C4F844250022C4F84825A1606BB9D4F861
:103B04002031002BFBD0C4F82021D4F8203101232C
:103B1400E3604FF48073C4F80433D4F85831002BB5
:103B2400FBD00021C4F800156D68E8682C6804F027
:103B3400D7FA0823C4F800352A7A52B92B6AC4F894
:103B440034350123C4F83835C4F81021D4F81021D1
:103B540023600026BFE700BF29A2000038B5114941
:103B640022F07F45D1E90030D41AE31840F1000077
:103B7400C1E90030A5F50013B3F5400F09D20A4B93
:103B84001B681A0A1B065819084B42F10001C3E9C5
:103B9400000103F08DFB01462046BDE8384003F0E8
:103BA400EFBA00BFF8020020A406002000030020A2
:103BB4000D4B1868010A0006BFF35F8F0B4BD3F857
:103BC4000435181841F10001B3F5801F0AD2084BDF
:103BD400D3E90023904271EB030303D210F1807008
:103BE40041F10001704700BFA406002000500150BD
:103BF400000300202DE9F7432D4BD3F8042391074C
:103C04000BD5D3F8042142B10022C3F80421294A78
:103C1400D3F80431136801331360254CD4F804330A
:103C2400DA033FD5244BD3E8EF2F22F00101C3E898
:103C3400E01F0028F7D1D30702D4D4F840318BB366
:103C44000025C4F84051D4F84031FFF7B1FFEFF339
:103C54001182202383F31288BFF36F8F174BD3E9AC
:103C64000267B042B94120D3D3E900984FF0FF3046
:103C74004FF0FF311D60C3E902014FF48033C4F8F3
:103C84004833C4F84051D4F8403182F31188BFF36B
:103C94006F8FB9F1000F05D032463B460020CDF8B6
:103CA4000080C84703B0BDE8F083A946EDE700BF34
:103CB40000500150A40600209C060020E8020020C9
:103CC4002DE9F84F06460F46434DD5E8EF8F28F00F
:103CD4000103C5E8E23F002AF7D14FF480393F4C95
:103CE400C4F80893BFF35F8FBFF36F8FFFF760FFD4
:103CF400B04271EB070308F0010840D2384B301A88
:103D040067EB0101984271F1000148D2354BD3E9C8
:103D140002239F4208BF96423AD04FF0000C26F08F
:103D24007F40834603216FF0020EC4F84893C4F821
:103D340040C1D4F84031DFF8B0A02BF07F43C4F881
:103D44004035C4F84493D4F80425AEEB02035B4435
:103D540023F07F4353451BD9D4F840315BB1D4F8E9
:103D64000425131A23F07F43B3F5000F10D9C4F8C8
:103D740040C1D4F8403101EB020B0131DDE71B4BAC
:103D8400D3E8EF1F41F00101C3E8E21F002AF7D195
:103D9400144B174AC3E902671A6000225A60B8F14B
:103DA400000F16D0D5E8EF3F43F00103C5E8E23F2A
:103DB400002AF7D14FF48032084BC3F804230B4B8D
:103DC400D3E8AF3FDB0742BF4FF40012094BC3F8FF
:103DD4000021BDE8F88F00BFA0060020005001506C
:103DE40001008000E8020020FDFF7F009C06002007
:103DF400613B000000E100E070B54FF0FF300025AA
:103E04004FF0FF31164C174B0226C4F80833C4F8A0
:103E14004833154BC4F80855C3E902014FF4803305
:103E24004FF40012C4F80433104B0121C4F80463A6
:103E34001520C3F880212A46FDF768FF1520FDF7F9
:103E440049FF01230A4AA360002123600948136043
:103E5400FFF736FF3046FFF7B7F9284670BD00BFBD
:103E64000050015003000F00E802002000E100E0D0
:103E7400A0060020FFFF7F00431C10B50F4C05D0A7
:103E84008442A8BF0446012CB8BF0124FFF790FE6A
:103E94000B4AD2E90031C01AB0F5000F074A0AD222
:103EA4002044904228BF1046BDE81040C01841F19C
:103EB4000001FFF705BF1046F6E700BFFFFF7F00D4
:103EC400F802002008B5FFF773FE024B1B68C01A06
:103ED40008BD00BFF802002008B504F014F958B179
:103EE400614BD3F8202A3AB90D21C3F8201A0121D5
:103EF400C3F81C19C3F81C290022D30003F57F035F
:103F0400D3F80013013107D0D3F800130132D3F8EA
:103F14000433202A0B60F0D104F0F5F8002840F0B7
:103F24009A8004F0F0F840B1504B514AC3F8302560
:103F34004FF050230122C3F858254FF47F03D3F8E0
:103F44003021D3F83431072A06D1023B012B9EBF1E
:103F54000022484BC3F84C2504F0D5F850B14FF07B
:103F64005023D3F80024D10742BF0022C3F8142100
:103F7400C3F818214FF47F03D3F83021D3F8343138
:103F8400072A09D14FF05023D3F80024D20744BFA5
:103F94006FF00102C3F8002404F0B5F818B16522EB
:103FA400314BC3F80C274FF47F03D3F83021D3F8F7
:103FB4003431072A16D12F4BD3F82034002B11DAD1
:103FC4004FF050230322C3F8182501229A60D3F836
:103FD4000421002AFBD00022C3F804210122DA6064
:103FE400C3F818254FF47F03D3F83021D3F83431C4
:103FF400072A20D1023B022B1DD97E221A4B1B49D2
:10400400C3F80C27C3F83C297F231B4AC2F8183194
:104014000023C1F8043EC1F8083E01F54821C1F867
:104024001031C2F82431C2F82C3102F5FF1202F526
:104034008052C2F8A032114AD2F88C3043F4406363
:10404400C2F88C300E4A0F4B1168C3F84415D2697C
:10405400C3F84C2508BD2922034BC3F80C270322BF
:10406400C3F83C275DE700BF0040005000900350B8
:104074004400EFBE002003500020005000ED00E09B
:104084000080FF0000600050014B1860704700BFC3
:10409400A806002010B50B4B1446186858B90A49F5
:1040A4000A4840F2F3130A4A03F08AFD40F2F3117E
:1040B400074803F07CFD04F038F80028A4BF207002
:1040C400002010BDA8060020A9A20000028D000057
:1040D40067A200000123024A8340C2F804357047F6
:1040E40000700150014B00201B681847AC060020EB
:1040F400014B1B68184700BFAC060020014B092088
:104104001B681847AC060020014B08201B681847A1
:10411400AC06002010B5144C237913BB0123237182
:10412400124B0028206018BF184600F0BDF8D0B923
:1041340023680F48002B08BF184600F097F990B980
:1041440023680C48002B08BF184600F003FA50B946
:1041540023680948002B08BF1846BDE8104000F04A
:1041640015B96FF0770010BDAC060020E9400000DF
:1041740001410000F54000000D41000008B50C4B62
:104184001A794AB90B490C48B1230C4A03F018FDBB
:10419400B1210A4803F00BFD1B6843B10520FDF76C
:1041A400A7FD20B9BDE808400520FDF793BD08BD73
:1041B400AC06002001A30000028D0000BFA2000095
:1041C40008B5174B1B795BB9164940F20513164A1B
:1041D400164803F0F5FC40F20511134803F0E7FC20
:1041E400032813D8DFE800F002060A0EBDE80840F1
:1041F40000F0C2B9BDE8084000F068B8BDE8084066
:1042040000F046B9BDE8084000F0CEB808494FF4C4
:104214009273054A054803F0D3FC4FF49271DCE72E
:10422400AC06002001A30000BFA20000028D000024
:104234004EA5000008B5174B1B795BB9164940F22F
:104244002B13164A164803F0BBFC40F22B111348FB
:1042540003F0ADFC032813D8DFE800F006020A0ED1
:10426400BDE8084000F060B8BDE8084000F0DAB9E5
:10427400BDE8084000F03CB9BDE8084000F0C4B80F
:1042840008494FF4A573054A054803F099FC4FF417
:10429400A571DCE7AC06002001A30000BFA200006A
:1042A400028D00004EA50000074B0246187938B96C
:1042B4001A6001221A714FF05023C3F81425704775
:1042C4006FF07700704700BFB406002008B51249AC
:1042D4000B794BB9114912487723124A03F070FC49
:1042E4007721104803F063FC4FF050230022C3F8F9
:1042F4000021D3F8002101221A60096811B1C3F822
:10430400042308BDD3F80021002AFBD00022C3F8FF
:104314000021D3F80031F4E7B406002001A3000023
:10432400028D00001FA3000008B5084B1B794BB990
:10433400074908488923084A03F042FC89210648B2
:1043440003F035FCBDE8084003F04CBFB406002080
:1043540001A30000028D00001FA300004FF05023B2
:10436400D3F80423D2070DD5D3F8002152B100228B
:10437400C3F80021D3F800210122C3F80823024B1B
:104384001B681847704700BFB4060020054B02465F
:10439400187918B91A6001221A7170476FF0770002
:1043A400704700BFBC06002008B5134A13794BB907
:1043B400124913486123134A03F002FC6121114896
:1043C40003F0F5FB4FF050230021C3F82011D3F87C
:1043D400201101219961126822B14FF48072C3F84F
:1043E400042308BDD3F82021002AFBD00022C3F8FF
:1043F4002021D3F82031F4E7BC06002001A30000FB
:10440400028D000067A3000008B5084B1B794BB967
:10441400074908487323084A03F0D2FB732106486E
:1044240003F0C5FBBDE8084003F0F8BEBC0600205D
:1044340001A30000028D000067A300004FF0502389
:10444400D3F80423D2050ED5D3F820215AB1002283
:10445400C3F82021D3F820214FF48072C3F8082335
:10446400014B1B6818477047BC060020074B0246E7
:10447400187938B91A6001221A714FF05023C3F821
:10448400802570476FF07700704700BFC406002096
:1044940008B5134A13794BB9124913486723134AD1
:1044A40003F08EFB6721114803F081FB4FF050238A
:1044B4000021C3F82411D3F82411012119621268D0
:1044C40022B14FF40072C3F8042308BDD3F82421A9
:1044D400002AFBD00022C3F82421D3F82431F4E7C6
:1044E400C406002001A30000028D0000B4A3000054
:1044F40008B5084B1B794BB9074908487923084A82
:1045040003F05EFB7921064803F051FBBDE8084047
:1045140003F09EBEC406002001A30000028D00002B
:10452400B4A300004FF05023D3F8042392050ED512
:10453400D3F824215AB10022C3F82421D3F824212A
:104544004FF40072C3F80823014B1B6818477047E7
:10455400C4060020074B0246187938B91A600122B4
:104564001A714FF05023C3F8182570476FF0770085
:10457400704700BFCC06002010B5264C23794BB9F8
:1045840025492648E523264A03F01AFBE521244859
:1045940003F00DFB4FF05023D3F81814D3F818246C
:1045A400C9031BD502F00302022A02D0012A12D148
:1045B40001224FF05023C3F818250022C3F8042128
:1045C400D3F8042101229A602268A2B9D3F8042105
:1045D400002AFBD017E003F055FEE9E7D3F81424D2
:1045E400D207E5D5D3F81C2402F00302013A012ACC
:1045F400F1D822681AB10222C3F8042310BDD3F8FB
:104604000421002AFBD00022C3F80421D3F804318A
:10461400F4E700BFCC06002001A30000028D0000D7
:1046240000A4000008B5094B1B795BB90849094887
:104634004FF49173084A03F0C3FA4FF4917106489A
:1046440003F0B5FABDE8084003F01CBECC06002018
:1046540001A30000028D000000A40000F8B54FF093
:10466400502301250026D3F804431E4F04F082048E
:1046740004B9F8BDB4FA84F0C0F11F00830003F557
:1046840080739BB203F1502305FA00F2196892B2C9
:1046940024EA02040029EBD01E601B684FF050236B
:1046A400022AC3F8082311D1D3F81814D3F8181424
:1046B40001F00301012903D03B68C0B29847D7E752
:1046C400C3F81825C3F804239960D1E706490748BD
:1046D4004FF4F573064A03F073FA4FF4F571044886
:1046E40003F065FACC0600204EA50000028D000000
:1046F40000A40000034A4309D35C00F01F001844DF
:10470400C0B2704766AE000010B504460846FFF715
:10471400F1FF04EB4000838ADA051CD5C3F343217F
:1047240023F4F853838204F1120204F1720032F884
:10473400023F13F4807F03D0C3F3432399420AD08A
:104744009042F4D1002204EBC1035A6004F17800D2
:1047540003F005FD00B910BD054906484FF4DB73AD
:10476400054A03F02DFA4FF4DB71034803F01FFAF6
:104774001B9D0000028D000048A4000008B50268DB
:104784000146104603F097FD58B910494FF474736D
:104794000F4A104803F014FA4FF474710C4803F0F4
:1047A40006FA02F01F0352090B600BD0012A0BD04A
:1047B400094940F2D933064A064803F001FA40F2A7
:1047C400D931EBE7054808BD0548FCE7609D0000CA
:1047D400289D0000028D00004EA500000025845095
:1047E40000288450072808B50BD90849084840F226
:1047F400A733084A03F0E4F940F2A731054803F06F
:10480400D6F9800000F5807008BD00BFC5A4000083
:10481400028D00008BA40000024611F0010010B5C7
:104824000BD18B07C1F340000DD50749086A5060CE
:104834000862003818BF012005E0044C236A1360A5
:104844002362002BEDD010BD002884500025845035
:10485400F7B504460846FFF74DFF04EB4006B38A5C
:104864000D46DB072AD5204603F017FE29462046CD
:1048740003F033FD50B1204603F05EFD00232768AA
:1048840007EB8000C0F81035C0F81035204600242E
:104894002946FFF739FFB48201A80195FFF76EFF9F
:1048A400019B00EB8300D0F80022064B134043F039
:1048B4000203C0F80032204603B0F0BD6FF01500CB
:1048C400FAE700BFF0F0FCFF2DE9F0430E4617466F
:1048D400044685B058B95A495A4840F25E435A4A88
:1048E40003F06EF940F25E41574803F060F9084660
:1048F400FFF700FFD7F800800546B8F1000F19D084
:10490400204603F00EFD18BB4346CDE900008DF8A8
:104914000E008DF80F000DF10F0230460DF10E015F
:1049240003F033FD04EB4502938A23F0020343F0C2
:10493400010393827B689BB33146204693F8008041
:10494400D3F8049003F0E2FC28B1B9F1000F1FD0B2
:104954006FF0150027E004EB4500838A23F46043DD
:1049640023F020038382B9F1000F11D0B8F1030FB3
:10497400EED87B6821685B6893F800C04FEA8C032B
:104984001944B8F1000F11D1C1F81085C1F8108590
:1049940004EB4502938A23F01C0343EA88039382C1
:1049A400BB6843BB002005B0BDE8F083D1F81025F7
:1049B40022F00302C1F8102522681344D3F810250D
:1049C40022F44F3222F44072C3F810253202D3F895
:1049D400101502F47C5242EA08420A43C3F8102537
:1049E40004EB4C03A3F87C60838A43EA4C3343F022
:1049F40020038382CCE73146D3E900782046FFF7D1
:104A040083FE002FCED063689F4206D004F1780065
:104A140003F08BFB002804DAC5E7A3689845F5D1B9
:104A2400002004EBC003C3E9017804EB4505AB8A1D
:104A3400C0B243EA402343F48073AB82B2E700BFC1
:104A4400CFA40000028D000048A400002DE9FF411E
:104A54000C4616461F46054658B93C493C484FF497
:104A64008D633C4A03F0ACF84FF48D61394803F090
:104A74009EF80846FFF73EFE804616B3284603F02C
:104A840045FC18B9284603F028FC08BB21462846F3
:104A940003F02EFC10B17378012B19D001238DF88B
:104AA4000F300023721CCDE900632046B31C0DF1C6
:104AB4000F0103F06AFC05EB4802938A43F00303F9
:104AC4009382002F3FD02146284603F01FFC20B9D3
:104AD4006FF0150004B0BDE8F08100223E782B6829
:104AE40005EB480003EB8603C3F81025C3F8102533
:104AF400838A4FEA860C23F4604323F020038382E5
:104B0400797801B32A68BF786244D2F81035090471
:104B140023F4991323F4F853C2F81035230201F453
:104B2400403103F47C530B433905D2F8105501F49A
:104B340080110B432B43C2F81035838A43EA463372
:104B440043F0200383820020C4E700BFCFA4000009
:104B5400028D000048A4000008B558B90749084868
:104B640040F27143074A03F02BF840F271410548C3
:104B740003F01DF8C0E9031208BD00BFCFA4000074
:104B8400028D000048A4000070B51546044658B9CB
:104B9400134940F27A43134A134803F011F840F2E0
:104BA4007A41104803F003F84AB9104940F223331C
:104BB4000C4A0D4803F004F840F22331F1E703F006
:104BC4008CFB48B10846FFF795FD04EB4004002038
:104BD400A38A5B0B2B7070BD6FF01500FBE700BF61
:104BE400CFA4000048A40000028D0000DAA4000055
:104BF400F8B5044658B9194919484FF49163194A4C
:104C040002F0DEFF4FF49161164802F0D0FF90F8F5
:104C14008C5090F88D70F5B960222946143003F059
:104C240038FD114B266853F83770AF420ED100257A
:104C340046F30730C6F87C51D6F87C31FDF74AF8C4
:104C44000123284684F88C30A367F8BDE8B2FFF747
:104C5400C9FD0135E9E76FF07700F6E7CFA400005E
:104C6400028D000048A40000788C000008B558B9F3
:104C74000849094840F28F43084A02F0A1FF40F274
:104C84008F41064802F093FF90F88C00003818BF5B
:104C9400012008BDCFA40000028D000048A400003C
:104CA40008B558B90749084840F29D43074A02F03D
:104CB40087FF40F29D41054802F079FFBDE80840B6
:104CC400FFF7C6BDCFA40000028D000048A4000079
:104CD40008B558B90A490B4840F2A4430A4A02F0FD
:104CE4006FFF40F2A441084802F061FF074B90F8BF
:104CF4008D0003EB8000BDE8084003F030BA00BF2C
:104D0400CFA40000028D000048A40000BC000020D5
:104D140010B50C4658B90C490C4840F2AB430C4A48
:104D240002F04EFF40F2AB41094802F040FF094B4C
:104D340090F88D0003EB800003F0F7F90028A4BF7E
:104D44002070002010BD00BFCFA40000028D000021
:104D540048A40000BC0000202DE9F3410D4616468E
:104D6400044658B938494FF4A563384A384802F024
:104D740027FF4FF4A561354802F019FF03F0B8FA94
:104D840048B9344940F23543304A314802F018FFFB
:104D940040F23541EFE7204603F09FFA2768F8B167
:104DA400204603F0B3FA8046D0B9204603F0C4FA93
:104DB4000546FFF717FD47F800803B58236803EBCF
:104DC4008503D3F8102542F00102C3F8102526B15B
:104DD40001232268AB40C2F8043302B0BDE8F0817D
:104DE400D7F80433002BA4BF4FF00043C7F80433B3
:104DF4004EB9194940F24F43144A154802F0E0FEF7
:104E040040F24F41B7E72846FFF774FC04EB400437
:104E1400A38AC3F38203042B11D0052B11D001A85C
:104E24000195FFF7ABFC019B0169D94001F0010139
:104E34000231284602B0BDE8F04103F0F3BA032181
:104E4400F7E70221F5E700BFCFA4000048A4000063
:104E5400028D0000E4A4000005A5000008B558B9BF
:104E64000749084840F22F53074A02F0A9FE40F2CE
:104E74002F51054802F09BFEBDE8084003F00DBB2E
:104E8400CFA40000028D000048A400002DE9F04FDB
:104E940007468DB058B97349734840F25C63734A4E
:104EA40002F08EFE40F25C61704802F080FE8046A3
:104EB40058F804AB90F88D40DAF804136C4BC9B27F
:104EC400504653F8342041F0004103F0BAFA051E6D
:104ED40039DA0023CDE90A33654BE60003EBC40459
:104EE40063680AA819460193FFF796FC331D0493DF
:104EF4004FF0000B5F4B0DF128090393039A5C49B3
:104F040012F8013B0392049A02EBD3028A5C03F089
:104F1400070322FA03F3DB071BD40BF10103022B73
:104F24004FF0010B09F10409E8D14FF000410022D0
:104F3400504603F086FA01990AA8FFF76DFC002891
:104F4400D6D125F000450124002D74D10DB0BDE863
:104F5400F08F494B5B440593D9F800100029DCD04D
:104F640091FAA1F1B1FA81F1059B1C7841EA44144C
:104F74002046FFF7BFFB07EB4000828AC808C2F354
:104F84008203CDE906230293012319F8006001F09E
:104F9400070103FA01F126EA010109F8001009A842
:104FA4000994FFF7EBFB0999069A803150F82160C8
:104FB40012F0100F079BC6F3014623D0214640464A
:104FC400029A03F0C3F909A80994FFF7D7FB099BD8
:104FD400F6B2803350F82330C3F301439E4207D125
:104FE4000021204603F01EFA3146204603F01AFA47
:104FF40009A80994FFF7C2FB0122099B02FA03F3F3
:105004000362A9E7022E14BF02210321204606935E
:1050140003F008FA069B032B03D0022E07D1012BC1
:10502400E6D121464046029A03F090F9E0E7032EC8
:10503400DED1022BF4E795FAA5F3B3FA83F304FA6D
:1050440003F225EA020503F5A2725AF8222007EBBF
:1050540043034046B3F87C10C2F3014203F076F9EF
:1050640072E700BFCFA40000028D000048A4000036
:10507400788C000076AE000076AE000038B5436947
:1050840005463BB90024EA686042537843F00103C3
:10509400537038BD984704460028F3D000F1FF034D
:1050A400FE2B0ED92123094A09490A4802F088FD3A
:1050B40029680948224602F083FD2121034802F0B1
:1050C40076FDEB6844421C70DDE700BF10A50000CC
:1050D40038A50000028D000050A5000010B504465C
:1050E4004521034802F0E0FD204603F007FA00BF23
:1050F40075A50000F7B504460D46EFF3118720238C
:1051040083F31288BFF36F8F204A0428966898BFF0
:105114001F4B127C94BF53F820301E4B0092452144
:1051240002461D4802F0C0FD3DB1EB69C3F308031C
:105134001BB14521194802F0B7FD36B1304603F0E2
:10514400FAF9034608B1027802B9154B452115480E
:10515400324602F0A9FD29462046FFF7BFFF4DB1B4
:10516400EB69C3F308032BB187F31188BFF36F8F87
:1051740003B0F0BD012CF7D087F31188BFF36F8F14
:10518400304603B0BDE8F040FCF770BED406002002
:10519400888C000089A500009FA50000CCA5000014
:1051A40097A50000F2A5000038B50A4B53F820403B
:1051B400013053F82050A54200D838BD606830B1A2
:1051C400037EDB0701D4FFF759FF0834F3E72368B4
:1051D4009847FAE79C8C0000012270B53C4B86B0DE
:1051E40003201A70FFF7E0FFFDF738FA03F02BFAFB
:1051F400384C394DAC4214D10420FFF7D5FF374C5D
:10520400374DAC4226462ED936494423364A3748D0
:1052140002F0D6FC364802F0D3FC4421324802F0B6
:10522400C6FC54F8043B002BE6D09847E2E754F858
:105234000C3C059354F8103C049354F8143C039329
:1052440054F8183C029354F81C3C019354F8203C45
:10525400009354E90A2354E90C0100F0F7FB54F8D5
:10526400303C5E65CDE7AE4204F13004DFD301F09B
:1052740039F81A4CAC421FD91A4968231A4A1B48F8
:1052840002F09EFC1A4802F09BFC6821C6E7D4E9B0
:105294000A23B3F1FF3F08BFB2F1FF3F05D052EA42
:1052A4000301206803D101F053FA3034E2E71149D5
:1052B400183001F01DFEF8E7E9D301F085F8FDF799
:1052C40013FD0D4A938923F00103938106B070BD49
:1052D4001E070020F48A0000F48A0000708A00008F
:1052E400708A00007FA6000059A60000028D00000D
:1052F400ACA60000995F0000B0030020A82370B59D
:10530400144E86B003FB0066134B012205930F2352
:10531400CDE903320023CDE9013314234FF4A07205
:105324000E4D0F4903FB0055044602FB00110D4BC3
:105334003046009500F08AFB337C2C7423F0040380
:105344003374094B013403EBC423EE606B6006B085
:1053540070BD00BF08030020CBA60000D4060020C7
:10536400203F002085540000203700207FB5002016
:10537400FFF71AFF344B03F5006282F3088883F3C6
:105384000A88E023314C84F822300023E377237623
:105394006376A37684F82030626A42F4E022626283
:1053A40084F82330FCF74EFCFCF74AFD4FF0FF3342
:1053B400A362E362FCF772FFFCF7C6FD244800F029
:1053C40001FC244B244A93420ED92449CC23244A79
:1053D400244802F0F5FB244802F0F2FBCC212048DB
:1053E40002F0E5FB1C33EEE7FCD3FDF707F90120DF
:1053F400FFF7DAFE02201D4CFFF7D6FE01F056F847
:105404001B4B00255C611B4B0122059309231A49A0
:10541400CDE9033220464FF40062184BCDE9015523
:10542400009500F013FB0646237C204623F004037A
:10543400237400F069FD2846FFF760FF31462046DB
:105444000E4AFCF7DBFC00BF2037002000ED00E033
:1054540058040020D887000048880000D0A6000027
:1054640059A60000028D0000ACA60000B003002085
:10547400D4060020E8A6000060400020DD510000B2
:1054840008B50D4B9B6893F90E30002B09DB2024E3
:10549400EFF3118384F31288BFF36F8F02F096FC4D
:1054A400F6E7064906481C23064A02F089FB1C213C
:1054B400044802F07CFB00BFD406002013A70000C0
:1054C400028D0000EDA600002DE9F34104461746C5
:1054D4001E46EFF3058565B154497323544A554874
:1054E40002F06EFB544802F06BFB7321504802F04B
:1054F4005EFBEFF31188202383F31288BFF36F8FD1
:105504004E4801F09BFC60B984234D4A4D494948FB
:1055140002F056FB49494C4802F052FB84214848AA
:10552400E5E7464801F0AEFC484BE2689B6892B15F
:10553400A068984227D057EA06022CD13F4801F0D0
:105544008BFC90B188F31188BFF36F8F6FF00F005D
:1055540002B0BDE8F08193F90E100132C4E90232C1
:105564003648216101F078FC78B94FF49973344AD4
:105574003749304802F024FB3049364802F020FB1A
:105584004FF49971CBE72169E7E788F31188BFF3FA
:105594006F8F0020DCE793F90E1090F90E309942DA
:1055A40005DA9942A8BF194602F0B0FF0546224623
:1055B4004146CDE90076214800F034FD0028E8D0CA
:1055C400EFF31186202383F31288BFF36F8F1B48F8
:1055D40001F034FC002897D0184801F053FCA0686F
:1055E400C0B1236821699C420AD04BB193F90E30B3
:1055F4009942A8BF19466FF07F039942B8BF194674
:1056040002F084FF30B131460C4802F0D8FF6FF04D
:105614000A009DE7002DF6D1084801F01DFC002882
:10562400A3D086F31188BFF36F8FF0E762A7000061
:105634003BA70000028D000074A70000F4060020C0
:105644004C9000007E90000093900000D40600204F
:10565400A9900000C0900000F8B50546EFF305835B
:1056640063B15649EA23564A564802F0A9FA564805
:1056740002F0A6FAEA21524802F099FA8368002B54
:1056840000F09580514A9268934240F09380C36839
:105694004BB94F494FF48173494A4A4802F090FA92
:1056A4004FF48171E7E7012B03D0013BC360002075
:1056B400F8BDEFF31187202484F31288BFF36F8FB2
:1056C400444801F0BBFB60B98423434A43493D4845
:1056D40002F076FA3F49424802F072FA84213E48C9
:1056E400CAE73C4801F0CEFB2969A86802F00EFF26
:1056F400EFF3118384F31288BFF36F8F83F3118860
:10570400BFF36F8F5BB93749BB23374A2D4802F08B
:1057140057FA364802F054FABB213348ACE72C68F8
:10572400AC4215D100232B48C5E9023301F094FBA8
:10573400002837D14FF49973274A2D49214802F0A4
:105744003FFA24492B4802F03BFA4FF49971C6E71B
:10575400002CE7D0A3683BB92749A423224A19485F
:1057640002F02EFAA421D8E70026D4E9003213600F
:105774005A60237CC4E9006623F002032374A66004
:1057840004F1180001F090FCAC6094F90E3020464E
:105794002B61C4F8A06000F0B7FB39460D4802F055
:1057A4000EFF84E787F31188BFF36F8F7FE76FF0F5
:1057B40015007DE74FF0FF307AE700BF62A70000D5
:1057C4003BA70000028D000074A70000D40600204F
:1057D40099A70000F40600204C9000007E90000081
:1057E40093900000E0A70000B0A70000F8A7000015
:1057F400A9900000C0900000FBA7000008B58368D2
:105804004BB90B490B48A4230B4A02F0D9F9A42144
:10581400094802F0CCF9D0E9003213605A60002341
:10582400027CC0E9003322F002020274836008BDE6
:10583400FBA70000028D0000B0A7000070B504466D
:10584400EFF31186202585F31288BFF36F8F30485C
:1058540001F0F4FA60B984232E4A2F492F4802F04C
:10586400AFF92B492E4802F0ABF98421294818E0FE
:10587400274801F007FBEFF3118385F31288BFF388
:105884006F8F83F31188BFF36F8F63B92549BB23EF
:10589400254A224802F094F9244802F091F9BB21E8
:1058A400214802F084F92568AC4213D095B128460A
:1058B400FFF7A4FF05F1180001F0F6FB00232846CA
:1058C400C5F8A03000F020FB3146BDE87040104818
:1058D40002F075BED4E902329A4218BF01330C4873
:1058E400A36001F0B9FA68B94FF49973094A1049F1
:1058F4000A4802F065F906490E4802F061F94FF4CE
:105904009971B3E786F31188BFF36F8F70BD00BF41
:10591400F80600204C9000007E900000028D0000EC
:1059240093900000E0A70000B0A70000F8A70000D3
:10593400A9900000C0900000F7B5044616461D4625
:10594400EFF305837BB152EA05030CD02D4988237C
:105954002D4A2E4802F034F92D4802F031F98821FD
:10596400294802F024F9EFF31187202383F31288E6
:10597400BFF36F8F274801F061FA60B98423264A88
:105984002649224802F01CF92249254802F018F958
:1059940084212148E5E71F4801F074FAA368D3B1D4
:1059A400013B1C48A36001F057FA68B94FF499739E
:1059B400194A1C49154802F003F916491A4802F01D
:1059C400FFF84FF49971E4E787F31188BFF36F8F01
:1059D400002003B0F0BD56EA05030BD10D4801F0D9
:1059E4003BFA0028E2D087F31188BFF36F8F6FF082
:1059F4000F00EEE722463946CDE90065054800F080
:105A040011FBE6E737A8000012A80000028D000091
:105A1400F8A70000F80600204C9000007E900000DB
:105A240093900000A9900000C090000010B50446B7
:105A340008B9054B9C681F2204F1680002F031FE8E
:105A4400002084F8870010BDD40600202DE9FF470C
:105A54000F9D04460F2D0F469946DDF8448045D12D
:105A64002F4B994546D104F15803C4E91633109BD2
:105A74000026A38104230732A57322F0070507EB50
:105A8400050A514623742046C4E90666A660E673F7
:105A9400FBF766FE0E9B073020F00700C4F8900069
:105AA400C4E9227502930D9BAAEB000A01930C9B97
:105AB4005246009339464B462046FCF783F9666507
:105AC400B8F1000F29D01F22414604F1680002F00A
:105AD400E8FD84F88760134B9B680BB1D3F89430CE
