:10000000604800209D1900009F7A000089190000B7
:100010008919000089190000891900008919000058
:10002000000000000000000000000000D5190000E2
:100030008919000000000000BD1B000089190000A4
:100040003D1C00003D1C00003D1C00003D1C00004C
:100050003D1C00003D1C00003D1C00003D1C00003C
:100060003D1C00003D1C00003D1C00003D1C00002C
:100070003D1C00003D1C00003D1C00003D1C00001C
:100080003D1C00003D1C00003D1C00003D1C00000C
:100090003D1C00003D1C00003D1C00003D1C0000FC
:1000A0003D1C00003D1C00003D1C00003D1C0000EC
:1000B0003D1C00003D1C00003D1C00003D1C0000DC
:1000C0003D1C00003D1C00003D1C00003D1C0000CC
:1000D0003D1C00003D1C00003D1C00003D1C0000BC
:1000E0003D1C00003D1C00003D1C00003D1C0000AC
:1000F0003D1C00003D1C00003D1C00003D1C00009C
:100100003D1C00003D1C00003D1C00003D1C00008B
:100110003D1C00003D1C00003D1C00003D1C00007B
:100120003D1C00003D1C00003D1C00003D1C00006B
:100130003D1C00003D1C00003D1C00003D1C00005B
:100140003D1C00003D1C00003D1C00003D1C00004B
:040150003D1C000052
:1001540010F8012B11F8013B012A28BF9A42F7D06D
:10016400D01A7047034613F8012B002AFBD1181A42
:10017400013870477FB50E461D460446A0B90AAB48
:100184000B48039307F055FD2A460146089B09488E
:10019400009607F08FFB0399074800F0D7FB074848
:1001A40007F088FB02F0F8F9204604B070BD00BFE8
:1001B400C4890000038A0000A9A50000A8A50000C6
:1001C4001FB5006807F039FC064B074A0193074B3B
:1001D40007490093C0B23D23FFF7CCFF05B05DF89B
:1001E40004FB00BFA9A50000C48900002B8A0000FD
:1001F4003C8B0000F0B5A5B008AC012200212046DC
:1002040000F006FF204607F018FC4F4E4F4D2923FF
:100214004F4A5049ADF8340001960095C0B2FFF73B
:10022400A9FF204600F016FF2A23494A4A49ADF89F
:100234003400CDE90056C0B2FFF79CFF204607F01A
:10024400FCFB2B23424A4349ADF83400CDE9005668
:10025400C0B2FFF78FFF204600F0FCFE2C233C4A7F
:100264003D49ADF83400CDE90056C0B2FFF782FF36
:10027400204600F009FFC0F30723C7B28DF80D3004
:1002840038463123CDE90056314A3449FFF772FF2D
:100294009DF80D0067B93249AF23324A324807F05E
:1002A4001FFB324807F01CFBAF212E4807F00FFB61
:1002B4003223274A2E49CDE9005680F00100FFF78A
:1002C40059FF09212B4A0DA800F01EFF0023CDE998
:1002D4000443294B04A90793284B0DA8069300F067
:1002E4004BFF069BADF808001BB104A90322084686
:1002F40098473F23164A2249CDE900569DF8080045
:10030400FFF738FF0DA800F0E3FF4023104A1D4912
:10031400ADF81000CDE90056C0B2FFF72BFF204620
:1003240000F098FE41230A4A0B49ADF81000CDE9CC
:100334000056C0B2FFF71EFF0DA807F086FB20464B
:1003440007F07AFB25B0F0BDA9A500004D8A000096
:10035400C4890000368A00007A8A0000918A00006D
:10036400F18A0000B08A0000FE8A00001B8B0000A6
:10037400368B0000498B0000C50100001F76000089
:100384003C8B00005F8B00002DE9F04104460D46D4
:1003940007F098F9804600284AD12946204607F0FC
:1003A40062F90146204607F0A5F904EB80010E69C5
:1003B40096B90122E36882401343E36002220D618F
:1003C4002B462946204607F043F9032229462046B6
:1003D400BDE8F04107F03CB902223146204607F05F
:1003E4002CF9032201460746204607F026F98642E7
:1003F4000AD045210F4807F0E7FA88F31188BFF3C4
:100404006F8F0423184602DF3B460222294620460A
:1004140007F01EF9032233462946204607F018F94F
:1004240039462B46204607F013F902223146CEE71F
:10043400BDE8F081848B00002DE9F04117460322CA
:100444000E46044607F0F9F88642054607F104080B
:100454000AD10122E368BA4023EA0203E3600023DD
:1004640044F82830BDE8F08102223146204607F0E6
:10047400E4F8032201460746204607F0DEF88642E8
:1004840006D102222946204607F0D7F886420BD02F
:1004940045210D4807F098FA002383F31188BFF330
:1004A4006F8F0423184602DF2B4639462046032269
:1004B40044F8285007F0CCF83B4629462046BDE8CE
:1004C400F041022207F0C4B8848B000038B5012241
:1004D40005460C4607F0B1F8C30713D42146284655
:1004E40007F0EAF80146284607F0DFF8844209D10C
:1004F4002146284607F0D9F80146284607F0DCF8DB
:1005040084420BD04521064807F05EFA002383F3AA
:100514001188BFF36F8F0423184602DF38BD00BF74
:10052400AD8B0000F8B50E46002900F08480046805
:100534000122204607F0D4F801460546204607F07C
:100544007CF810EA02070BD1324645213A4807F0FD
:100554003BFA87F31188BFF36F8F0423184602DF39
:100564002946204607F0A8F80146204607F09DF8E2
:10057400A8420CD032464521304807F025FA002322
:1005840083F31188BFF36F8F0423184602DF2946D3
:10059400204607F08AF80146204607F08DF8A84265
:1005A4000CD032464521264807F00EFA002383F387
:1005B4001188BFF36F8F0423184602DF00222946F7
:1005C400204607F056F8294607F076F8012201463E
:1005D4000646204607F031F8C2070CD431462046BF
:1005E400FFF774FF3146204607F0D3F83246294618
:1005F400204607F089F82946204607F056F80122DC
:1006040001460646204607F018F8C3070DD43146C4
:100614002046FFF75BFF3146204607F0BAF82A462A
:100624003146204607F070F8354629462046BDE895
:10063400F840FFF7A9BEF8BD5A8C0000008C0000FA
:100644002E8C00002DE9F0474B42066803EA0107AF
:1006540031EA03031446B2681DD0B2F5004F2CBF33
:1006640008230423BB4228BF3B46B946CF1B07F1EE
:10067400FF3A1AEA070F1DD03C4940F2E9133C4AFD
:100684003C4807F02DF93C4807F02AF940F2E911FB
:10069400374807F01CF9B2F5004F34BF0423082390
:1006A400994204D82146BDE8F04707F0C6B84FF098
:1006B4000009DCE71CB900252846BDE8F087B2F53F
:1006C400004F34BF04250825FB1AE10804F0070095
:1006D40001EBD301073003F0070303442B4401EB80
:1006E400D301914228BF1146304607F068F880468E
:1006F4000028E0D0B36809EBC005B3F5004F34BF60
:10070400042308231D4435445544B5FBF7F57D43C4
:10071400A5EB09052946304606F0E2FF2C440734D0
:1007240024F00704A41B804507464FEAE40408D2DA
:1007340002464146304607F005F841463046FFF789
:1007440023FE3946304606F0B7FFA04208D93946A1
:100754003046224606F0F6FF21463046FFF714FEE7
:1007640001223946304606F084FFA5E7AC8C000030
:10077400848C0000FE8A0000C78C0000B2F5802F34
:10078400F8B510D2042A28D83F4940F2E3233F4A5F
:100794003F4807F0A5F83F4807F0A2F840F2E321EC
:1007A4003A4807F094F80823D21ACC1D114424F0D7
:1007B400070421F00701091B17294FEAD1060ED8B7
:1007C40035494FF43B73314A314807F089F83148D1
:1007D40007F086F84FF43B71E2E70423E4E70023D3
:1007E400046031462046A660E36006F083FF820081
:1007F40002F11B05B6F5004F4FEAD5050FD26B1C6D
:100804009E420CD2254940F20233204A204807F088
:1008140067F8204807F064F840F20231C0E700218D
:10082400043204F1100007F0C1FD2A4620460021DD
:1008340006F037FF002320461A46194606F008FF43
:10084400771B19462046012206F013FF3A46294633
:1008540006F027FF2B4600222946204606F0F8FE24
:100864003146204606F01DFF3B4631462046002215
:1008740006F0EEFE31462046012206F0FAFE294635
:10088400BDE8F840FFF780BDE48C0000848C0000D4
:10089400FE8A0000058D00001E8D0000478D0000BB
:1008A40010B5EFF31184202383F31288BFF36F8F05
:1008B400184806F053F968B98423174A17491848A9
:1008C40007F00EF81349174807F00AF88421124874
:1008D40006F0FDFF0F4806F065F9102200211248CA
:1008E40007F064FD0B4806F047F968B94FF49973B3
:1008F400094A0E490A4806F0F3FF06490C4806F077
:10090400EFFF4FF49971E2E784F31188BFF36F8F1F
:1009140010BD00BF400500208B8D0000BD8D000080
:10092400FE8A0000D28D0000E0000020E88D000067
:10093400FF8D0000014B1B68184700BF000000201A
:10094400014B1860704700BF0000002030B504461A
:1009540085B00D4610220021684607F027FD0223CA
:100964008DF80230044B2A4621466846019306F06E
:1009740011FC05B030BD00BF3909000080B5054643
:100984000E461746984605F0CBFD034601F066F97E
:10099400DFF83C90044649F8003042463946304678
:1009A400A8470C4B1B7873B90B4940F246330B4AEA
:1009B4000B4806F095FF0B4806F092FF40F24631D3
:1009C400064806F084FF54F8090001F0DFF800BF80
:1009D400080000001E070020448E0000148E000052
:1009E400FE8A0000578E00002DE9F84F0546AB8BB8
:1009F40008461907904616D501280CBF43F010038A
:100A040043F02003AB831435284606F0B5F80028DC
:100A140040F0B181AE494FF49973AE4AAE4806F046
:100A24005FFF29469DE0022803F0070140F07D8125
:100A3400284606F062FF052800F2FA8001A353F865
:100A440020F000BF0B0A00002F0D0000350C000041
:100A5400D90A0000730B0000D30B000002F0070258
:100A6400531F012B1AD80023062A2E68A4B2C5E905
:100A7400003309D1334603E0EA8B0132EA831B6871
:100A8400002BF9D144F002042846AC8306F035FF6C
:100A9400002800F05A8144F0200455E1042A0DD1C5
:100AA400A4B22846AC8306F028FF0646002800F0CE
:100AB4004C8144F020040026AC8346E1874940F28F
:100AC4001B13874A844806F00BFF40F21B1184482D
:100AD40006F0FDFE49B183494FF4AB73804A7E486A
:100AE40006F0FEFE4FF4AB71F1E72B684BB97E497B
:100AF40040F257137A4A784806F0F2FE40F2571152
:100B0400E5E72B691F684FB978494FF4AD73744A10
:100B1400714806F0E5FE4FF4AD71D8E70E468A46FB
:100B24004FF00609AC8B24F0070444F00604A4B289
:100B3400AC83AB68002B00F00F814FF0010B44F045
:100B44000804AC8305F11404204606F015F80028C7
:100B540078D15F494FF499735E4A5F4806F0C0FE4E
:100B64002146634806F0BCFE4FF499718EE00229D9
:100B740009D0604940F25D13594A574806F0B0FE67
:100B840040F25D11A3E7EE8B4EB15B494FF4AF73B6
:100B9400534A514806F0A4FE4FF4AF7197E72B690E
:100BA4005F684FB9514940F261134D4A4A4806F013
:100BB40097FE40F261118AE7AC8BB24624F0070439
:100BC40044F00404A4B24FF00409AC83B1E7012952
:100BD40009D04A494FF4B273414A3F4806F080FEB7
:100BE4004FF4B27173E72B684BB93F4940F2651378
:100BF4003B4A394806F074FE40F2651167E72B69F9
:100C04009F684FB939494FF4B473354A324806F0F6
:100C140067FE4FF4B4715AE70026AC8BB24624F059
:100C2400070444F00504A4B24FF00509AC8380E73F
:100C34002A4940F26B132A4A274806F051FE40F233
:100C44006B1144E788F31188BFF36F8FBBF1000F7A
:100C54001ED1002E33D117B128462949B847EFF3E6
:100C64001188202383F31288BFF36F8F204605F089
:100C740075FF00284AD18423164A2249164806F0F3
:100C84002FFE2146204806F02BFE842111481FE741
:100C9400A9680029DDD0D1F800800029D9D05346B5
:100CA4004A462846D1F804B0D847B8F1000F04D01A
:100CB400D8F8003041469846EFE74346FAE7314614
:100CC40053464A462846366806F043FEC1E700BF4D
:100CD400E88D00008B8D0000FE8A0000FDA200005C
:100CE400848E0000AE8E0000BA8E0000DD8E0000FF
:100CF400FF8D0000F48E00000A8F0000198F0000A1
:100D0400890D0000BD8D0000D28D0000204605F045
:100D140049FFAC8B24F00804A4B2AC83E20621D5CD
:100D240024F01003AB8304F00701D5F818A0AA8BB4
:100D3400BAF1000F22F00704BFF690AE00232E682C
:100D4400C5E9003344F00104AC8304F00709894584
:100D54004FF000077FF4EDAE0EB9002FDED04FF058
:100D6400000BECE6A3067FF54EAE24F02003AB8324
:100D740004F007015CE688F31188BFF36F8FBDE8C8
:100D8400F88F00BFF8B504460D4600F11406EFF3E2
:100D94001187202383F31288BFF36F8F304605F049
:100DA400DDFE68B984230C4A0C490D4806F098FD11
:100DB40031460C4806F094FD8421074806F087FD6F
:100DC400304605F0EFFEA5613A462046BDE8F840FE
:100DD4000121FFF709BE00BF8B8D0000BD8D00000F
:100DE400FE8A0000D28D00002DE9F04704460E462D
:100DF40006F09FFD051E66DB04F11409EFF3118A6A
:100E0400202383F31288BFF36F8F484605F0A6FEB4
:100E1400804660B98423374A3749384806F060FD74
:100E24004946374806F05CFD8421324843E0484691
:100E340005F0B8FE4FF6FF72E38BA78B934207F0E1
:100E4400070743D0062F2CD8DFE807F01F43092BF0
:100E54001F041F006FF085054FF0000802E0022513
:100E64000133E383484605F087FE002834D14FF46C
:100E74009973204A2349214806F032FD4946224805
:100E840006F02EFD4FF49971CFE7002333606368B9
:100E940023B9C4E9006687B13D46DDE71E6066609C
:100EA400F9E71A4915484FF4E473194A06F018FD96
:100EB4004FF4E471164806F00AFD5246022120461A
:100EC400FFF792FD3D462846BDE8F0876FF00A051E
:100ED400C2E76FF00405BFE78AF31188BFF36F8F91
:100EE400B8F1000FEFD000233A463146204606F011
:100EF40030FDE8E78B8D0000BD8D0000FE8A000008
:100F0400D28D0000E88D0000FF8D0000198F0000D5
:100F1400848E000008B54268034602F00302032AE7
:100F240081600AD06AB9084908484523084A06F08E
:100F3400D7FC4521064806F0CAFC006800225A6026
:100F440008BD0020FAE700BFFDA20000FE8A0000F1
:100F54002F8F0000014B0360002070476888000059
:100F640013B540694FF0FF324FF0FF3304F03CF902
:100F7400044690B1024645210B4806F025FD862320
:100F84000A4A0B490B4806F0ABFC21460A4806F016
:100F9400A7FC8621054806F09AFC000C000440F0EA
:100FA400010002B010BD00BF668F0000818F0000F9
:100FB4008B8A0000FE8A0000AD8F000013B54069E3
:100FC40004F0DAF9044690B1024645210B4806F0D4
:100FD400FBFCAB230A4A0B490B4806F081FC214673
:100FE4000A4806F07DFCAB21054806F070FC000CB5
:100FF400000440F0010002B010BD00BFC58F000026
:10100400818F00008B8A0000FE8A0000E28F0000BE
:1010140038B500230446036107F008F9054668B1B2
:101024005523084A0849094806F05AFC2946084845
:1010340006F056FC5521034806F049FC246120467D
:1010440038BD00BFFC8F0000929A0000FE8A0000A9
:101054002C90000013B500694FF0FF324FF0FF33BE
:1010640004F0FAFA044650B102464521054806F058
:10107400ABFC0020E4B240EA042002B010BD012021
:10108400F9E700BF4A90000013B50069002200236D
:1010940004F0E2FA10F1100F044609D0A0B10246A0
:1010A40045210A4806F090FC0023E4B21A4602E007
:1010B400002401222346002062F3070063F30F207B
:1010C40064F3174002B010BD0123EFE74A9000001B
:1010D40010B504460121183006F094FC636B0BB97B
:1010E40007F052F9A36B04F12C0098472046FFF750
:1010F40037FF044A20461378013B1370BDE81040C3
:10110400FFF75CBF1407002070B504460D46164671
:1011140006F08AFC04F1180006F06CFC0023C4E914
:101124000B33C4E90D3304F1480384F83C502364C1
:101134007EB13046FFF716F80F2805460BD901306B
:1011440007F011F9A56420642A46314607F021F915
:1011540006E0084EEDE7012D206C08D133780370CA
:101164000023226C65645355A365204670BD002D91
:10117400F6D0E9E78C900000F0B504468FB00D4638
:10118400FFF7EEFEA26D002A40F08980454E3378C9
:10119400012B0DD97023444A4449454806F0A0FB6D
:1011A4000221444806F09CFB70213F4806F08FFB67
:1011B4000AAB0A92D5E9027C5A602FB195E8030084
:1011C400C5E9022283E8030093E8030008AD85E83B
:1011D400030004F12C0292E8030083E8030095E87D
:1011E400030082E80300626B18460C92A26B6763EB
:1011F400C4F838C00D9206F0F4FB94F93C2035781D
:101204004FF0FF304FF0FF310023A827CDE906014E
:1012140029492A48CDE90323CDE901334FF400627B
:1012240007FB0500264B009401EBC52104F014FBD9
:10123400A06550B92349B3231B4A1D4806F050FB4F
:10124400214806F04DFBB321AFE7216C04F07EFA90
:10125400054658B1B923144A1A49154806F040FB0B
:1012640029461A4806F03CFBB9219EE7A06D05F01B
:10127400FFF8337801333370012320468DF828308A
:101284008DF82950FFF79AFE00209DF8283063F36B
:1012940007009DF8293063F30F200FB0F0BD002341
:1012A4007825EAE714070020A7900000D4900000F6
:1012B400FE8A0000F090000020070020F0000020CB
:1012C400D51000008B8A00001D9100002C910000B5
:1012D40037B50546FFF744FEADF80000C0B278B953
:1012E4009DF80140D6232F4A2F49304806F0F8FADA
:1012F40021462F4806F0F4FAD6212A4806F0E7FAE8
:10130400AB6D002B39D02846FFF758FEADF800002E
:10131400C0B268B99DF80140DB23224A2249234820
:1013240006F0DEFA2146234806F0DAFADB21E4E788
:10133400A86D4FF0FF324FF0FF3305F02BFA04464F
:1013440028B10023C4B243EA042003B030BD2846C8
:10135400FFF706FEADF80000C0B268B99DF8014081
:10136400E423104A1049114806F0BAFA21461048FD
:1013740006F0B6FAE421C0E7AC652846FFF71EFE86
:10138400C3B2C0F30724002BDDD1EB23054A064981
:10139400064806F0A5FA2146064806F0A1FAEB2114
:1013A400ABE700BFA790000042910000FE8A000056
:1013B400469100006691000008B50348034A0021E5
:1013C400121A06F062FB08BDE0000020200700208E
:1013D400074808B5074A0849121A06F058FBBDE841
:1013E40008400648064A0749121A06F050BB00BFD7
:1013F40000000020DC00002028AC000000000020D9
:101404000000002028AC000037B505460C46C9B1E1
:101414008B6814480093D1E90023452106F0D4FADF
:10142400636945210093D4E903230F4806F0CCFAFD
:101434004521E2690D4806F0C7FA4521A2690C4826
:1014440006F0C2FA012D06D1EFF3058245210948C1
:10145400103A06F0B9FA2146284603B0BDE83040F8
:1014640003F0D8BC91910000C5910000F9910000EF
:101474000D9200004092000030BFFFF7FDBF00BF97
:101484002DE9F04105460B4EDFF82C80324606EB81
:101494000807CC1B2046094906F07BFFA0194246E9
:1014A4000021083C06F082FFC5F8984007F10800C7
:1014B400BDE8F0810000000008000000588800002A
:1014C40010B5244C4521244806F07EFAA36A9901FC
:1014D4003ED52248452106F077FA1E20A36ADA0198
:1014E40004D51F48452106F06FFA1F20194CA36A42
:1014F400DB0204D51B48452106F066FA0220A36AE4
:101504001C0304D51848452106F05EFA2120114C2D
:10151400A36A590304D51548452106F055FA22203B
:10152400A36A9A0304D51248452106F04DFA2320F4
:10153400084CA36ADB0304D50E48452106F044FA9F
:101544002420A36A6FEA03436FEA1343A36210BD26
:101554001D20C3E700ED00E05892000075920000E2
:101564008D920000AC920000DB920000FE9200001D
:10157400289300004793000070B5284C06460D469A
:101584002748452106F020FAA36AD9043BD525480B
:10159400452106F019FA1720A36A1A0504D5224832
:1015A400452106F011FA18201C4CA36A9B0511D59D
:1015B4001E48452106F008FAA26BA36A180408D550
:1015C40045211B4806F000FA1EB1A36A23F4004328
:1015D400A3621920114CA36A590504D51548452165
:1015E40006F0F2F91A20A36ADA050ED5124845214D
:1015F40006F0EAF91B20094A936A43F47F43936295
:1016040000232B7070BD1620C6E7A36A9B04F2D595
:101614000A48452106F0D8F91C20ECE700ED00E06B
:101624007793000092930000A8930000C0930000F9
:10163400DE930000F8930000189400003594000035
:1016440070B5344C06460D463348452106F0BCF9C6
:10165400A36AD9064CD53148452106F0B5F91120C5
:10166400A36A1A0704D52E48452106F0ADF91220C5
:10167400284CA36A9B0711D545212A4806F0A4F9F2
:10168400626BA36A190608D54521274806F09CF920
:101694001EB1A36A23F08003A36213201D4CA36A26
:1016A400DA0704D52148452106F08EF91420A36AEF
:1016B4009B0604D51E48452106F086F91520154BD6
:1016C4009A6AD60602D49A6A940713D59B6AD906F5
:1016D40010D5184940F22D13174A184806F000F99E
:1016E400174806F0FDF840F22D11134806F0EFF804
:1016F4001020B5E7074B9A6A920642BF5A6A22F451
:1017040000525A629A6A42F0FF029A6200232B70D6
:1017140070BD00BF00ED00E06994000084940000F7
:10172400A8930000BC940000D9940000F494000035
:10173400359400004F95000018950000FE8A0000C3
:1017440099950000F0B5754B0446586800258BB098
:10175400C0F3080385F31188BFF36F8F02F07F464F
:10176400B6F17F4F07D102F00C06082E12D14521A5
:101774006B4806F029F96B4940F21B436A4A6B48EF
:1017840006F0AEF86A4806F0ABF840F21B41664832
:1017940006F09DF816074CBF0C460125002CEAD034
:1017A4000026DA1E8DF80760092A00F2A880DFE817
:1017B40002F0059B9F7EA6A6A6A6A6A345215D488A
:1017C40006F002F98DF80760544EF36A9A0705D5BE
:1017D4004521594806F0F8F800232DE0F36A002B60
:1017E40002DA45215548F5E7F36A5B006FD54521D8
:1017F400534806F0E9F87369A26943F4807373618E
:10180400BFF34F8FBFF36F8F32F8023C726922F43B
:1018140080727261BFF34F8FBFF36F8F03F47F4207
:10182400B2F55F4F2AD1DBB2022B27D145212268C2
:10183400444806F0C9F823689DF80720E2B902AECF
:1018440004F12007324620686168083403C2BC42B0
:101854001646F7D1099A002D5DD0C2F3080121B9CB
:101864006FEA52226FEA42220992102B34BF1846C3
:10187400002002A9FFF7C8FD0BB0F0BD274B9A6A00
:10188400D2B232B101200DF10701FFF7D9FE0346B0
:10189400D2E79A6A12F47F4F05D001200DF10701B7
:1018A400FFF76AFEF3E79B6AB3F5803F02D3FFF7C5
:1018B40007FEECE7244940F2ED231B4A1B4806F0DF
:1018C4000FF8224806F00CF840F2ED215FE71E49BC
:1018D4004FF43C73144A154806F002F81C4805F00E
:1018E400FFFF4FF43C7152E700200DF10701CCE7F4
:1018F40000200DF10701D3E7452116486AE7164990
:1019040010F4F87F154A164818BF0A46103B4521C3
:1019140006F05AF860E76FF30802A5E700ED00E06F
:101924002B9600005B96000018950000FE8A0000CC
:101934006E960000AC960000C8960000EE9600007B
:101944000197000025970000FDA2000046970000C3
:101954006A9700009A97000012960000FD95000017
:10196400C3970000064B5A6942F010025A615A6943
:1019740042F480625A615A6922F008025A6170473F
:1019840000ED00E0EFF30880EFF3098101B5724642
:10199400FFF7D8FE01BD00BF0B4880F3088802F0B2
:1019A4002BF9202080F3118808484FF40061401877
:1019B40080F30988EFF314800221084380F314882C
:1019C400BFF36F8F00F072F86048002020370020CA
:1019D4001EF0040F0CBFEFF30880EFF30980816958
:1019E40011F8021C0229FFD001B5724606F051F825
:1019F40001BD00BF40B2002807DB01234109034AAF
:101A040000F01F00834042F82130704700E100E0FD
:101A1400054B420953F82220012300F01F0003FA6A
:101A240000F01040704700BF00E100E038B54B1CE7
:101A3400072B04460D460FD96B23104A1049114851
:101A440005F04EFF294610480723224605F048FFBB
:101A54006B210A4805F03BFF40B20028ACBF00F1FF
:101A640060400A4A4FEA4313DBB2ABBF00F5614062
:101A740000F00F0080F80033135438BDDB970000EA
:101A840017980000FE8A00003298000014ED00E070
:101A9400044B054A23F07F039360BFF34F8FBFF3DA
:101AA4006F8F70470000000000ED00E008B5FFF7FD
:101AB400EFFF0B4AD2F8883023F47003C2F8883061
:101AC400EFF3148323F0040383F31488BFF36F8FBD
:101AD400FFF772FCFFF77CFC00F0A2F803F0D6FAE3
:101AE40000ED00E042F8203C009B0B4942F81C3C0E
:101AF400019B21F0010142F8183C029B42F8081CAA
:101B040042F8143C4FF0807342F8043C0023203A1E
:101B14000265C0F89C3070478109000000B50E4B87
:101B240015469860D0F898200C4B0E461A60D0F8F1
:101B3400883083F30B882C4686F309880020044BF5
:101B440098472046002100220023024C2047000031
:101B5400C57A000081090000D40600204405002055
:101B64001022014B1A61704700ED00E0054B5A69E1
:101B74009B689A421FBF044A536843F080535360E2
:101B8400704700BFD406002000ED00E0084B9B68BE
:101B940083420BD1EFF3058343B1064B5A6842F0FD
:101BA40080525A605A6A22F400425A6204F0BEBC5F
:101BB400D406002000ED00E016498A684FF030009A
:101BC4001044EFF3098C80E8F01F202080F3128882
:101BD400BFF36F8F104F4FF000664A698A603E6012
:101BE400D2F898000D4C2060D2F89C000023C2F873
:101BF4009C3080F3118802F1300090E8F01F8CF3E0
:101C0400098802F1000004B505F052FFBDE8044064
:101C140070470000D406002004ED00E044050020D5
:101C2400002320210348C2180133452B82F80013F6
:101C3400F9D1704700E100E008B5EFF30583064AE7
:101C4400103B02EBC30152F8330049688847BDE8F2
:101C54000840FFF78BBF00BF5C85000001480068A7
:101C640070470000440500201FB50121094B0A4AB2
:101C74000A4800F00BF90023064A0393084B01219C
:101C8400019301A8D31A029300F024F905B05DF87A
:101C940004FB00BF0000072000000020688800004B
:101CA400E00000200A7A0B6810B562F304031C46B6
:101CB400CB68520923F01F0343EA4203044A43F06A
:101CC4000103C2F89800C2F89C40C2F8A03010BDCD
:101CD40000ED00E010B50A4B0446D3F89030C3F38E
:101CE4000723013B984208D902464521054805F0DF
:101CF4006BFE6FF01504204610BDFFF7D3FFFAE723
:101D040000ED00E0769800002DE9F04F8946144676
:101D140006464FF000084F4D85B0C84527DAD6F87F
:101D240004A0BAF1000F44D0BAF11F0F18D91AF069
:101D34001F0F15D1D6F800B01BF01F0F10D1584655
:101D440005F0FAFE07460AEB0B00013805F0F4FE35
:101D5400874210D06FF015073A4645213E4802E00D
:101D6400424645213D4805F02FFE6FF015042046FC
:101D740005B0BDE8F08F17F1160FEDD0BC42EBDDD6
:101D8400C5F89870D5F89C10C5F89870D5F8A030AF
:101D940021F01F0143F01F0BD6E900321A44994287
:101DA40002F1FF3A1AD1D34507D13146F8B205F012
:101DB400CCFE08F101080C36AFE73146C5F898703F
:101DC400D5F89C30E0B263F30402C5F89C2005F01A
:101DD400BCFE10F1160FC8D0441CEAE7C5F8987091
:101DE400D5F8A020013B23F01F0302F01F02134388
:101DF400D3453146E0B2C5F8A030E8D005F0A5FEE1
:101E040010F1160FB1D0C5F89870D5F89C209DF844
:101E140008300BF1FF3B62F304038DF80830D5F86A
:101E2400A0309DF808205B0863F347128DF8082062
:101E3400D6E900321344009323F01F035B44A3EB61
:101E44000A03013023F01F036946C0B20393FFF76E
:101E540041FFBEE700ED00E0CC980000A19800002F
:101E64000522044BC3F89420BFF34F8FBFF36F8F49
:101E7400704700BF00ED00E0BFF35F8F0022024B0C
:101E8400C3F89420704700BF00ED00E038B50C4D56
:101E94000C462A78FFF738FF287016300FD140F22D
:101EA4008913084A0849094805F01AFD21460848DB
:101EB40005F016FD40F28911024805F008FD38BD11
:101EC40015070020F4980000FDA20000FE8A00001F
:101ED400289900002DE9F74F314D894606464FF009
:101EE4000008AB462F4FC84502DB03B0BDE8F08FB6
:101EF400D6F804A0BAF1000F4CD03168084601911D
:101F040005F01AFE019904460AEB0100013805F0B8
:101F140013FE84424FF01402234B15D002FB08F346
:101F24006FF015024BF8032040F299131F4A204921
:101F3400204805F0D5FC49461F4805F0D1FC40F285
:101F440099111A4805F0C3FC14F1160F2C60EBD05C
:101F54001978A142E8DD02FB08B0C7F89840C7F839
:101F64009840D7F89C4000F10801007B64F304001A
:101F74000871D7F8A0000C79400860F347140C717D
:101F8400D7F89C1021F01F016960D7F8A01021F048
:101F94001F01296108F1010814350C36A3E700BFBD
:101FA4004805002000ED00E015070020F49800002B
:101FB400FDA20000FE8A0000549900002DE9F041C2
:101FC4006B4D6C4ED5F890303468C3F307239C42B4
:101FD40086B013D940F20223674A6849684805F07D
:101FE4007FFCD5F8902021466648C2F3072205F00D
:101FF40077FC40F20221604805F069FC0020FFF7FD
:102004003BFF614BC5F8C03084421BD15F4D01A832
:102014002C70FEF79FFF002607464FF061085C4CCA
:10202400B74216D100202B785149D1F89020C2F341
:1020340007229342C0F295800020FFF711FF06B0FB
:10204400BDE8F081716801EB0011FFF72BFE013050
:10205400DAE7019A300102EB0613D3F80CC00CEA5C
:102064000401B1F1807F57D00AD8B1F5001F29D0FF
:10207400B1F5800F43D0B1F5801F14D00136CFE7FE
:10208400B1F1006F48D0B1F1805FF7D159689B6816
:102094001258013B21F01F000344CDE9021223F042
:1020A4001F0301220BE0596812589B68CDE9021204
:1020B4002122013B21F01F00034423F01F038DF86C
:1020C400102036E0596812589B68CDE9021241226B
:1020D400013B21F01F00034423F01F031CF0010FF8
:1020E4008DF81020059325D02A498423224A2448B8
:1020F40005F0F6FB284805F0F3FB84217BE75968DB
:102104009B681258013B21F01F000344CDE90212E1
:1021140023F01F030622D2E7596812589B6821F066
:102124001F00013BCDE90212034423F01F038DF885
:1021340010800593287802A9FFF7CCFD00280CDA5B
:102144000E4940F235230C4A0D4805F0C9FB1348EB
:1021540005F0C6FB40F235214DE72B7801332B7097
:102164008CE7C1F89830C1F8A00001335DE700BFE7
:1021740000ED00E074880000F4980000FDA2000067
:10218400FE8A000083990000AAFF4400150700207E
:102194000000F0FFB7990000DD9900000C9A0000E0
:1021A40008B5024B1B689847002008BD5C05002059
:1021B400034B044A1860937843F00203937070470A
:1021C4005C0500200400002008B5054805F072FBFA
:1021D400002383F31188BFF36F8F0423184602DFB3
:1021E400459A000008B50649064821F00701C1F1E7
:1021F400005202F5E022FEF7C1FA002008BD00BF3C
:10220400674800206005002008B54FF0FF324FF00A
:10221400FF33074802F0E8FF48B1064906487F2328
:10222400064A05F05DFB7F21044805F050FB08BD1C
:10223400140000208D9A0000FE8A00004E9A0000CF
:10224400014803F099B800BF1400002038B50546D2
:10225400FFF7DAFF2A4608210748FEF7F3F9044698
:1022640028B925B1FFF7FAFC0C22044B1A50FFF7EA
:10227400E7FF204638BD00BF600500200C000000C9
:1022840010B50446FFF7C0FF21460348FEF74AF99C
:10229400BDE81040FFF7D4BF60050020054B03EBF9
:1022A4008000D0F8003223F0E04343F04053C0F8FC
:1022B4000032704700258450052370B5144D154E27
:1022C4002C780134B4FBF3F303EB8303E41A05F035
:1022D40097FD114A137823B156F82430C01A072801
:1022E40014D94FF05023D3F8141141B10021C3F88D
:1022F4001411D3F814312C700CB9012313702C78F9
:1023040005F07EFD46F82400012070BD0020FCE7A6
:10231400170700206C05002016070020012208B5CD
:10232400114B1249C3F8002502230020C1F8D0360E
:10233400FFF7B4FF1046FFF7B1FFC1F80427C1F857
:102344000429C1F8002B00F0A1F858B10849094844
:1023540040F23123084A05F0C3FA40F2312106481D
:1023640005F0B5FA08BD00BF001000500040005051
:10237400CA9A0000FE8A00009B9A000007B500225A
:10238400134B1449C3F8A821C3F8AC204FF480625E
:10239400C3F8B8254FF400620F48C3F83C250DF18B
:1023A400070205F076FD00280BDA0C490C4840F2D0
:1023B4003B230C4A05F094FA40F23B21094805F00E
:1023C40086FA9DF8070001F015FD03B05DF804FBE3
:1023D40000A002502CA0025028A10250CA9A00006A
:1023E400FE8A00009B9A000048B1054B054A1B6811
:1023F400B3FBF2F35843044B43F00103184770470F
:10240400B800002040420F0060880000002170B531
:10241400184C194D000714F8013B5E0914D0012E25
:1024240006D14FF6FF7203F01F03DA40D2070ED431
:10243400124913484FF47473124A05F051FA4FF4D9
:102444007471104805F043FA4FF0FF32EBE70E4A7F
:102454000131012E18BF2A4602EB8302D2F8003262
:10246400042923F0E04343EA0003C2F80032D2D146
:1024740070BD00BF08AC0000002584500F9B000015
:10248400FE8A0000D79A00000028845001490248BF
:1024940005F075BA9C8800008005002008B54FF04F
:1024A400FF33044A13603F231046536001F07CFC61
:1024B400002008BDA005002070B50546074C084E55
:1024C400B44202D30024204670BD28462168FDF79B
:1024D4003FFE0028F7D01C34F2E700BFD08700008D
:1024E400EC8700002DE9F84380460D46144600238E
:1024F4000E4F0F4EDFF83C903B704E450ED3D8F88C
:1025040008300BB12046984702220B4B20461A7024
:10251400AB68984701233B70BDE8F883336813B177
:102524002146284698470836E7E700BF19070020E8
:102534000088000008880000D000002008B50F487B
:10254400FFF724FB05F07EFEB8B90D4B1B7873B979
:102554000C4940F246330C4A0C4805F0C1F90C48CA
:1025640005F0BEF940F24631074805F0B0F9FFF72F
:1025740075FB084B1858FFF709FB08BD4002002003
:102584001E070020448E0000148E0000FE8A000006
:10259400578E00000800000008B50E4B1B7873B17D
:1025A4005A1E012A0FD9052B96BF0B4A0B4952F824
:1025B40023100B4805F07EF902220A4B01E00522A4
:1025C400094B1A7008BD0222074B1A70BDE8084077
:1025D400FFF7B4BFD0000020A8880000329B0000A1
:1025E4003C9B00001A0700201907002070B505461F
:1025F40039B101F11404084EB44204D30024204636
:1026040070BD064CF7E728462168FDF7A1FD0028B8
:10261400F5D01434F0E700BF00880000EC87000018
:102624002DE9F04F8BB017460646099140B90222B6
:102634004FF0FF388E4B1A7040460BB0BDE8F08F58
:1026440001688C4805F036F98B4805F033F9002011
:102654008A4B1870DFF828A28AF80000894B18709A
:102664009AF80030052B02D0706800B180474FF013
:102674000009002F08BF0746C8464D46099B9945E7
:10268400C0F2DC80B8F1000F3168D4BF7E487F48C7
:1026940005F010F904227B4B1A703369002BCBD060
:1026A40038469847C8E77A4B20469B68696898473C
:1026B400002800F0BF802A6976481368013313604C
:1026C400696805F0F7F801236E4A137005F098FB6A
:1026D400714B18604FF0FF324FF0FF33CDE9062302
:1026E4004FF0FF330822CDE90157CDE903326B499E
:1026F4004FF400526A4B00966A4803F0ADF86968DB
:1027040011B1684803F022F89AF80030043B012B19
:1027140009D9644803F0ACFE4FF0FF324FF0FF33A9
:10272400604804F037F80322564B1A70F3680BB173
:10273400384698475C4CDFF874B105E0636813B120
:1027440039462846984708345C45F7D305F058FBCA
:10275400514B4FF47A711B680022C01A47F6FF737D
:10276400E0FB0132DB0B43EA4243514A13602A691E
:102774001169994238BF136105229AF80040414B10
:10278400022C1A704B4B03D0944201D01A7862B3D6
:10279400002201241A704348FFF7F8F96B68DFF848
:1027A40018B10893454B9B4526D34FF47A71404B9F
:1027B40043481A68B2FBF1F301FB1322414900922A
:1027C40051F82410089A05F075F82B4805F072F8B2
:1027D400022C2B692AD1294A127812B10121244AE8
:1027E40011705A6801325A6024E0033C012C8CBFFA
:1027F400002401246400CEE70899DBF80400FDF707
:10280400A7FC60B92968DBF80000FDF7A1FC30B92A
:102814009BF8083033B1012BC7D1023C03E00BF124
:102824000C0BBFE7013C18BF0124BEE7D4B9DA683A
:102834000132DA600E4B1B78022B10D03468294623
:102844002046FFF7D3FE054600287FF42CAF084B43
:102854001A7822B9B8F1000F01D001221A7009F1D7
:1028640001090BE79A6808F1010801329A60E1E76F
:102874001A0700206F9B0000859B000018070020AA
:1028840019070020D0000020F39B00000B9C0000DF
:10289400D0880000CA9B0000AC050020201700204F
:1028A400E92400004002002000880000088800009D
:1028B400A80500201B070020D0870000D087000057
:1028C400D69B0000C08800002DE9F74FDFF8789010
:1028D400019399F800309046022B009031D00026E5
:1028E4001A4CDFF86CB01B4B9C4203D3304603B048
:1028F400BDE8F08F0027BA46A569B84506DC99F80B
:1029040000305644022BF1D01C34ECE72146DBF8AE
:1029140004200098904780B1002220460199FFF7D7
:102924007FFE2A680AF1010A01322A60AA68002897
:1029340018BF0132AA600137DFE76A6801326A60B2
:10294400F9E70026D2E700BF1A070020D08700006D
:10295400D0880000EC8700002DE9F04101271E4CCF
:102964001E4EB4420ED31E4C1E4EB44214D317B99D
:1029740001221D4B1A700127194C1B4DB4421AD366
:10298400BDE8F081A3691D6825B92168174804F0E2
:1029940091FF2F461C34E4E7D4F800804046FFF74B
:1029A4008BFD054628B942466168114804F082FF50
:1029B4002F461434D9E72269D2E902310B44516815
:1029C40012680B44934205D0D4E90012094804F07C
:1029D40071FF2F701434D1E7D0870000EC8700001A
:1029E400EC870000008800001A070020219C0000EA
:1029F400469C0000889C000010B4024C2468A44645
:102A040010BC6047D08800002DE9F04F8BB005F072
:102A1400FCF8594804F04EFF584EDFF864A1594BB6
:102A24009E4215D3584804F045FF584B58481B782C
:102A3400002B00F09A8004F03DFF564804F03AFF62
:102A44005549564804F036FF00200BB0BDE8F08F1E
:102A540000252C46A8462F46AB46A9463368214696
:102A640018460993FFF7C2FD099B044600283CD190
:102A7400B8454DD04A49A8EB070201FB09F191FB87
:102A8400F2F14FF47A7291FBF2F246486FF0090EBC
:102A940000FB02110A2091FBF0F00EFB0011BBF1C8
:102AA400000C18BF4FF0010C042900DD01304FF475
:102AB4007A7EB5FBFEF10EFB11550093CDE90515A9
:102AC4000346CDE90378CDE9019B5AF82C1036482A
:102AD40004F0F0FE21463068FFF788FD0446D8B9BB
:102AE400324804F0E7FE1C3699E7226908F1010830
:102AF40011690D44D2E90001814201D10137AEE7E9
:102B0400D26890420CBF09F101090BF1010BA6E751
:102B14004FF0020C0246CAE74FF47A77D4E9002357
:102B2400256928692968B0FBF7FC07FB1C006F685E
:102B34008F420DD0ED68A94213D0A5B10191491B74
:102B4400CDE902C000911A481A4904F0B3FEC1E766
:102B54000221CDE900C05AF82110174804F0AAFE5A
:102B6400B8E70021F5E70121F3E704F0A3FE0948E3
:102B740004F0A0FE114964E79D9C0000D08700008A
:102B8400C0880000EC870000A79D00001A07002001
:102B9400859B0000CD9D0000F69D0000FD9D00007A
:102BA400A086010018FCFFFFC69C0000A8A5000039
:102BB400309D00002A9D00007B9D0000139E0000B4
:102BC40037B540230C460A490093411A491105467A
:102BD4002346084A084805F02DF8014628B128463E
:102BE400234603B0BDE83040184703B030BD00BFF2
:102BF400C4050020A97C0000EC840000C9B20329AC
:102C040008B509D909490A487E230A4A04F068FE2E
:102C14007E21084804F05BFE0C22036901FB0233A9
:102C2400D3F8880000F0070008BD00BF9A9E00009A
:102C3400FE8A0000589E000070B5C9B203290346FD
:102C440000690BD919491A484FF4E873194A04F07A
:102C540047FE4FF4E871174804F039FEEFF311868C
:102C6400202484F31288BFF36F8F0C2505FB010425
:102C7400D4F8884014F0C00401D0A24212D1012239
:102C840005FB0100C0F88820002086F31188BFF3FB
:102C94006F8F30B90C225B6802FB01335B68984785
:102CA400002070BD4FF0FF30EFE700BF9A9E000098
:102CB400FE8A0000589E000070B50D460649044681
:102CC400411A491140220548FFF7B6FF2B46014639
:102CD4002046BDE870401847C4050020EC8400007D
:102CE4002DE9F8430022012107460520FEF79EFE48
:102CF400114801F09FF80446C0B901F0CFF8254609
:102D04004FF00C094FF001083E690C4906EB4510E1
:102D140004F035FE031E0CDB09FB05660135042DAA
:102D2400C6F88880F0D12046BDE8F8836FF004042B
:102D3400F9E71C46F7E700BFFD2D0000DC88000022
:102D44001FB5002201236C46CDE902236B46074AD6
:102D5400CDE9004404F09FFF28B94FF480420023DA
:102D6400684602F079FC04B010BD00BFCD7C0000C1
:102D740010B5EFF31184202383F31288BFF36F8F10
:102D8400074A136823F00201DB07116002D4012013
:102D940001F0E0F884F31188BFF36F8F10BD00BF1A
:102DA400740600200C22124B014602FB0033002063
:102DB40030B4D3E92052C3F88000EFF3118020240B
:102DC40084F31288BFF36F8FD3F8884004F0C004F3
:102DD40044F00204C3F8884080F31188BFF36F8F76
:102DE4001DB12B4630BC0348184730BC704700BFA8
:102DF400C4050020EC84000008B5092822D8DFE8C7
:102E040000F00513212121212115110F134BD3F8B3
:102E1400880010F007001FD1BDE80840FFF7C2BFCB
:102E24000220F9E70320F7E70120F5E70C4940F217
:102E3400FA230C4A0C4804F053FD40F2FA210948E5
:102E440004F045FD06494FF44173064A064804F070
:102E540047FD4FF44171F2E708BD00BFC4050020EF
:102E6400FDA20000589E0000FE8A000010B4EFF39B
:102E74001180202282F31288BFF36F8F18490B68E8
:102E840043F0020413F001030C601CD04FF05023F4
:102E9400D3F80C14D3F80C3413F0010313D0EFF36C
:102EA400118182F31288BFF36F8F0E4AD2F88830F3
:102EB40003F0C00343F00203C2F8883081F31188A1
:102EC400BFF36F8F012380F31188BFF36F8F1BB1A2
:102ED400002010BCFFF766BF012010BC01F000B851
:102EE40074060020C40500202DE9F04101220646A5
:102EF4004349D1E8EF3FC1E8E02F0028F9D1A3B955
:102F0400404941484B60CB608A60FDF76DFF002863
:102F14000BDA3E4940F2A3233D4A3E4804F0E0FC6C
:102F240040F2A3213A4804F0D2FC002E50D0731E84
:102F3400012B5AD8012E07D14FF05023D3F81C345B
:102F440003F00303022B43D005F07CF9054658B186
:102F5400EFF31188202383F31288BFF36F8F0125C9
:102F64004FF050242C4F22E02C4B1B78002BEFD039
:102F74004FF0502302228046C3F80823F0E74DB3F4
:102F8400404604F0BDFDD4F81835DBB2012B0ED158
:102F9400D4F804215AB10022C4F80421D4F804213D
:102FA4000222C4F818252022C7F88021A360D4F88F
:102FB4001824D4F81834D203E1D503F00303022B08
:102FC40001D0012EDBD155B188F31188BFF36F8F87
:102FD400BDE8F0810021212003F018FAD3E74FF077
:102FE40050230222C3F80423F2E70D4940F2B5232B
:102FF400074A084804F074FC40F2B52192E700BF88
:10300400C0050020B0050020E4050020BE9E00009D
:10301400589E0000FE8A000000E100E01E07002028
:10302400FDA2000008B5074805F0DEF838B10648EF
:10303400FFF7BEF80448FDF783FC002008BD6FF0DD
:103044001200FBE740850000513000000A2838B523
:103054000446074D04D1AB680D2128465B689847A8
:10306400AB6803485B68E1B29847204638BD00BFAF
:103074004085000038B5036961B921496423214AB8
:10308400214804F02DFC214804F02AFC64211D4849
:1030940004F01DFC486850B91D496523194A1A48B3
:1030A40004F01EFC1B4804F01BFC6521EFE7586884
:1030B40000B30024884219D108688CB99C68586010
:1030C400A14200D19860002008602AB15A680A60C1
:1030D4009A68596002B9996000200FE02846E9E730
:1030E40020609868814208BF9C60ECE7056804464C
:1030F400002DF3D1002AE9D16FF0150038BD00BFCF
:10310400429F0000019F0000FE8A00004B9F0000C8
:103114005A9F00006C9F000008B50368590914D039
:10312400012906D14FF6FF7203F01F03DA40D207DC
:103134000ED40B490B484FF474730B4A04F0D0FBC4
:103144004FF47471084804F0C2FB4FF0FF32EBE710
:103154000360064B0648012908BF184608BD00BF96
:103164000F9B0000FE8A0000D79A000000288450BC
:103174000025845070B5446801F01F05207C86B09A
:1031840045EA4015A06800286ED0B2F5001F04D1AE
:10319400294601F0F3FC00204AE00026B2F5800F36
:1031A40001A80196466032D1B3F1007F14BF052314
:1031B40004238DF804300023CDE904030393E3686A
:1031C4006E46CB4013F0010F34D1B2F1A07F31D160
:1031D40068460095FFF7A0FF009B803350F823302A
:1031E400DB0727D46A462946A06801F05DFB163048
:1031F40018D002962946A06803AA01F0F5F9002820
:1032040016DB01222946A06801F036FCC3E7B3F1BE
:10321400C06F05D0B3F1007F14BF01230223C8E7B8
:103224000323C6E76946A06801F002FC0028E0DA3F
:1032340006B070BD32462946A06801F035FB00286F
:10324400D8D19DF80010A06801F0D2FB0028D1D09D
:10325400074908484FF4F373074A04F041FB4FF45D
:10326400F371054804F033FB6FF08500E0E700BF1D
:10327400CA9A0000FE8A0000839F00002DE9F043F3
:10328400466840F20635337CD00601F01F0747EA52
:10329400431748BF032302EA050558BFC2F340138E
:1032A40087B0B5F5837F14468DF8033043D00DD82D
:1032B400062D16D005D8A5B1022D3ED06FF015000D
:1032C40036E0B5F5807FF9D101250AE040F202220B
:1032D400954234D0B5F5407F33D0B5F5007FEDD1BC
:1032E400022522032FD5012372688B409360B068B6
:1032F40080BB03A80397FFF70FFF039B00EB83003A
:10330400C4F3004383F00103C4F34044D0F8002223
:1033140044EA43049DF8033022F4706244EA8304CF
:1033240022F00F0244EA05231343C0F800320020C0
:1033340007B0BDE8F0830725D3E70425D1E70525C9
:10334400CFE70325CDE7630341BF012372688B40B8
:10335400D360CCE739460DF1020201F0A5FA14F46A
:10336400403F804617D13946B06801F029FBB8F1D7
:10337400000FDCD19DF80210B06801F039FB002881
:10338400D5D01E491E48F5231E4A04F0A9FAF5219A
:103394001C4804F09CFA4FF0000901ABCDE90199F7
:1033A400CDE90439CDF80C903946B06803AA01F090
:1033B4001BF94845BBDB14F4003314D09DF80330EB
:1033C400C4F3004484F001048DF80E308DF80C50E1
:1033D4008DF80D404B463946B06803AA01F0C6F992
:1033E4000028C4DAA3E7CDE904330DF10303039302
:1033F4003946B06803AA01F0F7F8F1E7CA9A000069
:10340400FE8A0000839F00004209034670B502D083
:10341400012A1ED070BD144E326951680029F9D0BA
:10342400012503F01F030C689D400029F2D08A682F
:103434002A4012D04B6873B90C4989230C4A0D48B1
:1034440004F04EFA0C4804F04BFA8921084804F0C1
:103454003EFA0A4EE0E7304698471CB123682146FD
:103464001C46E2E72346FAE724850000B49F0000E7
:10347400019F0000FE8A00006C9F00000885000088
:1034840038B54568A86890B101F080FA014670B972
:10349400A86801F03DFA044658B902460649A868EE
:1034A40001F0EAF9224605210D20FEF7BFFA0020BB
:1034B40038BD6FF00400FBE70D34000008B5036865
:1034C400590914D0012906D14FF6FF7203F01F03E6
:1034D400DA40D2070ED40B490B484FF474730B4AED
:1034E40004F0FEF94FF47471084804F0F0F94FF059
:1034F400FF32EBE70360064B0648012908BF184674
:1035040008BD00BF0F9B0000FE8A0000D79A000090
:1035140000288450002584502DE9F04F15460746B5
:103524004FF0010985B000EB8108B84503D10020B4
:1035340005B0BDE8F08F3B68C3F3C322082AC3F388
:10354400080400F2BB805F498E5C40F2FF12944293
:1035540008BF4FF0FF34B3F1485F4FEA13621CD247
:10356400312A1CD8DFE802F01E2D3241353C411BC4
:103574001B1B1B47A71B1B1B1B1B1B1B1B1B538A38
:103584008D901B1B1B93989B9EA1A41B1B1B1B1B99
:103594001B1B1B1B1B1B1B1B47A74E2A28D06FF092
:1035A4008500C5E7C5F80C45621C65D003A80394E3
:1035B400FFF784FF039B4FF0010A09FA03F38360CA
:1035C40038E0C5F814454FF0000A1BE0C5F808457B
:1035D400EAE74FF0000AC5F80845611C22D14BE028
:1035E4004FF0010AC5F80C45F7E7C5F81045EAE7BE
:1035F400C5F81445D8E7C5F80845002EE3D14FF0C7
:10360400000A0626631C37D04FF0000B14E0C5F8FF
:1036140060457B88601C03F001032DD0002BC5D1CD
:103624004FF0010A03A80394FFF748FF039B09FA2C
:1036340003F3C3604FF0010B3A6803A8130444BFBB
:103644004FF0010A4FF0000B01920394FFF736FF8D
:10365400039B019A00EB8300C2F341223302D0F8AA
:10366400001243EA8203184A43EA0B030A40134355
:1036740043EA4A03C0F80032043756E7C5F8644504
:10368400C7E7C5F86845C4E7C5F86C45C1E7C5F8A0
:1036940024454FF0010AB5E7C5F8284584E7C5F885
:1036A4003045F6E7C5F83445F3E7C5F83845F0E7A3
:1036B400C5F83C4578E7C5F80C459EE76FF0150062
:1036C40036E700BF0CAC0000F0F0FCFF2DE9F04140
:1036D40004460D46476804F0B5FD88B14FF0200854
:1036E400EFF31186314688F31288BFF36F8F606859
:1036F40004F046FB50BB86F31188BFF36F8FEFE7EE
:103704001F4B1B78002BE9D04FF02008642660681B
:1037140004F036FB70B9012004F086FB013EF6D1BB
:103724000021212002F072FEF0E786F31188BFF336
:103734006F8FF5E7EFF31186314688F31288BFF3F4
:103744006F8F606804F01CFB0028EED0FB6900203A
:103754001D706368FA691B68C3F844250122C3F825
:103764004825C3F82001D3F82041C3F85801D3F801
:1037740058019A6081F31188BFF36F8FBDE8F0811F
:103784001E0700202DE9F0410546002201210820F2
:10379400FEF74CF90820FEF72DF96C680121E0686A
:1037A40004F01FFB6B6819682369C1F82435A27DF6
:1037B400637D207D1343228B02431343C1F86C3590
:1037C4006F680022D7E9004313F001031BD0D5F83A
:1037D400108004F10C01C4F8A02104F59070C4F821
:1037E4008C2008F1080204F054FB061E06DA452179
:1037F400214804F0E9F83046BDE8F08198F8080063
:1038040000F0F8FA01230822C4F80025FA6901211E
:10381400C4F844250022C4F84825A1606BB9D4F843
:103824002031002BFBD0C4F82021D4F8203101230F
:10383400E3604FF48073C4F80433D4F85831002B98
:10384400FBD00021C4F800156D68E8682C6804F00A
:10385400C8FA0823C4F800352A7A52B92B6AC4F886
:1038640034350123C4F83835C4F81021D4F81021B4
:1038740023600026BFE700BFD89F000038B5114978
:1038840022F07F45D1E90030D41AE31840F100005A
:10389400C1E90030A5F50013B3F5400F09D20A4B76
:1038A4001B681A0A1B065819084B42F10001C3E9A8
:1038B400000103F08DFB01462046BDE8384003F0CB
:1038C400EFBA00BFF8020020A40600200003002085
:1038D4000D4B1868010A0006BFF35F8F0B4BD3F83A
:1038E4000435181841F10001B3F5801F0AD2084BC2
:1038F400D3E90023904271EB030303D210F18070EB
:1039040041F10001704700BFA4060020005001509F
:10391400000300202DE9F7432D4BD3F8042391072E
:103924000BD5D3F8042142B10022C3F80421294A5B
:10393400D3F80431136801331360254CD4F80433ED
:10394400DA033FD5244BD3E8EF2F22F00101C3E87B
:10395400E01F0028F7D1D30702D4D4F840318BB349
:103964000025C4F84051D4F84031FFF7B1FFEFF31C
:103974001182202383F31288BFF36F8F174BD3E98F
:103984000267B042B94120D3D3E900984FF0FF3029
:103994004FF0FF311D60C3E902014FF48033C4F8D6
:1039A4004833C4F84051D4F8403182F31188BFF34E
:1039B4006F8FB9F1000F05D032463B460020CDF899
:1039C4000080C84703B0BDE8F083A946EDE700BF17
:1039D40000500150A40600209C060020E8020020AC
:1039E4002DE9F84F06460F46434DD5E8EF8F28F0F2
:1039F4000103C5E8E23F002AF7D14FF480393F4C78
:103A0400C4F80893BFF35F8FBFF36F8FFFF760FFB6
:103A1400B04271EB070308F0010840D2384B301A6A
:103A240067EB0101984271F1000148D2354BD3E9AB
:103A340002239F4208BF96423AD04FF0000C26F072
:103A44007F40834603216FF0020EC4F84893C4F804
:103A540040C1D4F84031DFF8B0A02BF07F43C4F864
:103A64004035C4F84493D4F80425AEEB02035B4418
:103A740023F07F4353451BD9D4F840315BB1D4F8CC
:103A84000425131A23F07F43B3F5000F10D9C4F8AB
:103A940040C1D4F8403101EB020B0131DDE71B4B8F
:103AA400D3E8EF1F41F00101C3E8E21F002AF7D178
:103AB400144B174AC3E902671A6000225A60B8F12E
:103AC400000F16D0D5E8EF3F43F00103C5E8E23F0D
:103AD400002AF7D14FF48032084BC3F804230B4B70
:103AE400D3E8AF3FDB0742BF4FF40012094BC3F8E2
:103AF4000021BDE8F88F00BFA0060020005001504F
:103B040001008000E8020020FDFF7F009C060020E9
:103B14008138000000E100E070B54FF0FF3000256F
:103B24004FF0FF31164C174B0226C4F80833C4F883
:103B34004833154BC4F80855C3E902014FF48033E8
:103B44004FF40012C4F80433104B0121C4F8046389
:103B54001520C3F880212A46FDF768FF1520FDF7DC
:103B640049FF01230A4AA360002123600948136026
:103B7400FFF736FF3046FFF7B7F9284670BD00BFA0
:103B84000050015003000F00E802002000E100E0B3
:103B9400A0060020FFFF7F00431C10B50F4C05D08A
:103BA4008442A8BF0446012CB8BF0124FFF790FE4D
:103BB4000B4AD2E90031C01AB0F5000F074A0AD205
:103BC4002044904228BF1046BDE81040C01841F17F
:103BD4000001FFF705BF1046F6E700BFFFFF7F00B7
:103BE400F802002008B5FFF773FE024B1B68C01AE9
:103BF40008BD00BFF802002008B504F005F958B16B
:103C0400614BD3F8202A3AB90D21C3F8201A0121B7
:103C1400C3F81C19C3F81C290022D30003F57F0341
:103C2400D3F80013013107D0D3F800130132D3F8CD
:103C34000433202A0B60F0D104F0E6F8002840F0A9
:103C44009A8004F0E1F840B1504B514AC3F8302552
:103C54004FF050230122C3F858254FF47F03D3F8C3
:103C64003021D3F83431072A06D1023B012B9EBF01
:103C74000022484BC3F84C2504F0C6F850B14FF06D
:103C84005023D3F80024D10742BF0022C3F81421E3
:103C9400C3F818214FF47F03D3F83021D3F834311B
:103CA400072A09D14FF05023D3F80024D20744BF88
:103CB4006FF00102C3F8002404F0A6F818B16522DD
:103CC400314BC3F80C274FF47F03D3F83021D3F8DA
:103CD4003431072A16D12F4BD3F82034002B11DAB4
:103CE4004FF050230322C3F8182501229A60D3F819
:103CF4000421002AFBD00022C3F804210122DA6047
:103D0400C3F818254FF47F03D3F83021D3F83431A6
:103D1400072A20D1023B022B1DD97E221A4B1B49B4
:103D2400C3F80C27C3F83C297F231B4AC2F8183177
:103D34000023C1F8043EC1F8083E01F54821C1F84A
:103D44001031C2F82431C2F82C3102F5FF1202F509
:103D54008052C2F8A032114AD2F88C3043F4406346
:103D6400C2F88C300E4A0F4B1168C3F84415D2695F
:103D7400C3F84C2508BD2922034BC3F80C270322A2
:103D8400C3F83C275DE700BF00400050009003509B
:103D94004400EFBE002003500020005000ED00E07E
:103DA4000080FF0000600050014B1860704700BFA6
:103DB400A806002010B50B4B1446186858B90A49D8
:103DC4000A4840F2F3130A4A03F08AFD40F2F31161
:103DD400074803F07CFD04F029F80028A4BF2070F4
:103DE400002010BDA806002058A00000FE8A000094
:103DF40016A000000123024A8340C2F8043570472C
:103E040000700150014B00201B681847AC060020CD
:103E1400014B1B68184700BFAC060020014B09206A
:103E24001B681847AC060020014B08201B68184784
:103E3400AC06002010B5144C237913BB0123237165
:103E4400124B0028206018BF184600F0BDF8D0B906
:103E540023680F48002B08BF184600F097F990B963
:103E640023680C48002B08BF184600F003FA50B929
:103E740023680948002B08BF1846BDE8104000F02D
:103E840015B96FF0770010BDAC060020093E0000A4
:103E9400213E0000153E00002D3E000008B50C4BED
:103EA4001A794AB90B490C48B1230C4A03F018FD9E
:103EB400B1210A4803F00BFD1B6843B10520FDF74F
:103EC400A7FD20B9BDE808400520FDF793BD08BD56
:103ED400AC060020B0A00000FE8A00006EA0000026
:103EE40008B5174B1B795BB9164940F20513164AFE
:103EF400164803F0F5FC40F20511134803F0E7FC03
:103F0400032813D8DFE800F002060A0EBDE80840D3
:103F140000F0C2B9BDE8084000F068B8BDE8084048
:103F240000F046B9BDE8084000F0CEB808494FF4A7
:103F34009273054A054803F0D3FC4FF49271DCE711
:103F4400AC060020B0A000006EA00000FE8A0000B5
:103F5400FDA2000008B5174B1B795BB9164940F266
:103F64002B13164A164803F0BBFC40F22B111348DE
:103F740003F0ADFC032813D8DFE800F006020A0EB4
:103F8400BDE8084000F060B8BDE8084000F0DAB9C8
:103F9400BDE8084000F03CB9BDE8084000F0C4B8F2
:103FA40008494FF4A573054A054803F099FC4FF4FA
:103FB400A571DCE7AC060020B0A000006EA00000F4
:103FC400FE8A0000FDA20000074B0246187938B9AA
:103FD4001A6001221A714FF05023C3F81425704758
:103FE4006FF07700704700BFB406002008B512498F
:103FF4000B794BB9114912487723124A03F070FC2C
:104004007721104803F063FC4FF050230022C3F8DB
:104014000021D3F8002101221A60096811B1C3F804
:10402400042308BDD3F80021002AFBD00022C3F8E2
:104034000021D3F80031F4E7B4060020B0A000005A
:10404400FE8A0000CEA0000008B5084B1B794BB9CE
:10405400074908488923084A03F042FC8921064895
:1040640003F035FCBDE8084003F03DBFB406002072
:10407400B0A00000FE8A0000CEA000004FF0502344
:10408400D3F80423D2070DD5D3F8002152B100226E
:10409400C3F80021D3F800210122C3F80823024BFE
:1040A4001B681847704700BFB4060020054B024642
:1040B400187918B91A6001221A7170476FF07700E5
:1040C400704700BFBC06002008B5134A13794BB9EA
:1040D400124913486123134A03F002FC6121114879
:1040E40003F0F5FB4FF050230021C3F82011D3F85F
:1040F400201101219961126822B14FF48072C3F832
:10410400042308BDD3F82021002AFBD00022C3F8E1
:104114002021D3F82031F4E7BC060020B0A0000031
:10412400FE8A000016A1000008B5084B1B794BB9A4
:10413400074908487323084A03F0D2FB7321064851
:1041440003F0C5FBBDE8084003F0E9BEBC0600204F
:10415400B0A00000FE8A000016A100004FF050231A
:10416400D3F80423D2050ED5D3F820215AB1002266
:10417400C3F82021D3F820214FF48072C3F8082318
:10418400014B1B6818477047BC060020074B0246CA
:10419400187938B91A6001221A714FF05023C3F804
:1041A400802570476FF07700704700BFC406002079
:1041B40008B5134A13794BB9124913486723134AB4
:1041C40003F08EFB6721114803F081FB4FF050236D
:1041D4000021C3F82411D3F82411012119621268B3
:1041E40022B14FF40072C3F8042308BDD3F824218C
:1041F400002AFBD00022C3F82421D3F82431F4E7A9
:10420400C4060020B0A00000FE8A000063A10000E4
:1042140008B5084B1B794BB9074908487923084A64
:1042240003F05EFB7921064803F051FBBDE808402A
:1042340003F08FBEC4060020B0A00000FE8A000078
:1042440063A100004FF05023D3F8042392050ED548
:10425400D3F824215AB10022C3F82421D3F824210D
:104264004FF40072C3F80823014B1B6818477047CA
:10427400C4060020074B0246187938B91A60012297
:104284001A714FF05023C3F8182570476FF0770068
:10429400704700BFCC06002010B5264C23794BB9DB
:1042A40025492648E523264A03F01AFBE52124483C
:1042B40003F00DFB4FF05023D3F81814D3F818244F
:1042C400C9031BD502F00302022A02D0012A12D12B
:1042D40001224FF05023C3F818250022C3F804210B
:1042E400D3F8042101229A602268A2B9D3F80421E8
:1042F400002AFBD017E003F046FEE9E7D3F81424C4
:10430400D207E5D5D3F81C2402F00302013A012AAE
:10431400F1D822681AB10222C3F8042310BDD3F8DD
:104324000421002AFBD00022C3F80421D3F804316D
:10433400F4E700BFCC060020B0A00000FE8A000015
:10434400AFA1000008B5094B1B795BB908490948BE
:104354004FF49173084A03F0C3FA4FF4917106487D
:1043640003F0B5FABDE8084003F00DBECC0600200A
:10437400B0A00000FE8A0000AFA10000F8B54FF025
:10438400502301250026D3F804431E4F04F0820471
:1043940004B9F8BDB4FA84F0C0F11F00830003F53A
:1043A40080739BB203F1502305FA00F2196892B2AC
:1043B40024EA02040029EBD01E601B684FF050234E
:1043C400022AC3F8082311D1D3F81814D3F8181407
:1043D40001F00301012903D03B68C0B29847D7E735
:1043E400C3F81825C3F804239960D1E706490748A0
:1043F4004FF4F573064A03F073FA4FF4F571044869
:1044040003F065FACC060020FDA20000FE8A00003D
:10441400AFA10000034A4309D35C00F01F00184415
:10442400C0B2704715AC000010B504460846FFF74B
:10443400F1FF04EB4000838ADA051CD5C3F3432162
:1044440023F4F853838204F1120204F1720032F867
:10445400023F13F4807F03D0C3F3432399420AD06D
:104464009042F4D1002204EBC1035A6004F17800B5
:1044740003F0F6FC00B910BD054906484FF4DB73A0
:10448400054A03F02DFA4FF4DB71034803F01FFAD9
:10449400CA9A0000FE8A0000F7A1000008B502686D
:1044A4000146104603F088FD58B910494FF474735F
:1044B4000F4A104803F014FA4FF474710C4803F0D7
:1044C40006FA02F01F0352090B600BD0012A0BD02D
:1044D400094940F2D933064A064803F001FA40F28A
:1044E400D931EBE7054808BD0548FCE70F9B000000
:1044F400D79A0000FE8A0000FDA200000025845027
:1045040000288450072808B50BD90849084840F208
:10451400A733084A03F0E4F940F2A731054803F051
:10452400D6F9800000F5807008BD00BF74A20000B9
:10453400FE8A00003AA20000024611F0010010B504
:104544000BD18B07C1F340000DD50749086A5060B1
:104554000862003818BF012005E0044C236A136088
:104564002362002BEDD010BD002884500025845018
:10457400F7B504460846FFF74DFF04EB4006B38A3F
:104584000D46DB072AD5204603F008FE29462046BF
:1045940003F024FD50B1204603F04FFD00232768AB
:1045A40007EB8000C0F81035C0F810352046002411
:1045B4002946FFF739FFB48201A80195FFF76EFF82
:1045C400019B00EB8300D0F80022064B134043F01C
:1045D4000203C0F80032204603B0F0BD6FF01500AE
:1045E400FAE700BFF0F0FCFF2DE9F0430E46174652
:1045F400044685B058B95A495A4840F25E435A4A6B
:1046040003F06EF940F25E41574803F060F9084642
:10461400FFF700FFD7F800800546B8F1000F19D066
:10462400204603F0FFFC18BB4346CDE900008DF89B
:104634000E008DF80F000DF10F0230460DF10E0142
:1046440003F024FD04EB4502938A23F0020343F0B4
:10465400010393827B689BB33146204693F8008024
:10466400D3F8049003F0D3FC28B1B9F1000F1FD0A4
:104674006FF0150027E004EB4500838A23F46043C0
:1046840023F020038382B9F1000F11D0B8F1030F96
:10469400EED87B6821685B6893F800C04FEA8C030E
:1046A4001944B8F1000F11D1C1F81085C1F8108573
:1046B40004EB4502938A23F01C0343EA88039382A4
:1046C400BB6843BB002005B0BDE8F083D1F81025DA
:1046D40022F00302C1F8102522681344D3F81025F0
:1046E40022F44F3222F44072C3F810253202D3F878
:1046F400101502F47C5242EA08420A43C3F810251A
:1047040004EB4C03A3F87C60838A43EA4C3343F004
:1047140020038382CCE73146D3E900782046FFF7B3
:1047240083FE002FCED063689F4206D004F1780048
:1047340003F07CFB002804DAC5E7A3689845F5D1AB
:10474400002004EBC003C3E9017804EB4505AB8A00
:10475400C0B243EA402343F48073AB82B2E700BFA4
:104764007EA20000FE8A0000F7A100002DE9FF41AF
:104774000C4616461F46054658B93C493C484FF47A
:104784008D633C4A03F0ACF84FF48D61394803F073
:104794009EF80846FFF73EFE804616B3284603F00F
:1047A40036FC18B9284603F019FC08BB21462846F4
:1047B40003F01FFC10B17378012B19D001238DF87D
:1047C4000F300023721CCDE900632046B31C0DF1A9
:1047D4000F0103F05BFC05EB4802938A43F00303EB
:1047E4009382002F3FD02146284603F010FC20B9C5
:1047F4006FF0150004B0BDE8F08100223E782B680C
:1048040005EB480003EB8603C3F81025C3F8102515
:10481400838A4FEA860C23F4604323F020038382C7
:10482400797801B32A68BF786244D2F81035090454
:1048340023F4991323F4F853C2F81035230201F436
:10484400403103F47C530B433905D2F8105501F47D
:1048540080110B432B43C2F81035838A43EA463355
:1048640043F0200383820020C4E700BF7EA200003F
:10487400FE8A0000F7A1000008B558B907490848A6
:1048840040F27143074A03F02BF840F271410548A6
:1048940003F01DF8C0E9031208BD00BF7EA20000AA
:1048A400FE8A0000F7A1000070B51546044658B909
:1048B400134940F27A43134A134803F011F840F2C3
:1048C4007A41104803F003F84AB9104940F22333FF
:1048D4000C4A0D4803F004F840F22331F1E703F0E9
:1048E4007DFB48B10846FFF795FD04EB400400202A
:1048F400A38A5B0B2B7070BD6FF01500FBE700BF44
:104904007EA20000F7A10000FE8A000089A2000038
:10491400F8B5044658B9194919484FF49163194A2E
:1049240002F0DEFF4FF49161164802F0D0FF90F8D8
:104934008C5090F88D70F5B960222946143003F03C
:1049440035FD114B266853F83770AF420ED1002560
:1049540046F30730C6F87C51D6F87C31FDF74AF8A7
:104964000123284684F88C30A367F8BDE8B2FFF72A
:10497400C9FD0135E9E76FF07700F6E77EA2000094
:10498400FE8A0000F7A100008889000008B558B924
:104994000849094840F28F43084A02F0A1FF40F257
:1049A4008F41064802F093FF90F88C00003818BF3E
:1049B400012008BD7EA20000FE8A0000F7A10000CD
:1049C40008B558B90749084840F29D43074A02F020
:1049D40087FF40F29D41054802F079FFBDE8084099
:1049E400FFF7C6BD7EA20000FE8A0000F7A100000A
:1049F40008B558B90A490B4840F2A4430A4A02F0E0
:104A04006FFF40F2A441084802F061FF074B90F8A1
:104A14008D0003EB8000BDE8084003F021BA00BF1D
:104A24007EA20000FE8A0000F7A10000BC00002066
:104A340010B50C4658B90C490C4840F2AB430C4A2B
:104A440002F04EFF40F2AB41094802F040FF094B2F
:104A540090F88D0003EB800003F0E8F90028A4BF70
:104A64002070002010BD00BF7EA20000FE8A00005E
:104A7400F7A10000BC0000202DE9F3410D461646C5
:104A8400044658B938494FF4A563384A384802F007
:104A940027FF4FF4A561354802F019FF03F0A9FA86
:104AA40048B9344940F23543304A314802F018FFDE
:104AB40040F23541EFE7204603F090FA2768F8B159
:104AC400204603F0A4FA8046D0B9204603F0B5FA94
:104AD4000546FFF717FD47F800803B58236803EBB2
:104AE4008503D3F8102542F00102C3F8102526B13E
:104AF40001232268AB40C2F8043302B0BDE8F08160
:104B0400D7F80433002BA4BF4FF00043C7F8043395
:104B14004EB9194940F24F43144A154802F0E0FED9
:104B240040F24F41B7E72846FFF774FC04EB40041A
:104B3400A38AC3F38203042B11D0052B11D001A83F
:104B44000195FFF7ABFC019B0169D94001F001011C
:104B54000231284602B0BDE8F04103F0E4BA032173
:104B6400F7E70221F5E700BF7EA20000F7A10000ED
:104B7400FE8A000093A20000B4A2000008B558B950
:104B84000749084840F22F53074A02F0A9FE40F2B1
:104B94002F51054802F09BFEBDE8084003F0FEBA21
:104BA4007EA20000FE8A0000F7A100002DE9F04F6C
:104BB40007468DB058B97349734840F25C63734A31
:104BC40002F08EFE40F25C61704802F080FE804686
:104BD40058F804AB90F88D40DAF804136C4BC9B262
:104BE400504653F8342041F0004103F0ABFA051E5F
:104BF40039DA0023CDE90A33654BE60003EBC4043C
:104C040063680AA819460193FFF796FC331D0493C1
:104C14004FF0000B5F4B0DF128090393039A5C4995
:104C240012F8013B0392049A02EBD3028A5C03F06C
:104C3400070322FA03F3DB071BD40BF10103022B56
:104C44004FF0010B09F10409E8D14FF000410022B3
:104C5400504603F077FA01990AA8FFF76DFC002883
:104C6400D6D125F000450124002D74D10DB0BDE846
:104C7400F08F494B5B440593D9F800100029DCD030
:104C840091FAA1F1B1FA81F1059B1C7841EA44142F
:104C94002046FFF7BFFB07EB4000828AC808C2F337
:104CA4008203CDE906230293012319F8006001F081
:104CB400070103FA01F126EA010109F8001009A825
:104CC4000994FFF7EBFB0999069A803150F82160AB
:104CD40012F0100F079BC6F3014623D0214640462D
:104CE400029A03F0B4F909A80994FFF7D7FB099BCA
:104CF400F6B2803350F82330C3F301439E4207D108
:104D04000021204603F00FFA3146204603F00BFA47
:104D140009A80994FFF7C2FB0122099B02FA03F3D5
:104D24000362A9E7022E14BF022103212046069341
:104D340003F0F9F9069B032B03D0022E07D1012BB4
:104D4400E6D121464046029A03F081F9E0E7032EBA
:104D5400DED1022BF4E795FAA5F3B3FA83F304FA50
:104D640003F225EA020503F5A2725AF8222007EBA2
:104D740043034046B3F87C10C2F3014203F067F9E1
:104D840072E700BF7EA20000FE8A0000F7A10000C7
:104D94008889000025AC000025AC000038B54369C3
:104DA40005463BB90024EA686042537843F00103A6
:104DB400537038BD984704460028F3D000F1FF0330
:104DC400FE2B0ED92123094A09490A4802F088FD1D
:104DD40029680948224602F083FD2121034802F094
:104DE40076FDEB6844421C70DDE700BFBFA2000003
:104DF400E7A20000FE8A0000FFA2000010B50446EE
:104E04004521034802F0E0FD204603F0F8F900BF15
:104E140024A30000F7B504460D46EFF311872023C1
:104E240083F31288BFF36F8F204A0428966898BFD3
:104E34001F4B127C94BF53F820301E4B0092452127
:104E440002461D4802F0C0FD3DB1EB69C3F30803FF
:104E54001BB14521194802F0B7FD36B1304603F0C5
:104E6400F7F9034608B1027802B9154B45211548F4
:104E7400324602F0A9FD29462046FFF7BFFF4DB197
:104E8400EB69C3F308032BB187F31188BFF36F8F6A
:104E940003B0F0BD012CF7D087F31188BFF36F8FF7
:104EA400304603B0BDE8F040FCF770BED4060020E5
:104EB4009889000038A300004EA300007BA30000E3
:104EC40046A30000A1A3000038B50A4B53F82040C4
:104ED400013053F82050A54200D838BD606830B185
:104EE400037EDB0701D4FFF759FF0834F3E7236897
:104EF4009847FAE7AC890000012270B53C4B86B0B4
:104F040003201A70FFF7E0FFFDF738FA03F028FAE0
:104F1400384C394DAC4214D10420FFF7D5FF374C3F
:104F2400374DAC4226462ED936494423364A3748B3
:104F340002F0D6FC364802F0D3FC4421324802F099
:104F4400C6FC54F8043B002BE6D09847E2E754F83B
:104F54000C3C059354F8103C049354F8143C03930C
:104F640054F8183C029354F81C3C019354F8203C28
:104F7400009354E90A2354E90C0100F0F7FB54F8B8
:104F8400303C5E65CDE7AE4204F13004DFD301F07E
:104F940039F81A4CAC421FD91A4968231A4A1B48DB
:104FA40002F09EFC1A4802F09BFC6821C6E7D4E993
:104FB4000A23B3F1FF3F08BFB2F1FF3F05D052EA25
:104FC4000301206803D101F053FA3034E2E71149B8
:104FD400183001F01DFEF8E7E9D301F085F8FDF77C
:104FE40013FD0D4A938923F00103938106B070BD2C
:104FF4001E0700200888000008880000848700003D
:10500400848700002EA4000008A40000FE8A00008B
:105014005BA40000B95C0000B0030020A82370B5B5
:10502400144E86B003FB0066134B012205930F2335
:10503400CDE903320023CDE9013314234FF4A072E8
:105044000E4D0F4903FB0055044602FB00110D4BA6
:105054003046009500F08AFB337C2C7423F0040363
:105064003374094B013403EBC423EE606B6006B068
:1050740070BD00BF080300207AA40000D4060020FD
:10508400203F0020A5510000203700207FB50020DC
:10509400FFF71AFF344B03F5006282F3088883F3A9
:1050A4000A88E023314C84F822300023E377237606
:1050B4006376A37684F82030626A42F4E022626266
:1050C40084F82330FCF74EFCFCF74AFD4FF0FF3325
:1050D400A362E362FCF772FFFCF7C6FD244800F00C
:1050E40001FC244B244A93420ED92449CC23244A5C
:1050F400244802F0F5FB244802F0F2FBCC212048BE
:1051040002F0E5FB1C33EEE7FCD3FDF707F90120C1
:10511400FFF7DAFE02201D4CFFF7D6FE01F056F829
:105124001B4B00255C611B4B0122059309231A4983
:10513400CDE9033220464FF40062184BCDE9015506
:10514400009500F013FB0646237C204623F004035D
:10515400237400F069FD2846FFF760FF31462046BE
:105164000E4AFCF7DBFC00BF2037002000ED00E016
:1051740058040020EC8400005C8500007FA400003B
:1051840008A40000FE8A00005BA40000B003002015
:10519400D406002097A4000060400020FD4E0000CB
:1051A40008B50D4B9B6893F90E30002B09DB2024C6
:1051B400EFF3118384F31288BFF36F8F02F087FC3F
:1051C400F6E7064906481C23064A02F089FB1C211F
:1051D400044802F07CFB00BFD4060020C2A40000F7
:1051E400FE8A00009CA400002DE9F3410446174602
:1051F4001E46EFF3058565B154497323544A554857
:1052040002F06EFB544802F06BFB7321504802F02D
:105214005EFBEFF31188202383F31288BFF36F8FB3
:105224004E4801F09BFC60B984234D4A4D494948DE
:1052340002F056FB49494C4802F052FB842148488D
:10524400E5E7464801F0AEFC484BE2689B6892B142
:10525400A068984227D057EA06022CD13F4801F0B3
:105264008BFC90B188F31188BFF36F8F6FF00F0040
:1052740002B0BDE8F08193F90E100132C4E90232A4
:105284003648216101F078FC78B94FF49973344AB7
:105294003749304802F024FB3049364802F020FBFD
:1052A4004FF49971CBE72169E7E788F31188BFF3DD
:1052B4006F8F0020DCE793F90E1090F90E309942BD
:1052C40005DA9942A8BF194602F0A1FF0546224615
:1052D4004146CDE90076214800F034FD0028E8D0AD
:1052E400EFF31186202383F31288BFF36F8F1B48DB
:1052F40001F034FC002897D0184801F053FCA06852
:10530400C0B1236821699C420AD04BB193F90E3095
:105314009942A8BF19466FF07F039942B8BF194656
:1053240002F075FF30B131460C4802F0D5FF6FF042
:105334000A009DE7002DF6D1084801F01DFC002865
:10534400A3D086F31188BFF36F8FF0E711A5000097
:10535400EAA40000FE8A000023A50000F406002051
:105364008B8D0000BD8D0000D28D0000D40600207E
:10537400E88D0000FF8D0000F8B50546EFF30583C6
:1053840063B15649EA23564A564802F0A9FA5648E8
:1053940002F0A6FAEA21524802F099FA8368002B37
:1053A40000F09580514A9268934240F09380C3681C
:1053B4004BB94F494FF48173494A4A4802F090FA75
:1053C4004FF48171E7E7012B03D0013BC360002058
:1053D400F8BDEFF31187202484F31288BFF36F8F95
:1053E400444801F0BBFB60B98423434A43493D4828
:1053F40002F076FA3F49424802F072FA84213E48AC
:10540400CAE73C4801F0CEFB2969A86802F0FFFE18
:10541400EFF3118384F31288BFF36F8F83F3118842
:10542400BFF36F8F5BB93749BB23374A2D4802F06E
:1054340057FA364802F054FABB213348ACE72C68DB
:10544400AC4215D100232B48C5E9023301F094FB8B
:10545400002837D14FF49973274A2D49214802F087
:105464003FFA24492B4802F03BFA4FF49971C6E7FE
:10547400002CE7D0A3683BB92749A423224A194842
:1054840002F02EFAA421D8E70026D4E900321360F2
:105494005A60237CC4E9006623F002032374A660E7
:1054A40004F1180001F090FCAC6094F90E30204631
:1054B4002B61C4F8A06000F0B7FB39460D4802F038
:1054C4000BFF84E787F31188BFF36F8F7FE76FF0DB
:1054D40015007DE74FF0FF307AE700BF11A500000B
:1054E400EAA40000FE8A000023A50000D4060020E0
:1054F40048A50000F40600208B8D0000BD8D00003F
:10550400D28D00008FA500005FA50000A7A50000B4
:10551400E88D0000FF8D0000AAA5000008B583688F
:105524004BB90B490B48A4230B4A02F0D9F9A42127
:10553400094802F0CCF9D0E9003213605A60002324
:10554400027CC0E9003322F002020274836008BDC9
:10555400AAA50000FE8A00005FA5000070B50446FD
:10556400EFF31186202585F31288BFF36F8F30483F
:1055740001F0F4FA60B984232E4A2F492F4802F02F
:10558400AFF92B492E4802F0ABF98421294818E0E1
:10559400274801F007FBEFF3118385F31288BFF36B
:1055A4006F8F83F31188BFF36F8F63B92549BB23D2
:1055B400254A224802F094F9244802F091F9BB21CB
:1055C400214802F084F92568AC4213D095B12846ED
:1055D400FFF7A4FF05F1180001F0F6FB00232846AD
:1055E400C5F8A03000F020FB3146BDE870401048FB
:1055F40002F072BED4E902329A4218BF01330C4859
:10560400A36001F0B9FA68B94FF49973094A1049D3
:105614000A4802F065F906490E4802F061F94FF4B0
:105624009971B3E786F31188BFF36F8F70BD00BF24
:10563400F80600208B8D0000BD8D0000FE8A00005E
:10564400D28D00008FA500005FA50000A7A5000073
:10565400E88D0000FF8D0000F7B5044616461D4690
:10566400EFF305837BB152EA05030CD02D4988235F
:105674002D4A2E4802F034F92D4802F031F98821E0
:10568400294802F024F9EFF31187202383F31288C9
:10569400BFF36F8F274801F061FA60B98423264A6B
:1056A4002649224802F01CF92249254802F018F93B
:1056B40084212148E5E71F4801F074FAA368D3B1B7
:1056C400013B1C48A36001F057FA68B94FF4997381
:1056D400194A1C49154802F003F916491A4802F000
:1056E400FFF84FF49971E4E787F31188BFF36F8FE4
:1056F400002003B0F0BD56EA05030BD10D4801F0BC
:105704003BFA0028E2D087F31188BFF36F8F6FF064
:105714000F00EEE722463946CDE90065054800F062
:1057240011FBE6E7E6A50000C1A50000FE8A000023
:10573400A7A50000F80600208B8D0000BD8D000099
:10574400D28D0000E88D0000FF8D000010B50446E6
:1057540008B9054B9C681F2204F1680002F02EFE74
:10576400002084F8870010BDD40600202DE9FF47EF
:105774000F9D04460F2D0F469946DDF8448045D110
:105784002F4B994546D104F15803C4E91633109BB5
:105794000026A38104230732A57322F0070507EB33
:1057A400050A514623742046C4E90666A660E673DA
:1057B400FBF766FE0E9B073020F00700C4F890004C
:1057C400C4E9227502930D9BAAEB000A01930C9B7A
:1057D4005246009339464B462046FCF783F96665EA
:1057E400B8F1000F29D01F22414604F1680002F0ED
:1057F400E5FD84F88760134B9B680BB1D3F89430B4
:105804005046C4F8943004B0BDE8F08705F11003A5
:105814001E2BB8D940F24B230B4A0C490C4802F01A
:105824005FF829460B486FF00F030E2202F058F878
:1058340040F24B21044802F04AF884F86880DAE721
:10584400A5510000D406002033A600005BA600008A
:10585400FE8A0000DBA60000F0B587B00446DDE94F
:105864001276EFF3058575B1194940F21733194AD9
:10587400194802F035F8194802F032F840F21731AD
:10588400144802F024F80595109D04950F9D039586
:105894000E9D02950D9D01950C9D0095FFF766FFE9
:1058A400B6F1FF3F08BFB7F1FF3F05D056EA070343
:1058B40005D1204600F0DCFD204607B0F0BD3A4695
:1058C400334604F11800064901F0A2F9F4E700BFD9
:1058D40011A5000033A60000FE8A00000CA70000FA
:1058E400B95C00000123037483810023C0E92233DF
:1058F400C0F89430014B9860704700BFD406002074
:1059040070B590F91020037C002A49DBD90647D1F1
:1059140063F07F030374264B984209D12549264836
:105924005223264A01F0DCFF5221244801F0CFFF24
:10593400234C224652F8183FE169934207D1C0E94B
:1059440000210860E0610FE08B42F8D01B68002B57
:10595400F5D093F90E6090F90E50AE42F4DD59681B
:10596400C0E9003108605860A569954200D005B9C6
:10597400E568A3685BB91349EA23134A0E4801F0AA
:10598400AFFF124801F0ACFFEA210F48CEE71A7CC2
:10599400D20606D1DA897F2A03D9AA690AB96361D2
:1059A40070BDAB4202D0284601F052F86561F7E7BA
:1059B4000803002058A70000FE8A000031A7000059
:1059C400D4060020AAA7000079A70000A7A500001C
:1059D40038B590F910200146002A037C1BDA224ACC
:1059E40003F07F039042037409D120495A23204ACB
:1059F400204801F075FF5A211D4801F068FFDC07BB
:105A040007D51D495B231A4A1A4801F069FF5B2137
:105A1400F2E702F01FFC194D2A4652F8184FAB6802
:105A2400944200D004B9EC688B4214D05BB9144999
:105A3400EA23144A0F4801F053FF134801F050FFC2
:105A4400EA211048D9E71A7CD20604D1DA897F2AE0
:105A540001D9A2692AB1A34202D0204600F0F8FF7E
:105A640023466B6138BD00BF0803002058A700001F
:105A740031A70000FE8A0000D1A70000D406002050
:105A8400AAA7000079A70000A7A5000008B5144A3A
:105A9400936880B1197C11F0090F0CD11149D923F5
:105AA400114A124801F01CFF114801F019FFD921D5
:105AB4000D4801F00CFF6FF00A01C3F8A0100D4966
:105AC400C3F89C004B6843F080534B60002383F37E
:105AD4001188BFF36F8F9368D3F8A00008BD00BF8F
