:10000000A04800202D200000D98100001920000008
:1000100019200000192000001920000019200000FC
:10002000000000000000000000000000652000004B
:1000300019200000000000004D22000019200000DF
:10004000CD220000CD220000CD220000CD220000F4
:10005000CD220000CD220000CD220000CD220000E4
:10006000CD220000CD220000CD220000CD220000D4
:10007000CD220000CD220000CD220000CD220000C4
:10008000CD220000CD220000CD220000CD220000B4
:10009000CD220000CD220000CD220000CD220000A4
:1000A000CD220000CD220000CD220000CD22000094
:1000B000CD220000CD220000CD220000CD22000084
:1000C000CD220000CD220000CD220000CD22000074
:1000D000CD220000CD220000CD220000CD22000064
:1000E000CD220000CD220000CD220000CD22000054
:1000F000CD220000CD220000CD220000CD22000044
:10010000CD220000CD220000CD220000CD22000033
:10011000CD220000CD220000CD220000CD22000023
:10012000CD220000CD220000CD220000CD22000013
:10013000CD220000CD220000CD220000CD22000003
:10014000CD220000CD220000CD220000CD220000F3
:04015000CD220000BC
:1001540053B94AB9002908BF00281CBF4FF0FF312A
:100164004FF0FF3000F00CB8ADF1080C6DE904CE8F
:1001740000F01AF8DDF804E0DDE9022304B070476A
:10018400704700BF10F8012B11F8013B012A28BF6A
:100194009A42F7D0D01A7047034613F8012B002A6D
:1001A400FBD1181A013870472DE9F0478C468E466A
:1001B400089E154604461946002B40F0D08072452F
:1001C40047D9B2FA82F74FB1C7F120030EFA07FC00
:1001D400BD40BC4020FA03F343EA0C0C4FEA154E31
:1001E400A8B2230CBCFBFEF80EFB18CC08FB00F9EC
:1001F40043EA0C43994528D9EB1808F1FF3204D29D
:10020400994502D9A8F102022B44A3EB0903A4B235
:10021400B3FBFEFC0EFB1C330CFB00F044EA03446E
:10022400A04214D92C190CF1FF3304D2A04202D9F4
:10023400ACF102032C44241A43EA02401EB1FC40F0
:10024400002334607360BDE8F0874246DDE763460F
:10025400F1E7002A79D0B2FA82F3002B3FD0194695
:10026400C1F1200302FA01F500FA01F42EFA03F2B7
:100274000EFA01FE20FA03F3AFB243EA0E034FEA8B
:10028400154EB2FBFEFC0EFB1C201A0C0CFB07F8EF
:1002940042EA004290455AD9AA180CF1FF3004D220
:1002A400904502D9ACF102002A44A2EB08029BB2A9
:1002B400B2FBFEFC0EFB1C220CFB07F743EA0243D5
:1002C4009F4246D9EB180CF1FF3204D29F4202D967
:1002D400ACF102022B44DB1B42EA004202E0AEEB2B
:1002E400020301224FEA154EAFB2200CB3FBFEFC11
:1002F4000EFB1C330CFB07F840EA034398452AD94C
:10030400EB180CF1FF3004D2984502D9ACF102008D
:100314002B44A3EB0803A4B2B3FBFEFC0EFB1C337B
:100324000CFB07F744EA0344A74216D92C190CF135
:10033400FF3304D2A74202D9ACF102032C44E41BDC
:1003440043EA00400F46114678E71F2188E76046DC
:10035400ABE76246BFE76046DBE76346EFE773451A
:1003640006D916B9002108466DE7C6E9000EF9E77B
:10037400B3FA83F787B9734501D3824207D8841A45
:100384006EEB030301209C461EB900215BE738464F
:10039400FAE7C6E9004CF8E7C7F1200CBB4000FAC5
:1003A40007F422FA0CF520FA0CF1BA401D432EFA98
:1003B4000CF30EFA07FE4FEA154941EA0E011FFA43
:1003C40085FEB3FBF9F809FB18300B0C08FB0EFA99
:1003D40043EA00439A4540D9EB1808F1FF3004D2B0
:1003E4009A4502D9A8F102002B44A3EB0A0389B26F
:1003F400B3FBF9F809FB183308FB0EFE41EA03418D
:100404008E452CD9691808F1FF3304D28E4502D9E0
:10041400A8F10203294443EA0040A1EB0E01A0FB2A
:1004240002984145CE46434602D306D14C4504D2F8
:100434000138B9EB020E68EB0503002EA5D0B4EB2E
:100444000E0261EB030101FA0CFC22FA07F3F940F6
:100454004CEA0303C6E9003197E74046C5E7434643
:10046400D9E700007FB50E461D460446A0B90AAB85
:100474000B48039307F07AFF2A460146089B094874
:10048400009607F0C8FD0399099800F013FD06488B
:1004940007F0C1FD02F0C8FB204604B070BD00BFE8
:1004A4002C910000689100002BB100002DE9F04F61
:1004B400002542F2107200234FF416742F4693B0B5
:1004C400CDE90E234A4E0CA801F0ACFADDE90CA9E3
:1004D4000EA807F06AFE0CA801F0A4FADDE90CC02E
:1004E4000E99BCEB0A0360EB09025B1A0F9983EACD
:1004F400E37E62EB0102AEEBE37ECDE904324FEA28
:10050400EE71A6453B4BB941CDE90AC0CDE906479A
:1005140034BF01200020CDE90063374A3923029516
:10052400CDE908A93549FFF79DFFDDE90E32DB1857
:1005340052410135643447F10007052DCDE90E32EF
:10054400C1D144212E4807F0F0FD4FF47A72002304
:100554000025CDE91023DFF8AC804FF47A7A0CA89B
:1005640001F060FADDE90C9710A90CA807F020FE51
:100574000CA801F057FADDE90CE1109ABEEB09036F
:10058400A2FB0A2061EB0704CDE90AE19B1A4FF4B0
:10059400FA714FF00002DDF844C0CDE906120AFBFF
:1005A4000C0064EB000483EAE370A0EBE370B0F5A5
:1005B400FA7FACBF00200120CDE90434CDE90185E8
:1005C40057230D4ACDE908970F490096FFF74AFFD4
:1005D400DDE910320135DB185241052DCDE9103229
:1005E400BBD14421094807F0A0FD13B0BDE8F08F4A
:1005F40046920000C99100002C91000090910000E7
:1006040055920000A59200006E9200001E93000017
:100614002DE9F041C0B00A21634A12A801F062F842
:10062400624A0A2129A801F05DF80023CDE90E33BE
:100634005F4B0EA911935F4B12A8109301F0BAF807
:10064400C6B2C0F307250EA807F09FFB5A4C4EB95B
:100654005A4B3046CDE90043594AA82359490295DB
:10066400FFF700FF0023CDE90E33574B0EA911937A
:10067400564B29A8109301F09DF8C6B2ADF834008A
:10068400C0F307250EA807F080FB4EB9504B304647
:10069400CDE900434A4AAC234A490295FFF7E2FEFA
:1006A400082007F079FD07F070FD4421024649480F
:1006B40007F03BFD4FF4FA6200234421464807F05B
:1006C40034FD46490AA807F073FD4421444807F065
:1006D4002CFD0122434B444E444D1A70D6E90023AD
:1006E400D5E90001904271EB030357D2D6E900012A
:1006F400D5E90023B0EB020861EB03073C48442131
:1007040007F013FD12A801F019F9ADF83400C0B2D6
:1007140050B99DF835302A4A0293364B2949CDE920
:100724000043C823FFF79EFE29A801F007F9ADF89E
:100734003400C0B250B99DF83530214A02932E4B93
:100744002049CDE90043CC23FFF78CFED6E90023F2
:10075400D5E90001CDE9062347F2305547F230527E
:100764000023A845CDE90423244B77F10005CDE906
:100774000801134A34BF012000202149CDE9004378
:10078400CDE90287CE23FFF76DFE29A800F0E2FF32
:1007940012A800F0DFFF40B0BDE8F081D5E9000108
:1007A400D6E90023A6E700BF379300003F9300007B
:1007B400E5080000557D00006F930000569300008B
:1007C4002C91000047930000D5080000437D0000F1
:1007D4008B930000A4930000C4930000C88F000012
:1007E400EC9300004C070020E8000020E00000200B
:1007F4000B940000249400003C9400006D940000CD
:100804005494000030B5A1B009211F4A09A800F092
:1008140069FF002306931D4B05A905931C4B09A8EA
:1008240008931C4B079300F0C5FFC5B2C0F307241F
:1008340005A807F0AAFA55B9174B28460193174B98
:10084400174A009317497B230294FFF70BFE4421B8
:10085400154807F06AFC09A801F070F8ADF810001B
:10086400C0B258B99DF811300D4A02930A4B0D4994
:1008740001930A4B00938223FFF7F4FD09A800F0CB
:1008840069FF21B030BD00BFEE940000B104000048
:10089400877D0000677D0000C0940000D8940000AC
:1008A4002C91000047930000FF94000030B40B78B3
:1008B40023B130BC4421054807F037BCD0E90023FC
:1008C400541C43F10005C0E90045F0E72D950000F4
:1008D40001490248FFF7EABF4C070020E00000206E
:1008E40001490248FFF7E2BF4C070020E80000205E
:1008F4002DE9F04104460D4607F095FA804600289C
:100904004AD12946204607F05FFA0146204607F0FF
:10091400A2FA04EB80010E6996B90122E3688240D1
:100924001343E36002220D612B462946204607F05B
:1009340040FA032229462046BDE8F04107F039BABF
:1009440002223146204607F029FA032201460746CF
:10095400204607F023FA86420AD045210F4807F0C3
:10096400E4FB88F31188BFF36F8F0423184602DF7A
:100974003B4602222946204607F01BFA032233464F
:100984002946204607F015FA39462B46204607F03B
:1009940010FA02223146CEE7BDE8F08171950000DD
:1009A4002DE9F041174603220E46044607F0F6F9F6
:1009B4008642054607F104080AD10122E368BA40D9
:1009C40023EA0203E360002344F82830BDE8F08101
:1009D40002223146204607F0E1F903220146074688
:1009E400204607F0DBF9864206D10222294620463A
:1009F40007F0D4F986420BD045210D4807F095FB4A
:100A0400002383F31188BFF36F8F0423184602DF9A
:100A14002B4639462046032244F8285007F0C9F9EA
:100A24003B4629462046BDE8F041022207F0C1B901
:100A34007195000038B5012205460C4607F0AEF961
:100A4400C30713D42146284607F0E7F90146284690
:100A540007F0DCF9844209D12146284607F0D6F98B
:100A64000146284607F0D9F984420BD045210648AF
:100A740007F05BFB002383F31188BFF36F8F04231C
:100A8400184602DF38BD00BF9A950000F8B50E463F
:100A9400002900F0848004680122204607F0D1F97F
:100AA40001460546204607F079F910EA02070BD102
:100AB400324645213A4807F038FB87F31188BFF3E3
:100AC4006F8F0423184602DF2946204607F0A5F954
:100AD4000146204607F09AF9A8420CD03246452137
:100AE400304807F022FB002383F31188BFF36F8F94
:100AF4000423184602DF2946204607F087F90146F9
:100B0400204607F08AF9A8420CD0324645212648EF
:100B140007F00BFB002383F31188BFF36F8F0423CB
:100B2400184602DF00222946204607F053F92946D9
:100B340007F073F9012201460646204607F02EF914
:100B4400C2070CD431462046FFF774FF31462046D5
:100B540007F0D0F932462946204607F086F929469F
:100B6400204607F053F9012201460646204607F0C5
:100B740015F9C3070DD431462046FFF75BFF314614
:100B8400204607F0B7F92A463146204607F06DF9AA
:100B9400354629462046BDE8F840FFF7A9BEF8BD12
:100BA40047960000ED9500001B9600002DE9F047E4
:100BB4004B42066803EA010731EA03031446B268AC
:100BC4001DD0B2F5004F2CBF08230423BB4228BF1D
:100BD4003B46B946CF1B07F1FF3A1AEA070F1DD06F
:100BE4003C4940F2E9133C4A3C4807F02AFA3C48A5
:100BF40007F027FA40F2E911374807F019FAB2F57D
:100C0400004F34BF04230823994204D82146BDE889
:100C1400F04707F0C3B94FF00009DCE71CB9002521
:100C24002846BDE8F087B2F5004F34BF04250825F7
:100C3400FB1AE10804F0070001EBD301073003F0CD
:100C4400070303442B4401EBD301914228BF11460F
:100C5400304607F065F980460028E0D0B36809EB18
:100C6400C005B3F5004F34BF042308231D443544A5
:100C74005544B5FBF7F57D43A5EB090529463046F8
:100C840007F0DFF82C44073424F00704A41B804544
:100C940007464FEAE40408D202464146304607F0CC
:100CA40002F941463046FFF723FE3946304607F045
:100CB400B4F8A04208D939463046224607F0F3F882
:100CC40021463046FFF714FE01223946304607F02C
:100CD40081F8A5E79996000071960000B49600008B
:100CE400D1960000B2F5802FF8B510D2042A28D886
:100CF4003F4940F2E3233F4A3F4807F0A2F93F4807
:100D040007F09FF940F2E3213A4807F091F90823EC
:100D1400D21ACC1D114424F0070421F00701091B49
:100D240017294FEAD1060ED835494FF43B73314A9F
:100D3400314807F086F9314807F083F94FF43B71E5
:100D4400E2E70423E4E70023046031462046A6607A
:100D5400E36007F080F8820002F11B05B6F5004F4E
:100D64004FEAD5050FD26B1C9E420CD2254940F2A6
:100D74000233204A204807F064F9204807F061F95B
:100D840040F20231C0E70021043204F1100007F000
:100D9400A1FE2A462046002107F034F8002320460D
:100DA4001A46194607F005F8771B19462046012212
:100DB40007F010F83A46294607F024F82B4600229B
:100DC4002946204606F0F5FF3146204607F01AF87A
:100DD4003B4631462046002206F0EBFF31462046D2
:100DE400012206F0F7FF2946BDE8F840FFF780BD71
:100DF400EE96000071960000B49600000F97000074
:100E0400289700005197000010B5EFF311842023B8
:100E140083F31288BFF36F8F184806F031FA68B96C
:100E24008423174A1749184807F00BF91349174840
:100E340007F007F98421124807F0FAF80F4806F082
:100E440043FA10220021124807F044FE0B4806F032
:100E540025FA68B94FF49973094A0E490A4807F00C
:100E6400F0F806490C4807F0ECF84FF49971E2E702
:100E740084F31188BFF36F8F10BD00BF7805002085
:100E840095970000C7970000B4960000DC97000017
:100E9400F0000020F297000009980000014B1B6845
:100EA400184700BF00000020014B1860704700BFC6
:100EB4000000002030B5044685B00D461022002104
:100EC400684607F007FE02238DF80230044B2A46D9
:100ED40021466846019306F0EFFC05B030BD00BF23
:100EE400A10E000080B505460E461746984605F04B
:100EF400A9FE034601F0FAF9DFF83C90044649F8EC
:100F04000030424639463046A8470C4B1B7873B92B
:100F14000B4940F246330B4A0B4807F092F80B4852
:100F240007F08FF840F24631064807F081F854F88C
:100F3400090001F073F900BF080000005707002002
:100F44004E9800001E980000B496000061980000BE
:100F54002DE9F84F0546AB8B08461907904616D580
:100F640001280CBF43F0100343F02003AB83143576
:100F7400284606F093F9002840F0B181AE494FF4B9
:100F84009973AE4AAE4807F05CF829469DE0022802
:100F940003F0070140F07D81284607F05FF805283B
:100FA40000F2FA8001A353F820F000BF730F000091
:100FB400971200009D11000041100000DB1000009A
:100FC4003B11000002F00702531F012B1AD8002323
:100FD400062A2E68A4B2C5E9003309D1334603E0DA
:100FE400EA8B0132EA831B68002BF9D144F0020436
:100FF4002846AC8307F032F8002800F05A8144F008
:10100400200455E1042A0DD1A4B22846AC8307F08C
:1010140025F80646002800F04C8144F02004002600
:10102400AC8346E1874940F21B13874A844807F0A2
:1010340008F840F21B11844806F0FAFF49B18349CD
:101044004FF4AB73804A7E4806F0FBFF4FF4AB715C
:10105400F1E72B684BB97E4940F257137A4A784836
:1010640006F0EFFF40F25711E5E72B691F684FB90F
:1010740078494FF4AD73744A714806F0E2FF4FF4B7
:10108400AD71D8E70E468A464FF00609AC8B24F0C2
:10109400070444F00604A4B2AC83AB68002B00F050
:1010A4000F814FF0010B44F00804AC8305F11404E4
:1010B400204606F0F3F8002878D15F494FF499737D
:1010C4005E4A5F4806F0BDFF2146634806F0B9FF5B
:1010D4004FF499718EE0022909D0604940F25D1302
:1010E400594A574806F0ADFF40F25D11A3E7EE8B75
:1010F4004EB15B494FF4AF73534A514806F0A1FF18
:101104004FF4AF7197E72B695F684FB9514940F2CB
:1011140061134D4A4A4806F094FF40F261118AE790
:10112400AC8BB24624F0070444F00404A4B24FF09C
:101134000409AC83B1E7012909D04A494FF4B273D9
:10114400414A3F4806F07DFF4FF4B27173E72B68C4
:101154004BB93F4940F265133B4A394806F071FFE9
:1011640040F2651167E72B699F684FB939494FF41D
:10117400B473354A324806F064FF4FF4B4715AE749
:101184000026AC8BB24624F0070444F00504A4B254
:101194004FF00509AC8380E72A4940F26B132A4AD1
:1011A400274806F04EFF40F26B1144E788F311889C
:1011B400BFF36F8FBBF1000F1ED1002E33D117B1D7
:1011C40028462949B847EFF31188202383F312886E
:1011D400BFF36F8F204606F053F800284AD18423CA
:1011E400164A2249164806F02CFF2146204806F0EC
:1011F40028FF842111481FE7A9680029DDD0D1F810
:1012040000800029D9D053464A462846D1F804B074
:10121400D847B8F1000F04D0D8F8003041469846BA
:10122400EFE74346FAE7314653464A4628463668CE
:1012340006F040FFC1E700BFF29700009597000059
:10124400B496000085AE00008E980000B8980000A7
:10125400C4980000E798000009980000FE98000078
:101264001499000023990000F1120000C7970000B0
:10127400DC970000204606F027F8AC8B24F0080425
:10128400A4B2AC83E20621D524F01003AB8304F0AE
:101294000701D5F818A0AA8BBAF1000F22F00704B1
:1012A400BFF690AE00232E68C5E9003344F0010474
:1012B400AC8304F0070989454FF000077FF4EDAED5
:1012C4000EB9002FDED04FF0000BECE6A3067FF53D
:1012D4004EAE24F02003AB8304F007015CE688F3F0
:1012E4001188BFF36F8FBDE8F88F00BFF8B50446CF
:1012F4000D4600F11406EFF31187202383F31288BF
:10130400BFF36F8F304605F0BBFF68B984230C4AE6
:101314000C490D4806F095FE31460C4806F091FE46
:101324008421074806F084FE304605F0CDFFA56110
:101334003A462046BDE8F8400121FFF709BE00BF48
:1013440095970000C7970000B4960000DC97000052
:101354002DE9F04704460E4606F09CFE051E66DBAA
:1013640004F11409EFF3118A202383F31288BFF3E5
:101374006F8F484605F084FF804660B98423374A5E
:101384003749384806F05DFE4946374806F059FEAD
:101394008421324843E0484605F096FF4FF6FF7239
:1013A400E38BA78B934207F0070743D0062F2CD873
:1013B400DFE807F01F43092B1F041F006FF08505AA
:1013C4004FF0000802E002250133E383484605F0AC
:1013D40065FF002834D14FF49973204A23492148EA
:1013E40006F02FFE4946224806F02BFE4FF4997171
:1013F400CFE700233360636823B9C4E9006687B18B
:101404003D46DDE71E606660F9E71A4915484FF46A
:10141400E473194A06F015FE4FF4E471164806F019
:1014240007FE524602212046FFF792FD3D4628461C
:10143400BDE8F0876FF00A05C2E76FF00405BFE767
:101444008AF31188BFF36F8FB8F1000FEFD0002338
:101454003A463146204606F02DFEE8E7959700000F
:10146400C7970000B4960000DC970000F2970000D4
:1014740009980000239900008E98000008B542687E
:10148400034602F00302032A81600AD06AB90849BC
:1014940008484523084A06F0D4FD4521064806F0CD
:1014A400C7FD006800225A6008BD0020FAE700BFAB
:1014B40085AE0000B496000039990000014B03602A
:1014C40000207047D08F000038B5054602690C46ED
:1014D4000948442106F029FE07F045FA0346286925
:1014E40023B12146BDE8384007F0C7BA2146BDE81C
:1014F400384007F0C5BA00BF7099000008B50D4B1D
:101504001B7873B90C4940F246330C4A0C4806F078
:1015140098FD0C4806F095FD40F24631074806F068
:1015240087FD094B0BB1AFF3008000F0DFFE074BE2
:10153400185808BD570700204E9800001E98000058
:10154400B49600006198000000000000080000004C
:1015540013B50446FFF7D2FF4421024663691248DB
:1015640006F0E3FD60694FF0FF324FF0FF3304F003
:1015740083F9044690B1024645210C4806F0D5FD96
:1015840086230B4A0B490C4806F05BFD21460B48A9
:1015940006F057FD8621064806F04AFD000C0004BB
:1015A40040F0010002B010BD8D990000B799000011
:1015B400D2990000FE990000B4960000049A00003D
:1015C40013B50446FFF79AFF4421024663691048A5
:1015D40006F0ABFD606904F017FA044690B10246C8
:1015E40045210C4806F0A1FDAB230B4A0B490C48DE
:1015F40006F027FD21460B4806F023FDAB210648E3
:1016040006F016FD000C000440F0010002B010BD0D
:101614001C9A0000419A0000D2990000FE99000033
:10162400B49600005E9A000008B50D4B1B7873B9A0
:101634000C4940F246330C4A0C4806F002FD0C48B3
:1016440006F0FFFC40F24631074806F0F1FC094B76
:101654000BB1AFF3008000F049FE074B185808BDEA
:10166400570700204E9800001E980000B496000012
:1016740061980000000000000800000010B5044656
:1016840001211830FFF720FF4421114806F04DFDD9
:10169400636B0BB907F00CFAA36B04F12C009847A9
:1016A40044210C4806F041FD2046FFF751FF0A4A49
:1016B400442113780948013B137006F036FD204697
:1016C400FFF77EFFBDE810404421054806F02DBD1C
:1016D400D99A0000F79A00004D0700202A9B0000C9
:1016E400579B000070B504460D46164606F032FDC1
:1016F40004F1180006F026FD0023C4E90B33C4E905
:101704000D3304F1480384F83C5023647EB1304621
:10171400FEF742FD0F2805460BD9013007F0B7F953
:10172400A56420642A46314607F0C7F906E0084E4E
:10173400EDE7012D206C08D1337803700023226C6F
:1017440065645355A365204670BD002DF6D0E9E7C6
:101754006B9B000010B50446826D4421134806F0CB
:10176400E4FCA06D58B14FF0FF324FF0FF3305F0A9
:10177400A3FB024618B144210D4806F0D6FC206CA8
:1017840004F14803984203D0A16C013107F07DF9BC
:1017940004F12C0006F0F9FA04F1180006F0D9FC63
:1017A400204606F0DEFC204610BD00BF869B0000EC
:1017B400A19B00002DE9F04104468EB00D46FFF7D1
:1017C400C7FEA26D002A40F09C804F4E3378012B57
:1017D4000DD970234D4A4E494E4806F032FC022181
:1017E4004D4806F02EFC7021484806F021FC0AAB57
:1017F4000A92D5E9027C5A602FB195E80300C5E945
:10180400022283E8030093E8030008AD85E803009F
:1018140004F12C0292E8030083E8030095E8030036
:1018240082E80300626B18460C92A26B6763C4F8EB
:1018340038C00D92394F06F0A8FA3278236C94F927
:101844003C804421CDE9008335484FF4006307EB25
:10185400C22206F06AFC35784FF0FF324FF0FF33B6
:1018640007EBC521CDE90623A82700232D48CDE9A0
:101874000383CDE901334FF4006207FB05002A4BD3
:10188400009404F031FBA06550B92849B3231F4AE2
:10189400204806F0D6FB264806F0D3FBB321A3E785
:1018A400216C04F09BFA054658B1B923174A1F4925
:1018B400184806F0C6FB29461E4806F0C2FBB921AB
:1018C40092E744213378A26D1B4806F02EFCA06DEC
:1018D40005F060F9337801333370012320468DF825
:1018E40028308DF82950FFF76BFE00209DF8283032
:1018F40063F307009DF8293063F30F200EB0BDE8B1
:10190400F08100237825E9E74D070020B99B00000A
:10191400E69B0000B4960000029C000060070020D3
:101924002F9C00000001002081160000FE99000099
:10193400799C0000889C00009E9C000037B50546F9
:10194400FFF706FEADF80000C0B278B99DF801407B
:10195400D6232F4A2F49304806F073FB21462F48DF
:1019640006F06FFBD6212A4806F062FBAB6D002B14
:1019740039D02846FFF724FEADF80000C0B268B99C
:101984009DF80140DB23224A2249234806F059FBF3
:101994002146234806F055FBDB21E4E7A86D4FF010
:1019A400FF324FF0FF3305F087FA044628B10023D5
:1019B400C4B243EA042003B030BD2846FFF7C8FD93
:1019C400ADF80000C0B268B99DF80140E423104AA4
:1019D4001049114806F035FB2146104806F031FB4A
:1019E400E421C0E7AC652846FFF7EAFDC3B2C0F3C3
:1019F4000724002BDDD1EB23054A0649064806F0EF
:101A040020FB2146064806F01CFBEB21ABE700BF98
:101A1400B99B0000CA9C0000B4960000CE9C000054
:101A2400EE9C000010B5044606F087FD054AA0FBB5
:101A34000232DB0B43EA4243D20BC4E900322046B4
:101A440010BD00BF40420F0008B50348034A0021FF
:101A5400121A06F0B7FB08BDE00000205C07002066
:101A6400074808B5074A0849121A06F0ADFBBDE855
:101A740008400648064A0749121A06F0A5BB00BFEB
:101A840000000020DC00002030B80000000000202E
:101A94000000002030B8000037B505460C46C9B137
:101AA4008B6814480093D1E90023452106F03DFBDF
:101AB400636945210093D4E903230F4806F035FBFD
:101AC4004521E2690D4806F030FB4521A2690C4826
:101AD40006F02BFB012D06D1EFF3058245210948C1
:101AE400103A06F022FB2146284603B0BDE83040F8
:101AF40003F0D8BC199D00004D9D0000819D00009D
:101B0400959D0000C89D000030BFFFF7FDBF00BFDA
:101B14002DE9F04105460B4EDFF82C80324606EBEA
:101B24000807CC1B2046094906F0C7FFA019424606
:101B34000021083C06F0CEFFC5F8984007F10800E4
:101B4400BDE8F0810000000008000000B88F00002C
:101B540010B5244C4521244806F0E7FAA36A9901FC
:101B64003ED52248452106F0E0FA1E20A36ADA0198
:101B740004D51F48452106F0D8FA1F20194CA36A42
:101B8400DB0204D51B48452106F0CFFA0220A36AE4
:101B94001C0304D51848452106F0C7FA2120114C2E
:101BA400A36A590304D51548452106F0BEFA22203C
:101BB400A36A9A0304D51248452106F0B6FA2320F5
:101BC400084CA36ADB0304D50E48452106F0ADFAA0
:101BD4002420A36A6FEA03436FEA1343A36210BD90
:101BE4001D20C3E700ED00E0E09D0000FD9D000026
:101BF400159E0000349E0000639E0000869E000037
:101C0400B09E0000CF9E000070B5284C06460D46DD
:101C14002748452106F089FAA36AD9043BD525480B
:101C2400452106F082FA1720A36A1A0504D5224832
:101C3400452106F07AFA18201C4CA36A9B0511D59D
:101C44001E48452106F071FAA26BA36A180408D550
:101C540045211B4806F069FA1EB1A36A23F4004328
:101C6400A3621920114CA36A590504D515484521CE
:101C740006F05BFA1A20A36ADA050ED5124845214C
:101C840006F053FA1B20094A936A43F47F43936294
:101C940000232B7070BD1620C6E7A36A9B04F2D5FF
:101CA4000A48452106F041FA1C20ECE700ED00E06B
:101CB400FF9E00001A9F0000309F0000489F000014
:101CC400669F0000809F0000A09F0000BD9F000051
:101CD40070B5344C06460D463348452106F025FAC6
:101CE400A36AD9064CD53148452106F01EFA1120C5
:101CF400A36A1A0704D52E48452106F016FA1220C5
:101D0400284CA36A9B0711D545212A4806F00DFAF1
:101D1400626BA36A190608D54521274806F005FA1F
:101D24001EB1A36A23F08003A36213201D4CA36A8F
:101D3400DA0704D52148452106F0F7F91420A36AEF
:101D44009B0604D51E48452106F0EFF91520154BD6
:101D54009A6AD60602D49A6A940713D59B6AD9065E
:101D640010D5184940F22D13174A184806F069F99E
:101D7400174806F066F940F22D11134806F058F999
:101D84001020B5E7074B9A6A920642BF5A6A22F4BA
:101D940000525A629A6A42F0FF029A6200232B7040
:101DA40070BD00BF00ED00E0F19F00000CA000003A
:101DB400309F000044A0000061A000007CA000004F
:101DC400BD9F0000D7A00000A0A00000B4960000B2
:101DD40021A10000F0B5754B0446586800258BB06E
:101DE400C0F3080385F31188BFF36F8F02F07F46B9
:101DF400B6F17F4F07D102F00C06082E12D145210F
:101E04006B4806F092F96B4940F21B436A4A6B48EF
:101E140006F017F96A4806F014F940F21B416648C7
:101E240006F006F916074CBF0C460125002CEAD033
:101E34000026DA1E8DF80760092A00F2A880DFE880
:101E440002F0059B9F7EA6A6A6A6A6A345215D48F3
:101E540006F06BF98DF80760544EF36A9A0705D5BE
:101E64004521594806F061F900232DE0F36A002B5F
:101E740002DA45215548F5E7F36A5B006FD5452141
:101E8400534806F052F97369A26943F4807373618D
:101E9400BFF34F8FBFF36F8F32F8023C726922F4A5
:101EA40080727261BFF34F8FBFF36F8F03F47F4271
:101EB400B2F55F4F2AD1DBB2022B27D1452122682C
:101EC400444806F032F923689DF80720E2B902AECF
:101ED40004F12007324620686168083403C2BC421A
:101EE4001646F7D1099A002D5DD0C2F3080121B935
:101EF4006FEA52226FEA42220992102B34BF18462D
:101F0400002002A9FFF7C8FD0BB0F0BD274B9A6A69
:101F1400D2B232B101200DF10701FFF7D9FE034619
:101F2400D2E79A6A12F47F4F05D001200DF1070120
:101F3400FFF76AFEF3E79B6AB3F5803F02D3FFF72E
:101F440007FEECE7244940F2ED231B4A1B4806F048
:101F540078F8224806F075F840F2ED215FE71E4953
:101F64004FF43C73144A154806F06BF81C4806F00D
:101F740068F84FF43C7152E700200DF10701CCE7FB
:101F840000200DF10701D3E7452116486AE71649F9
:101F940010F4F87F154A164818BF0A46103B45212D
:101FA40006F0C3F860E76FF30802A5E700ED00E070
:101FB400B3A10000E3A10000A0A00000B4960000BB
:101FC400F6A1000034A2000050A2000076A2000096
:101FD40089A20000ADA2000085AE0000CEA20000E0
:101FE400F2A2000022A300009AA1000085A1000033
:101FF4004BA30000064B5A6942F010025A615A6919
:1020040042F480625A615A6922F008025A617047A8
:1020140000ED00E0EFF30880EFF3098101B57246AB
:10202400FFF7D8FE01BD00BF0B4880F3088802F01B
:102034002BF9202080F3118808484FF400614018E0
:1020440080F30988EFF314800221084380F3148895
:10205400BFF36F8F00F072F8A048002060370020B3
:102064001EF0040F0CBFEFF30880EFF309808169C1
:1020740011F8021C0229FFD001B5724606F0A6F839
:1020840001BD00BF40B2002807DB01234109034A18
:1020940000F01F00834042F82130704700E100E067
:1020A400054B420953F82220012300F01F0003FAD4
:1020B40000F01040704700BF00E100E038B54B1C51
:1020C400072B04460D460FD96B23104A10491148BB
:1020D40005F0B7FF294610480723224605F0B1FF53
:1020E4006B210A4805F0A4FF40B20028ACBF00F100
:1020F40060400A4A4FEA4313DBB2ABBF00F56140CC
:1021040000F00F0080F80033135438BD63A30000BF
:102114009FA30000B4960000BAA3000014ED00E0F1
:10212400044B054A23F07F039360BFF34F8FBFF343
:102134006F8F70470000000000ED00E008B5FFF766
:10214400EFFF0B4AD2F8883023F47003C2F88830CA
:10215400EFF3148323F0040383F31488BFF36F8F26
:10216400FFF772FCFFF77CFC00F0A2F803F0D6FA4C
:1021740000ED00E042F8203C009B0B4942F81C3C77
:10218400019B21F0010142F8183C029B42F8081C13
:1021940042F8143C4FF0807342F8043C0023203A88
:1021A4000265C0F89C307047E90E000000B50E4B84
:1021B40015469860D0F898200C4B0E461A60D0F85B
:1021C400883083F30B882C4686F309880020044B5F
:1021D40098472046002100220023024C204700009B
:1021E400FF810000E90E00000C0700207C050020A0
:1021F4001022014B1A61704700ED00E0054B5A694B
:102204009B689A421FBF044A536843F0805353604B
:10221400704700BF0C07002000ED00E0084B9B68EE
:1022240083420BD1EFF3058343B1064B5A6842F066
:1022340080525A605A6A22F400425A6204F008BD7D
:102244000C07002000ED00E016498A684FF03000CA
:102254001044EFF3098C80E8F01F202080F31288EB
:10226400BFF36F8F104F4FF000664A698A603E607B
:10227400D2F898000D4C2060D2F89C000023C2F8DC
:102284009C3080F3118802F1300090E8F01F8CF349
:10229400098802F1000004B505F0A7FFBDE8044079
:1022A400704700000C07002004ED00E07C050020CE
:1022B400002320210348C2180133452B82F8001360
:1022C400F9D1704700E100E008B5EFF30583064A51
:1022D400103B02EBC30152F8330049688847BDE85C
:1022E4000840FFF78BBF00BF8C8C000001480068DA
:1022F400704700007C0500201FB50121094B0A4AE4
:102304000A4800F00BF90023064A0393084B012105
:10231400019301A8D31A029300F024F905B05DF8E3
:1023240004FB00BF0000072000000020D08F000045
:10233400E00000200A7A0B6810B562F304031C461F
:10234400CB68520923F01F0343EA4203044A43F0D3
:102354000103C2F89800C2F89C40C2F8A03010BD36
:1023640000ED00E010B50A4B0446D3F89030C3F3F7
:102374000723013B984208D902464521054805F048
:10238400D4FE6FF01504204610BDFFF7D3FFFAE723
:1023940000ED00E0FEA300002DE9F04F894614464D
:1023A40006464FF000084F4D85B0C84527DAD6F8E9
:1023B40004A0BAF1000F44D0BAF11F0F18D91AF0D3
:1023C4001F0F15D1D6F800B01BF01F0F10D15846BF
:1023D40005F04FFF07460AEB0B00013805F049FFF3
:1023E400874210D06FF015073A4645213E4802E077
:1023F400424645213D4805F098FE6FF015042046FD
:1024040005B0BDE8F08F17F1160FEDD0BC42EBDD3F
:10241400C5F89870D5F89C10C5F89870D5F8A03018
:1024240021F01F0143F01F0BD6E900321A449942F0
:1024340002F1FF3A1AD1D34507D13146F8B205F07B
:1024440021FF08F101080C36AFE73146C5F8987052
:10245400D5F89C30E0B263F30402C5F89C2005F083
:1024640011FF10F1160FC8D0441CEAE7C5F89870A4
:10247400D5F8A020013B23F01F0302F01F021343F1
:10248400D3453146E0B2C5F8A030E8D005F0FAFEF5
:1024940010F1160FB1D0C5F89870D5F89C209DF8AE
:1024A40008300BF1FF3B62F304038DF80830D5F8D4
:1024B400A0309DF808205B0863F347128DF80820CC
:1024C400D6E900321344009323F01F035B44A3EBCB
:1024D4000A03013023F01F036946C0B20393FFF7D8
:1024E40041FFBEE700ED00E054A4000029A4000071
:1024F4000522044BC3F89420BFF34F8FBFF36F8FB3
:10250400704700BF00ED00E0BFF35F8F0022024B75
:10251400C3F89420704700BF00ED00E038B50C4DBF
:102524000C462A78FFF738FF287016300FD140F296
:102534008913084A0849094805F083FD21460848DB
:1025440005F07FFD40F28911024805F071FD38BDA8
:102554004E0700207CA4000085AE0000B496000065
:10256400B0A400002DE9F74F314D894606464FF0DF
:102574000008AB462F4FC84502DB03B0BDE8F08F1F
:10258400D6F804A0BAF1000F4CD031680846019186
:1025940005F06FFE019904460AEB0100013805F0CD
:1025A40068FE84424FF01402234B15D002FB08F35B
:1025B4006FF015024BF8032040F299131F4A20498B
:1025C400204805F03EFD49461F4805F03AFD40F21B
:1025D40099111A4805F02CFD14F1160F2C60EBD05C
:1025E4001978A142E8DD02FB08B0C7F89840C7F8A3
:1025F4009840D7F89C4000F10801007B64F3040084
:102604000871D7F8A0000C79400860F347140C71E6
:10261400D7F89C1021F01F016960D7F8A01021F0B1
:102624001F01296108F1010814350C36A3E700BF26
:102634008005002000ED00E04E0700207CA400008F
:1026440085AE0000B4960000DCA400002DE9F04142
:102654006B4D6C4ED5F890303468C3F307239C421D
:1026640086B013D940F20223674A6849684805F0E6
:10267400E8FCD5F8902021466648C2F3072205F00D
:10268400E0FC40F20221604805F0D2FC0020FFF794
:102694003BFF614BC5F8C03084421BD15F4D01A89C
:1026A4002C70FEF70BFF002607464FF061085C4CC8
:1026B400B74216D100202B785149D1F89020C2F3AB
:1026C40007229342C0F295800020FFF711FF06B065
:1026D400BDE8F081716801EB0011FFF72BFE0130BA
:1026E400DAE7019A300102EB0613D3F80CC00CEAC6
:1026F4000401B1F1807F57D00AD8B1F5001F29D069
:10270400B1F5800F43D0B1F5801F14D00136CFE767
:10271400B1F1006F48D0B1F1805FF7D159689B687F
:102724001258013B21F01F000344CDE9021223F0AB
:102734001F0301220BE0596812589B68CDE902126D
:102744002122013B21F01F00034423F01F038DF8D5
:10275400102036E0596812589B68CDE902124122D4
:10276400013B21F01F00034423F01F031CF0010F61
:102774008DF81020059325D02A498423224A244821
:1027840005F05FFC284805F05CFC84217BE7596870
:102794009B681258013B21F01F000344CDE902124B
:1027A40023F01F030622D2E7596812589B6821F0D0
:1027B4001F00013BCDE90212034423F01F038DF8EF
:1027C40010800593287802A9FFF7CCFD00280CDAC5
:1027D4000E4940F235230C4A0D4805F032FC1348EB
:1027E40005F02FFC40F235214DE72B7801332B7097
:1027F4008CE7C1F89830C1F8A00001335DE700BF51
:1028040000ED00E0DC8F00007CA4000085AE000039
:10281400B49600000BA50000AAFF44004E07002058
:102824000000F0FF3FA5000065A5000094A500008E
:1028340008B5024B1B689847002008BD940500208A
:10284400034B044A1860937843F002039370704773
:10285400940500200400002008B5054805F0DBFBC2
:10286400002383F31188BFF36F8F0423184602DF1C
:10287400CDA5000008B50649064821F00701C1F1BD
:10288400005202F5E022FEF72DFA002008BD00BF39
:10289400A74800209805002008B54FF0FF324FF0FC
:1028A400FF33074802F0E8FF48B1064906487F2392
:1028B400064A05F0C6FB7F21044805F0B9FB08BDB4
:1028C4001400002015A60000B4960000D6A5000050
:1028D400014803F099B800BF1400002038B505463C
:1028E400FFF7DAFF2A4608210748FEF75FF9044696
:1028F40028B925B1FFF7FAFC0C22044B1A50FFF754
:10290400E7FF204638BD00BF980500200C000000FA
:1029140010B50446FFF7C0FF21460348FEF7B6F89A
:10292400BDE81040FFF7D4BF98050020054B03EB2A
:102934008000D0F8003223F0E04343F04053C0F865
:102944000032704700258450052370B5144D154E90
:102954002C780134B4FBF3F303EB8303E41A05F09E
:10296400ECFD114A137823B156F82430C01A072815
:1029740014D94FF05023D3F8141141B10021C3F8F6
:102984001411D3F814312C700CB9012313702C7862
:1029940005F0D3FD46F82400012070BD0020FCE7BB
:1029A40050070020A40500204F070020012208B58D
:1029B400114B1249C3F8002502230020C1F8D03678
:1029C400FFF7B4FF1046FFF7B1FFC1F80427C1F8C1
:1029D4000429C1F8002B00F0A1F858B108490948AE
:1029E40040F23123084A05F02CFB40F2312106481D
:1029F40005F01EFB08BD00BF001000500040005051
:102A040052A60000B496000023A6000007B50022D9
:102A1400134B1449C3F8A821C3F8AC204FF48062C7
:102A2400C3F8B8254FF400620F48C3F83C250DF1F4
:102A3400070205F0CBFD00280BDA0C490C4840F2E4
:102A44003B230C4A05F0FDFA40F23B21094805F00E
:102A5400EFFA9DF8070001F015FD03B05DF804FBE3
:102A640000A002502CA0025028A1025052A600003F
:102A7400B496000023A6000048B1054B054A1B6824
:102A8400B3FBF2F35843044B43F001031847704778
:102A9400B800002040420F00C08F0000002170B534
:102AA400184C194D000714F8013B5E0914D0012E8F
:102AB40006D14FF6FF7203F01F03DA40D2070ED49B
:102AC400124913484FF47473124A05F0BAFA4FF4DA
:102AD4007471104805F0ACFA4FF0FF32EBE70E4A80
:102AE4000131012E18BF2A4602EB8302D2F80032CC
:102AF400042923F0E04343EA0003C2F80032D2D1B0
:102B040070BD00BF11B800000025845097A60000D6
:102B1400B49600005FA600000028845001490248D2
:102B240005F0DEBA04900000B805002008B54FF0A7
:102B3400FF33044A13603F231046536001F07CFCCA
:102B4400002008BDD805002070B50546074C084E86
:102B5400B44202D30024204670BD28462168FDF704
:102B640011FB0028F7D01C34F2E700BF008F0000EF
:102B74001C8F00002DE9F84380460D4614460023BF
:102B84000E4F0F4EDFF83C903B704E450ED3D8F8F5
:102B940008300BB12046984702220B4B20461A708E
:102BA400AB68984701233B70BDE8F883336813B1E1
:102BB4002146284698470836E7E700BF5207002019
:102BC400588F0000608F0000D000002008B50F4827
:102BD400FFF724FB05F0C7FEB8B90D4B1B7873B99A
:102BE4000C4940F246330C4A0C4805F02AFA0C48CA
:102BF40005F027FA40F24631074805F019FAFFF7C5
:102C040075FB084B1858FFF709FB08BD500200205C
:102C1400570700204E9800001E980000B49600004C
:102C2400619800000800000008B50E4B1B7873B1D2
:102C34005A1E012A0FD9052B96BF0B4A0B4952F88D
:102C440023100B4805F0E7F902220A4B01E00522A4
:102C5400094B1A7008BD0222074B1A70BDE80840E0
:102C6400FFF7B4BFD000002010900000BAA6000007
:102C7400C4A60000530700205207002070B5054683
:102C840039B101F11404084EB44204D3002420469F
:102C940070BD064CF7E728462168FDF773FA002853
:102CA400F5D01434F0E700BF588F00001C8F0000EB
:102CB4002DE9F04F8BB017460646099140B9022220
:102CC4004FF0FF388E4B1A7040460BB0BDE8F08FC2
:102CD40001688C4805F09FF98B4805F09CF90020A9
:102CE4008A4B1870DFF828A28AF80000894B187004
:102CF4009AF80030052B02D0706800B180474FF07D
:102D04000009002F08BF0746C8464D46099B994550
:102D1400C0F2DC80B8F1000F3168D4BF7E487F4830
:102D240005F079F904227B4B1A703369002BCBD060
:102D340038469847C8E77A4B20469B6869689847A5
:102D4400002800F0BF802A697648136801331360B5
:102D5400696805F060F901236E4A137005F0EDFB14
:102D6400714B18604FF0FF324FF0FF33CDE906236B
:102D74004FF0FF330822CDE90157CDE903326B4907
:102D84004FF400526A4B00966A4803F0ADF8696844
:102D940011B1684803F022F89AF80030043B012B83
:102DA40009D9644803F0F6FE4FF0FF324FF0FF33C9
:102DB400604804F081F80322564B1A70F3680BB193
:102DC400384698475C4CDFF874B105E0636813B18A
:102DD40039462846984708345C45F7D305F0ADFBDF
:102DE400514B4FF47A711B680022C01A47F6FF73E7
:102DF400E0FB0132DB0B43EA4243514A13602A6988
:102E04001169994238BF136105229AF80040414B79
:102E1400022C1A704B4B03D0944201D01A7862B33F
:102E2400002201241A704348FFF7F8F96B68DFF8B1
:102E340018B10893454B9B4526D34FF47A71404B08
:102E440043481A68B2FBF1F301FB13224149009293
:102E540051F82410089A05F0DEF82B4805F0DBF849
:102E6400022C2B692AD1294A127812B10121244A51
:102E740011705A6801325A6024E0033C012C8CBF63
:102E8400002401246400CEE70899DBF80400FDF770
:102E940079F960B92968DBF80000FDF773F930B9F6
:102EA4009BF8083033B1012BC7D1023C03E00BF18E
:102EB4000C0BBFE7013C18BF0124BEE7D4B9DA68A4
:102EC4000132DA600E4B1B78022B10D0346829468D
:102ED4002046FFF7D3FE054600287FF42CAF084BAD
:102EE4001A7822B9B8F1000F01D001221A7009F141
:102EF40001090BE79A6808F1010801329A60E1E7D9
:102F040053070020F7A600000DA70000510700207A
:102F140052070020D00000207BA7000093A70000E8
:102F24003890000052A70000E4050020601700203C
:102F3400792B000050020020588F0000608F0000A1
:102F4400E005002054070020008F0000008F0000DF
:102F54005EA70000289000002DE9F74FDFF8789075
:102F6400019399F800309046022B009031D000264E
:102F74001A4CDFF86CB01B4B9C4203D3304603B0B1
:102F8400BDE8F08F0027BA46A569B84506DC99F874
:102F940000305644022BF1D01C34ECE72146DBF818
:102FA40004200098904780B1002220460199FFF741
:102FB4007FFE2A680AF1010A01322A60AA68002801
:102FC40018BF0132AA600137DFE76A6801326A601C
:102FD400F9E70026D2E700BF53070020008F000066
:102FE400389000001C8F00002DE9F04101271E4C91
:102FF4001E4EB4420ED31E4C1E4EB44214D317B907
:1030040001221D4B1A700127194C1B4DB4421AD3CF
:10301400BDE8F081A3691D6825B92168174804F04B
:10302400FAFF2F461C34E4E7D4F800804046FFF74B
:103034008BFD054628B942466168114804F0EBFF50
:103044002F461434D9E72269D2E902310B4451687E
:1030540012680B44934205D0D4E90012094804F0E5
:10306400DAFF2F701434D1E7008F00001C8F0000AA
:103074001C8F0000588F000053070020A9A70000F0
:10308400CEA7000010A8000010B4024C2468A44687
:1030940010BC6047389000002DE9F04F8BB005F06C
:1030A40051F9594804F0B7FF584EDFF864A1594B61
:1030B4009E4215D3584804F0AEFF584B58481B782D
:1030C400002B00F09A8004F0A6FF564804F0A3FFFA
:1030D4005549564804F09FFF00200BB0BDE8F08F1F
:1030E40000252C46A8462F46AB46A9463368214600
:1030F40018460993FFF7C2FD099B044600283CD1FA
:10310400B8454DD04A49A8EB070201FB09F191FBF0
:10311400F2F14FF47A7291FBF2F246486FF0090E25
:1031240000FB02110A2091FBF0F00EFB0011BBF131
:10313400000C18BF4FF0010C042900DD01304FF4DE
:103144007A7EB5FBFEF10EFB11550093CDE9051512
:103154000346CDE90378CDE9019B5AF82C10364893
:1031640004F059FF21463068FFF788FD0446D8B9BA
:10317400324804F050FF1C3699E7226908F101082F
:1031840011690D44D2E90001814201D10137AEE752
:10319400D26890420CBF09F101090BF1010BA6E7BB
:1031A4004FF0020C0246CAE74FF47A77D4E90023C1
:1031B400256928692968B0FBF7FC07FB1C006F68C8
:1031C4008F420DD0ED68A94213D0A5B10191491BDE
:1031D400CDE902C000911A481A4904F01CFFC1E766
:1031E4000221CDE900C05AF82110174804F013FF5A
:1031F400B8E70021F5E70121F3E704F00CFF0948E3
:1032040004F009FF114964E725A80000008F0000BD
:10321400289000001C8F00002FA9000053070020F5
:103224000DA7000055A900007EA9000085A9000093
:10323400A086010018FCFFFF4EA800002BB100007F
:10324400B8A80000B2A8000003A900009BA90000D0
:1032540037B540230C460A490093411A49110546E3
:103264002346084A084805F082F8014628B1284652
:10327400234603B0BDE83040184703B030BD00BF5B
:10328400FC050020E38300001C8C0000C9B2032964
:1032940008B509D909490A487E230A4A04F0D1FE2F
:1032A4007E21084804F0C4FE0C22036901FB0233AA
:1032B400D3F8880000F0070008BD00BF22AA000070
:1032C400B4960000E0A9000070B5C9B20329034612
:1032D40000690BD919491A484FF4E873194A04F0E4
:1032E400B0FE4FF4E871174804F0A2FEEFF3118624
:1032F400202484F31288BFF36F8F0C2505FB01048F
:10330400D4F8884014F0C00401D0A24212D10122A2
:1033140005FB0100C0F88820002086F31188BFF364
:103324006F8F30B90C225B6802FB01335B689847EE
:10333400002070BD4FF0FF30EFE700BF22AA00006D
:10334400B4960000E0A9000070B50D460649044695
:10335400411A491140220548FFF7B6FF2B460146A2
:103364002046BDE870401847FC0500201C8C000076
:103374002DE9F8430022012107460520FEF79EFEB1
:10338400114801F09FF80446C0B901F0CFF8254672
:103394004FF00C094FF001083E690C4906EB45104B
:1033A40004F09EFE031E0CDB09FB05660135042DAB
:1033B400C6F88880F0D12046BDE8F8836FF0040495
:1033C400F9E71C46F7E700BF8D3400004490000085
:1033D4001FB5002201236C46CDE902236B46074A40
:1033E400CDE9004404F0F4FF28B94FF480420023EF
:1033F400684602F079FC04B010BD00BF07840000E9
:1034040010B5EFF31184202383F31288BFF36F8F79
:10341400074A136823F00201DB07116002D401207C
:1034240001F0E0F884F31188BFF36F8F10BD00BF83
:10343400AC0600200C22124B014602FB0033002094
:1034440030B4D3E92052C3F88000EFF31180202474
:1034540084F31288BFF36F8FD3F8884004F0C0045C
:1034640044F00204C3F8884080F31188BFF36F8FDF
:103474001DB12B4630BC0348184730BC704700BF11
:10348400FC0500201C8C000008B5092822D8DFE8C0
:1034940000F00513212121212115110F134BD3F81D
:1034A400880010F007001FD1BDE80840FFF7C2BF35
:1034B4000220F9E70320F7E70120F5E70C4940F281
:1034C400FA230C4A0C4804F0BCFD40F2FA210948E6
:1034D40004F0AEFD06494FF44173064A064804F071
:1034E400B0FD4FF44171F2E708BD00BFFC050020B8
:1034F40085AE0000E0A90000B496000010B4EFF31C
:103504001180202282F31288BFF36F8F18490B6851
:1035140043F0020413F001030C601CD04FF050235D
:10352400D3F80C14D3F80C3413F0010313D0EFF3D5
:10353400118182F31288BFF36F8F0E4AD2F888305C
:1035440003F0C00343F00203C2F8883081F311880A
:10355400BFF36F8F012380F31188BFF36F8F1BB10B
:10356400002010BCFFF766BF012010BC01F000B8BA
:10357400AC060020FC0500202DE9F041012206469E
:103584004349D1E8EF3FC1E8E02F0028F9D1A3B9BE
:10359400404941484B60CB608A60FDF7D9FE002862
:1035A4000BDA3E4940F2A3233D4A3E4804F049FD6C
:1035B40040F2A3213A4804F03BFD002E50D0731E84
:1035C400012B5AD8012E07D14FF05023D3F81C34C5
:1035D40003F00303022B43D005F0C5F9054658B1A7
:1035E400EFF31188202383F31288BFF36F8F012533
:1035F4004FF050242C4F22E02C4B1B78002BEFD0A3
:103604004FF0502302228046C3F80823F0E74DB35D
:10361400404604F012FED4F81835DBB2012B0ED16B
:10362400D4F804215AB10022C4F80421D4F80421A6
:103634000222C4F818252022C7F88021A360D4F8F8
:103644001824D4F81834D203E1D503F00303022B71
:1036540001D0012EDBD155B188F31188BFF36F8FF0
:10366400BDE8F0810021212003F062FAD3E74FF096
:1036740050230222C3F80423F2E70D4940F2B52394
:10368400074A084804F0DDFC40F2B52192E700BF88
:10369400F8050020E80500201C06002046AA0000CA
:1036A400E0A90000B496000000E100E05707002004
:1036B40085AE000008B5074805F033F938B106486F
:1036C400FFF7BEF80448FDF7EFFB002008BD6FF0DC
:1036D4001200FBE7708C0000E13600000A2838B5C0
:1036E4000446074D04D1AB680D2128465B68984712
:1036F400AB6803485B68E1B29847204638BD00BF19
:10370400708C000038B5036961B921496423214AEA
:10371400214804F096FC214804F093FC64211D48E0
:1037240004F086FC486850B91D496523194A1A48B3
:1037340004F087FC1B4804F084FC6521EFE758681B
:1037440000B30024884219D108688CB99C68586079
:10375400A14200D19860002008602AB15A680A602A
:103764009A68596002B9996000200FE02846E9E799
:1037740020609868814208BF9C60ECE705680446B5
:10378400002DF3D1002AE9D16FF0150038BD00BF38
:10379400CAAA000089AA0000B4960000D3AA0000B7
:1037A400E2AA0000F4AA000008B50368590914D07D
:1037B400012906D14FF6FF7203F01F03DA40D20746
:1037C4000ED40B490B484FF474730B4A04F039FCC4
:1037D4004FF47471084804F02BFC4FF0FF32EBE710
:1037E4000360064B0648012908BF184608BD00BF00
:1037F40097A60000B49600005FA60000002884503D
:103804000025845070B5446801F01F05207C86B003
:1038140045EA4015A06800286ED0B2F5001F04D117
:10382400294601F0F3FC00204AE00026B2F5800F9F
:1038340001A80196466032D1B3F1007F14BF05237D
:1038440004238DF804300023CDE904030393E368D3
:103854006E46CB4013F0010F34D1B2F1A07F31D1C9
:1038640068460095FFF7A0FF009B803350F8233093
:10387400DB0727D46A462946A06801F05DFB1630B1
:1038840018D002962946A06803AA01F0F5F9002889
:1038940016DB01222946A06801F036FCC3E7B3F128
:1038A400C06F05D0B3F1007F14BF01230223C8E722
:1038B4000323C6E76946A06801F002FC0028E0DAA9
:1038C40006B070BD32462946A06801F035FB0028D9
:1038D400D8D19DF80010A06801F0D2FB0028D1D007
:1038E400074908484FF4F373074A04F0AAFB4FF45E
:1038F400F371054804F09CFB6FF08500E0E700BF1E
:1039040052A60000B49600000BAB00002DE9F04372
:10391400466840F20635337CD00601F01F0747EABB
:10392400431748BF032302EA050558BFC2F34013F7
:1039340087B0B5F5837F14468DF8033043D00DD896
:10394400062D16D005D8A5B1022D3ED06FF0150076
:1039540036E0B5F5807FF9D101250AE040F2022274
:10396400954234D0B5F5407F33D0B5F5007FEDD125
:10397400022522032FD5012372688B409360B0681F
:1039840080BB03A80397FFF70FFF039B00EB8300A3
:10399400C4F3004383F00103C4F34044D0F800228D
:1039A40044EA43049DF8033022F4706244EA830439
:1039B40022F00F0244EA05231343C0F8003200202A
:1039C40007B0BDE8F0830725D3E70425D1E7052533
:1039D400CFE70325CDE7630341BF012372688B4022
:1039E400D360CCE739460DF1020201F0A5FA14F4D4
:1039F400403F804617D13946B06801F029FBB8F141
:103A0400000FDCD19DF80210B06801F039FB0028EA
:103A1400D5D01E491E48F5231E4A04F012FBF52199
:103A24001C4804F005FB4FF0000901ABCDE90199F6
:103A3400CDE90439CDF80C903946B06803AA01F0F9
:103A44001BF94845BBDB14F4003314D09DF8033054
:103A5400C4F3004484F001048DF80E308DF80C504A
:103A64008DF80D404B463946B06803AA01F0C6F9FB
:103A74000028C4DAA3E7CDE904330DF1030303936B
:103A84003946B06803AA01F0F7F8F1E752A600003E
:103A9400B49600000BAB00004209034670B502D097
:103AA400012A1ED070BD144E326951680029F9D024
:103AB400012503F01F030C689D400029F2D08A6899
:103AC4002A4012D04B6873B90C4989230C4A0D481B
:103AD40004F0B7FA0C4804F0B4FA8921084804F059
:103AE400A7FA0A4EE0E7304698471CB123682146FE
:103AF4001C46E2E72346FAE7548C00003CAB000086
:103B040089AA0000B4960000F4AA0000388C0000D2
:103B140038B54568A86890B101F080FA014670B9DB
:103B2400A86801F03DFA044658B902460649A86857
:103B340001F0EAF9224605210D20FEF7BFFA002024
:103B440038BD6FF00400FBE79D3A000008B5036838
:103B5400590914D0012906D14FF6FF7203F01F034F
:103B6400DA40D2070ED40B490B484FF474730B4A56
:103B740004F067FA4FF47471084804F059FA4FF0EE
:103B8400FF32EBE70360064B0648012908BF1846DD
:103B940008BD00BF97A60000B49600005FA6000011
:103BA40000288450002584502DE9F04F154607461F
:103BB4004FF0010985B000EB8108B84503D100201E
:103BC40005B0BDE8F08F3B68C3F3C322082AC3F3F2
:103BD400080400F2BB805F498E5C40F2FF129442FD
:103BE40008BF4FF0FF34B3F1485F4FEA13621CD2B1
:103BF400312A1CD8DFE802F01E2D3241353C411B2E
:103C04001B1B1B47A71B1B1B1B1B1B1B1B1B538AA1
:103C14008D901B1B1B93989B9EA1A41B1B1B1B1B02
:103C24001B1B1B1B1B1B1B1B47A74E2A28D06FF0FB
:103C34008500C5E7C5F80C45621C65D003A803944C
:103C4400FFF784FF039B4FF0010A09FA03F3836033
:103C540038E0C5F814454FF0000A1BE0C5F80845E4
:103C6400EAE74FF0000AC5F80845611C22D14BE091
:103C74004FF0010AC5F80C45F7E7C5F81045EAE727
:103C8400C5F81445D8E7C5F80845002EE3D14FF030
:103C9400000A0626631C37D04FF0000B14E0C5F869
:103CA40060457B88601C03F001032DD0002BC5D137
:103CB4004FF0010A03A80394FFF748FF039B09FA96
:103CC40003F3C3604FF0010B3A6803A8130444BF25
:103CD4004FF0010A4FF0000B01920394FFF736FFF7
:103CE400039B019A00EB8300C2F341223302D0F814
:103CF400001243EA8203184A43EA0B030A401343BF
:103D040043EA4A03C0F80032043756E7C5F864456D
:103D1400C7E7C5F86845C4E7C5F86C45C1E7C5F809
:103D240024454FF0010AB5E7C5F8284584E7C5F8EE
:103D34003045F6E7C5F83445F3E7C5F83845F0E70C
:103D4400C5F83C4578E7C5F80C459EE76FF01500CB
:103D540036E700BF15B80000F0F0FCFF2DE9F04194
:103D640004460D46476804F0FEFD88B14FF0200874
:103D7400EFF31186314688F31288BFF36F8F6068C2
:103D840004F09BFB50BB86F31188BFF36F8FEFE702
:103D94001F4B1B78002BE9D04FF020086426606885
:103DA40004F08BFB70B9012004F0DBFB013EF6D17B
:103DB4000021212002F0BCFEF0E786F31188BFF356
:103DC4006F8FF5E7EFF31186314688F31288BFF35E
:103DD4006F8F606804F071FB0028EED0FB6900204F
:103DE4001D706368FA691B68C3F844250122C3F88F
:103DF4004825C3F82001D3F82041C3F85801D3F86B
:103E040058019A6081F31188BFF36F8FBDE8F08188
:103E1400570700202DE9F041054600220121082022
:103E2400FEF74CF90820FEF72DF96C680121E068D3
:103E340004F074FB6B6819682369C1F82435A27D0A
:103E4400637D207D1343228B02431343C1F86C35F9
:103E54006F680022D7E9004313F001031BD0D5F8A3
:103E6400108004F10C01C4F8A02104F59070C4F88A
:103E74008C2008F1080204F0A9FB061E06DA45218D
:103E8400214804F052F93046BDE8F08198F8080062
:103E940000F0F8FA01230822C4F80025FA69012188
:103EA400C4F844250022C4F84825A1606BB9D4F8AD
:103EB4002031002BFBD0C4F82021D4F82031012379
:103EC400E3604FF48073C4F80433D4F85831002B02
:103ED400FBD00021C4F800156D68E8682C6804F074
:103EE4001DFB0823C4F800352A7A52B92B6AC4F89A
:103EF40034350123C4F83835C4F81021D4F810211E
:103F040023600026BFE700BF60AB000038B511494D
:103F140022F07F45D1E90030D41AE31840F10000C3
:103F2400C1E90030A5F50013B3F5400F09D20A4BDF
:103F34001B681A0A1B065819084B42F10001C3E911
:103F4400000103F0D7FB01462046BDE8384003F0EA
:103F540039BB00BF08030020DC060020100300204A
:103F64000D4B1868010A0006BFF35F8F0B4BD3F8A3
:103F74000435181841F10001B3F5801F0AD2084B2B
:103F8400D3E90023904271EB030303D210F1807054
:103F940041F10001704700BFDC06002000500150D1
:103FA400100300202DE9F7432D4BD3F80423910788
:103FB4000BD5D3F8042142B10022C3F80421294AC5
:103FC400D3F80431136801331360254CD4F8043357
:103FD400DA033FD5244BD3E8EF2F22F00101C3E8E5
:103FE400E01F0028F7D1D30702D4D4F840318BB3B3
:103FF4000025C4F84051D4F84031FFF7B1FFEFF386
:104004001182202383F31288BFF36F8F174BD3E9F8
:104014000267B042B94120D3D3E900984FF0FF3092
:104024004FF0FF311D60C3E902014FF48033C4F83F
:104034004833C4F84051D4F8403182F31188BFF3B7
:104044006F8FB9F1000F05D032463B460020CDF802
:104054000080C84703B0BDE8F083A946EDE700BF80
:1040640000500150DC060020D4060020F802002095
:104074002DE9F84F06460F46434DD5E8EF8F28F05B
:104084000103C5E8E23F002AF7D14FF480393F4CE1
:10409400C4F80893BFF35F8FBFF36F8FFFF760FF20
:1040A400B04271EB070308F0010840D2384B301AD4
:1040B40067EB0101984271F1000148D2354BD3E915
:1040C40002239F4208BF96423AD04FF0000C26F0DC
:1040D4007F40834603216FF0020EC4F84893C4F86E
:1040E40040C1D4F84031DFF8B0A02BF07F43C4F8CE
:1040F4004035C4F84493D4F80425AEEB02035B4482
:1041040023F07F4353451BD9D4F840315BB1D4F835
:104114000425131A23F07F43B3F5000F10D9C4F814
:1041240040C1D4F8403101EB020B0131DDE71B4BF8
:10413400D3E8EF1F41F00101C3E8E21F002AF7D1E1
:10414400144B174AC3E902671A6000225A60B8F197
:10415400000F16D0D5E8EF3F43F00103C5E8E23F76
:10416400002AF7D14FF48032084BC3F804230B4BD9
:10417400D3E8AF3FDB0742BF4FF40012094BC3F84B
:104184000021BDE8F88F00BFD80600200050015080
:1041940001008000F8020020FDFF7F00D40600200B
:1041A400113F000000E100E070B54FF0FF30002542
:1041B4004FF0FF31164C174B0226C4F80833C4F8ED
:1041C4004833154BC4F80855C3E902014FF4803352
:1041D4004FF40012C4F80433104B0121C4F80463F3
:1041E4001520C3F880212A46FDF768FF1520FDF746
:1041F40049FF01230A4AA360002123600948136090
:10420400FFF736FF3046FFF7B7F9284670BD00BF09
:104214000050015003000F00F802002000E100E00C
:10422400D8060020FFFF7F00431C10B50F4C05D0BB
:104234008442A8BF0446012CB8BF0124FFF790FEB6
:104244000B4AD2E90031C01AB0F5000F074A0AD26E
:104254002044904228BF1046BDE81040C01841F1E8
:104264000001FFF705BF1046F6E700BFFFFF7F0020
:104274000803002008B5FFF773FE024B1B68C01A41
:1042840008BD00BF0803002008B504F05AF958B16E
:10429400614BD3F8202A3AB90D21C3F8201A012121
:1042A400C3F81C19C3F81C290022D30003F57F03AB
:1042B400D3F80013013107D0D3F800130132D3F837
:1042C4000433202A0B60F0D104F03BF9002840F0BD
:1042D4009A8004F036F940B1504B514AC3F8302566
:1042E4004FF050230122C3F858254FF47F03D3F82D
:1042F4003021D3F83431072A06D1023B012B9EBF6B
:104304000022484BC3F84C2504F01BF950B14FF080
:104314005023D3F80024D10742BF0022C3F814214C
:10432400C3F818214FF47F03D3F83021D3F8343184
:10433400072A09D14FF05023D3F80024D20744BFF1
:104344006FF00102C3F8002404F0FBF818B16522F1
:10435400314BC3F80C274FF47F03D3F83021D3F843
:104364003431072A16D12F4BD3F82034002B11DA1D
:104374004FF050230322C3F8182501229A60D3F882
:104384000421002AFBD00022C3F804210122DA60B0
:10439400C3F818254FF47F03D3F83021D3F8343110
:1043A400072A20D1023B022B1DD97E221A4B1B491E
:1043B400C3F80C27C3F83C297F231B4AC2F81831E1
:1043C4000023C1F8043EC1F8083E01F54821C1F8B4
:1043D4001031C2F82431C2F82C3102F5FF1202F573
:1043E4008052C2F8A032114AD2F88C3043F44063B0
:1043F400C2F88C300E4A0F4B1168C3F84415D269C9
:10440400C3F84C2508BD2922034BC3F80C2703220B
:10441400C3F83C275DE700BF004000500090035004
:104424004400EFBE002003500020005000ED00E0E7
:104434000080FF0000600050014B1860704700BF0F
:10444400E006002010B50B4B1446186858B90A4909
:104454000A4840F2F3130A4A03F0F3FD40F2F31161
:10446400074803F0E5FD04F07EF80028A4BF20709F
:10447400002010BDE0060020E0AB0000B496000070
:104484009EAB00000123024A8340C2F80435704702
:1044940000700150014B00201B681847E4060020FF
:1044A400014B1B68184700BFE4060020014B09209C
:1044B4001B681847E4060020014B08201B681847B6
:1044C400E406002010B5144C237913BB0123237197
:1044D400124B0028206018BF184600F0BDF8D0B970
:1044E40023680F48002B08BF184600F097F990B9CD
:1044F40023680C48002B08BF184600F003FA50B993
:1045040023680948002B08BF1846BDE8104000F096
:1045140015B96FF0770010BDE4060020994400003F
:10452400B1440000A5440000BD44000008B50C4B94
:104534001A794AB90B490C48B1230C4A03F081FD9E
:10454400B1210A4803F074FD1B6843B10520FDF74F
:10455400A7FD20B9BDE808400520FDF793BD08BDBF
:10456400E406002038AC0000B4960000F6AB00006E
:1045740008B5174B1B795BB9164940F20513164A67
:10458400164803F05EFD40F20511134803F050FD98
:10459400032813D8DFE800F002060A0EBDE808403D
:1045A40000F0C2B9BDE8084000F068B8BDE80840B2
:1045B40000F046B9BDE8084000F0CEB808494FF411
:1045C4009273054A054803F03CFD4FF49271DCE711
:1045D400E406002038AC0000F6AB0000B4960000FE
:1045E40085AE000008B5174B1B795BB9164940F23C
:1045F4002B13164A164803F024FD40F22B111348DE
:1046040003F016FD032813D8DFE800F006020A0EB3
:10461400BDE8084000F060B8BDE8084000F0DAB931
:10462400BDE8084000F03CB9BDE8084000F0C4B85B
:1046340008494FF4A573054A054803F002FD4FF4F9
:10464400A571DCE7E406002038AC0000F6AB0000FE
:10465400B496000085AE0000074B0246187938B9BD
:104664001A6001221A714FF05023C3F814257047C1
:104674006FF07700704700BFEC06002008B51249C0
:104684000B794BB9114912487723124A03F0D9FC2C
:104694007721104803F0CCFC4FF050230022C3F8DC
:1046A4000021D3F8002101221A60096811B1C3F86E
:1046B400042308BDD3F80021002AFBD00022C3F84C
:1046C4000021D3F80031F4E7EC06002038AC0000F8
:1046D400B496000056AC000008B5084B1B794BB9E2
:1046E400074908488923084A03F0ABFC8921064896
:1046F40003F09EFCBDE8084003F092BFEC060020E6
:1047040038AC0000B496000056AC00004FF05023C3
:10471400D3F80423D2070DD5D3F8002152B10022D7
:10472400C3F80021D3F800210122C3F80823024B67
:104734001B681847704700BFEC060020054B024673
:10474400187918B91A6001221A7170476FF077004E
:10475400704700BFF406002008B5134A13794BB91B
:10476400124913486123134A03F06BFC6121114879
:1047740003F05EFC4FF050230021C3F82011D3F85E
:10478400201101219961126822B14FF48072C3F89B
:10479400042308BDD3F82021002AFBD00022C3F84B
:1047A4002021D3F82031F4E7F406002038AC0000CF
:1047B400B49600009EAC000008B5084B1B794BB9B9
:1047C400074908487323084A03F03BFC7321064851
:1047D40003F02EFCBDE8084003F03EBFF4060020C1
:1047E40038AC0000B49600009EAC00004FF050239B
:1047F400D3F80423D2050ED5D3F820215AB10022D0
:10480400C3F82021D3F820214FF48072C3F8082381
:10481400014B1B6818477047F4060020074B0246FB
:10482400187938B91A6001221A714FF05023C3F86D
:10483400802570476FF07700704700BFFC060020AA
:1048440008B5134A13794BB9124913486723134A1D
:1048540003F0F7FB6721114803F0EAFB4FF0502304
:104864000021C3F82411D3F824110121196212681C
:1048740022B14FF40072C3F8042308BDD3F82421F5
:10488400002AFBD00022C3F82421D3F82431F4E712
:10489400FC06002038AC0000B4960000EBAC00002D
:1048A40008B5084B1B794BB9074908487923084ACE
:1048B40003F0C7FB7921064803F0BAFBBDE80840C2
:1048C40003F0E4BEFC06002038AC0000B4960000FF
:1048D400EBAC00004FF05023D3F8042392050ED51F
:1048E400D3F824215AB10022C3F82421D3F8242177
:1048F4004FF40072C3F80823014B1B681847704734
:10490400FC060020074B0246187938B91A600122C8
:104914001A714FF05023C3F8182570476FF07700D1
:10492400704700BF0407002010B5264C23794BB90B
:1049340025492648E523264A03F083FBE52124483C
:1049440003F076FB4FF05023D3F81814D3F818244F
:10495400C9031BD502F00302022A02D0012A12D194
:1049640001224FF05023C3F818250022C3F8042174
:10497400D3F8042101229A602268A2B9D3F8042151
:10498400002AFBD017E003F09BFEE9E7D3F81424D8
:10499400D207E5D5D3F81C2402F00302013A012A18
:1049A400F1D822681AB10222C3F8042310BDD3F847
:1049B4000421002AFBD00022C3F80421D3F80431D7
:1049C400F4E700BF0407002038AC0000B4960000F0
:1049D40037AD000008B5094B1B795BB90849094894
:1049E4004FF49173084A03F02CFB4FF4917106487D
:1049F40003F01EFBBDE8084003F062BE040700207C
:104A040038AC0000B496000037AD0000F8B54FF0A4
:104A1400502301250026D3F804431E4F04F08204DA
:104A240004B9F8BDB4FA84F0C0F11F00830003F5A3
:104A340080739BB203F1502305FA00F2196892B215
:104A440024EA02040029EBD01E601B684FF05023B7
:104A5400022AC3F8082311D1D3F81814D3F8181470
:104A640001F00301012903D03B68C0B29847D7E79E
:104A7400C3F81825C3F804239960D1E70649074809
:104A84004FF4F573064A03F0DCFA4FF4F571044869
:104A940003F0CEFA0407002085AE0000B4960000AF
:104AA40037AD0000034A4309D35C00F01F001844EB
:104AB400C0B270471EB8000010B504460846FFF7A0
:104AC400F1FF04EB4000838ADA051CD5C3F34321CC
:104AD40023F4F853838204F1120204F1720032F8D1
:104AE400023F13F4807F03D0C3F3432399420AD0D7
:104AF4009042F4D1002204EBC1035A6004F178001F
:104B040003F04BFD00B910BD054906484FF4DB73B3
:104B1400054A03F096FA4FF4DB71034803F088FA70
:104B240052A60000B49600007FAD000008B50268EC
:104B34000146104603F0DDFD58B910494FF4747373
:104B44000F4A104803F07DFA4FF474710C4803F0D7
:104B54006FFA02F01F0352090B600BD0012A0BD02D
:104B6400094940F2D933064A064803F06AFA40F28A
:104B7400D931EBE7054808BD0548FCE797A60000D6
:104B84005FA60000B496000085AE000000258450A6
:104B940000288450072808B50BD90849084840F272
:104BA400A733084A03F04DFA40F2A731054803F051
:104BB4003FFA800000F5807008BD00BFFCAD000026
:104BC400B4960000C2AD0000024611F0010010B519
:104BD4000BD18B07C1F340000DD50749086A50601B
:104BE4000862003818BF012005E0044C236A1360F2
:104BF4002362002BEDD010BD002884500025845082
:104C0400F7B504460846FFF74DFF04EB4006B38AA8
:104C14000D46DB072AD5204603F05DFE29462046D3
:104C240003F079FD50B1204603F0A4FD002327686A
:104C340007EB8000C0F81035C0F81035204600247A
:104C44002946FFF739FFB48201A80195FFF76EFFEB
:104C5400019B00EB8300D0F80022064B134043F085
:104C64000203C0F80032204603B0F0BD6FF0150017
:104C7400FAE700BFF0F0FCFF2DE9F0430E461746BB
:104C8400044685B058B95A495A4840F25E435A4AD4
:104C940003F0D7F940F25E41574803F0C9F90846DA
:104CA400FFF700FFD7F800800546B8F1000F19D0D0
:104CB400204603F054FD18BB4346CDE900008DF8AF
:104CC4000E008DF80F000DF10F0230460DF10E01AC
:104CD40003F079FD04EB4502938A23F0020343F0C9
:104CE400010393827B689BB33146204693F800808E
:104CF400D3F8049003F028FD28B1B9F1000F1FD0B8
:104D04006FF0150027E004EB4500838A23F4604329
:104D140023F020038382B9F1000F11D0B8F1030FFF
:104D2400EED87B6821685B6893F800C04FEA8C0377
:104D34001944B8F1000F11D1C1F81085C1F81085DC
:104D440004EB4502938A23F01C0343EA880393820D
:104D5400BB6843BB002005B0BDE8F083D1F8102543
:104D640022F00302C1F8102522681344D3F8102559
:104D740022F44F3222F44072C3F810253202D3F8E1
:104D8400101502F47C5242EA08420A43C3F8102583
:104D940004EB4C03A3F87C60838A43EA4C3343F06E
:104DA40020038382CCE73146D3E900782046FFF71D
:104DB40083FE002FCED063689F4206D004F17800B2
:104DC40003F0D1FB002804DAC5E7A3689845F5D1C0
:104DD400002004EBC003C3E9017804EB4505AB8A6A
:104DE400C0B243EA402343F48073AB82B2E700BF0E
:104DF40006AE0000B49600007FAD00002DE9FF412F
:104E04000C4616461F46054658B93C493C484FF4E3
:104E14008D633C4A03F015F94FF48D61394803F072
:104E240007F90846FFF73EFE804616B3284603F00E
:104E34008BFC18B9284603F06EFC08BB21462846B3
:104E440003F074FC10B17378012B19D001238DF891
:104E54000F300023721CCDE900632046B31C0DF112
:104E64000F0103F0B0FC05EB4802938A43F00303FF
:104E74009382002F3FD02146284603F065FC20B9D9
:104E84006FF0150004B0BDE8F08100223E782B6875
:104E940005EB480003EB8603C3F81025C3F810257F
:104EA400838A4FEA860C23F4604323F02003838231
:104EB400797801B32A68BF786244D2F810350904BE
:104EC40023F4991323F4F853C2F81035230201F4A0
:104ED400403103F47C530B433905D2F8105501F4E7
:104EE40080110B432B43C2F81035838A43EA4633BF
:104EF40043F0200383820020C4E700BF06AE000015
:104F0400B49600007FAD000008B558B907490848B9
:104F140040F27143074A03F094F840F271410548A6
:104F240003F086F8C0E9031208BD00BF06AE000016
:104F3400B49600007FAD000070B51546044658B91C
:104F4400134940F27A43134A134803F07AF840F2C3
:104F54007A41104803F06CF84AB9104940F22333FF
:104F64000C4A0D4803F06DF840F22331F1E703F0E9
:104F7400D2FB48B10846FFF795FD04EB400400203E
:104F8400A38A5B0B2B7070BD6FF01500FBE700BFAD
:104F940006AE00007FAD0000B496000011AE000024
:104FA400F8B5044658B9194919484FF49163194A98
:104FB40003F047F84FF49161164803F039F890F87C
:104FC4008C5090F88D70F5B960222946143003F0A6
:104FD40081FD114B266853F83770AF420ED100257E
:104FE40046F30730C6F87C51D6F87C31FDF74AF811
:104FF4000123284684F88C30A367F8BDE8B2FFF794
:10500400C9FD0135E9E76FF07700F6E706AE000069
:10501400B49600007FAD0000F090000008B558B9C8
:105024000849094840F28F43084A03F00AF840F25D
:105034008F41064802F0FCFF90F88C00003818BF3E
:10504400012008BD06AE0000B49600007FAD00004C
:1050540008B558B90749084840F29D43074A02F089
:10506400F0FF40F29D41054802F0E2FFBDE8084030
:10507400FFF7C6BD06AE0000B49600007FAD000089
:1050840008B558B90A490B4840F2A4430A4A02F049
:10509400D8FF40F2A441084802F0CAFF074B90F839
:1050A4008D0003EB8000BDE8084003F076BA00BF32
:1050B40006AE0000B49600007FAD0000BC000020E6
:1050C40010B50C4658B90C490C4840F2AB430C4A95
:1050D40002F0B7FF40F2AB41094802F0A9FF094BC7
:1050E40090F88D0003EB800003F03DFA0028A4BF84
:1050F4002070002010BD00BF06AE0000B496000072
:105104007FAD0000BC0000202DE9F3410D4616469A
:10511400044658B938494FF4A563384A384802F070
:1051240090FF4FF4A561354802F082FF03F0FEFAC8
:1051340048B9344940F23543304A314802F081FFDE
:1051440040F23541EFE7204603F0E5FA2768F8B16D
:10515400204603F0F9FA8046D0B9204603F00AFB52
:105164000546FFF717FD47F800803B58236803EB1B
:105174008503D3F8102542F00102C3F8102526B1A7
:1051840001232268AB40C2F8043302B0BDE8F081C9
:10519400D7F80433002BA4BF4FF00043C7F80433FF
:1051A4004EB9194940F24F43144A154802F049FFD9
:1051B40040F24F41B7E72846FFF774FC04EB400484
:1051C400A38AC3F38203042B11D0052B11D001A8A9
:1051D4000195FFF7ABFC019B0169D94001F0010186
:1051E4000231284602B0BDE8F04103F039BB032187
:1051F400F7E70221F5E700BF06AE00007FAD00002F
:10520400B49600001BAE00003CAE000008B558B9CF
:105214000749084840F22F53074A02F012FF40F2B0
:105224002F51054802F004FFBDE8084003F053BBCA
:1052340006AE0000B49600007FAD00002DE9F04FEB
:1052440007468DB058B97349734840F25C63734A9A
:1052540002F0F7FE40F25C61704802F0E9FE80461D
:1052640058F804AB90F88D40DAF804136C4BC9B2CB
:10527400504653F8342041F0004103F000FB051E72
:1052840039DA0023CDE90A33654BE60003EBC404A5
:1052940063680AA819460193FFF796FC331D04932B
:1052A4004FF0000B5F4B0DF128090393039A5C49FF
:1052B40012F8013B0392049A02EBD3028A5C03F0D6
:1052C400070322FA03F3DB071BD40BF10103022BC0
:1052D4004FF0010B09F10409E8D14FF0004100221D
:1052E400504603F0CCFA01990AA8FFF76DFC002898
:1052F400D6D125F000450124002D74D10DB0BDE8B0
:10530400F08F494B5B440593D9F800100029DCD099
:1053140091FAA1F1B1FA81F1059B1C7841EA441498
:105324002046FFF7BFFB07EB4000828AC808C2F3A0
:105334008203CDE906230293012319F8006001F0EA
:10534400070103FA01F126EA010109F8001009A88E
:105354000994FFF7EBFB0999069A803150F8216014
:1053640012F0100F079BC6F3014623D02146404696
:10537400029A03F009FA09A80994FFF7D7FB099BDD
:10538400F6B2803350F82330C3F301439E4207D171
:105394000021204603F064FA3146204603F060FA07
:1053A40009A80994FFF7C2FB0122099B02FA03F33F
:1053B4000362A9E7022E14BF0221032120460693AB
:1053C40003F04EFA069B032B03D0022E07D1012BC8
:1053D400E6D121464046029A03F0D6F9E0E7032ECF
:1053E400DED1022BF4E795FAA5F3B3FA83F304FABA
:1053F40003F225EA020503F5A2725AF8222007EB0C
:1054040043034046B3F87C10C2F3014203F0BCF9F5
:1054140072E700BF06AE0000B49600007FAD000046
:10542400F09000002EB800002EB8000038B5436993
:1054340005463BB90024EA686042537843F001030F
:10544400537038BD984704460028F3D000F1FF0399
:10545400FE2B0ED92123094A09490A4802F0F1FD1D
:1054640029680948224602F0ECFD2121034802F094
:10547400DFFDEB6844421C70DDE700BF47AE00006F
:105484006FAE0000B496000087AE000010B504466D
:105494004521034802F049FE204603F04DFA00BFBF
:1054A400ACAE0000F7B504460D46EFF31187202398
:1054B40083F31288BFF36F8F204A0428966898BF3D
:1054C4001F4B127C94BF53F820301E4B0092452191
:1054D40002461D4802F029FE3DB1EB69C3F30803FF
:1054E4001BB14521194802F020FE36B1304603F0C5
:1054F40043FA034608B1027802B9154B4521154811
:10550400324602F012FE29462046FFF7BFFF4DB196
:10551400EB69C3F308032BB187F31188BFF36F8FD3
:1055240003B0F0BD012CF7D087F31188BFF36F8F60
:10553400304603B0BDE8F040FCF770BE0C07002015
:1055440000910000C0AE0000D6AE000003AF000022
:10555400CEAE000029AF000038B50A4B53F8204006
:10556400013053F82050A54200D838BD606830B1EE
:10557400037EDB0701D4FFF759FF0834F3E7236800
:105584009847FAE714910000012270B53C4B86B0AD
:1055940003201A70FFF7E0FFFDF738FA03F074FAFE
:1055A400384C394DAC4214D10420FFF7D5FF374CA9
:1055B400374DAC4226462ED936494423364A37481D
:1055C40002F03FFD364802F03CFD4421324802F02F
:1055D4002FFD54F8043B002BE6D09847E2E754F83B
:1055E4000C3C059354F8103C049354F8143C039376
:1055F40054F8183C029354F81C3C019354F8203C92
:10560400009354E90A2354E90C0100F0F7FB54F821
:10561400303C5E65CDE7AE4204F13004DFD301F0E7
:105624004DF81A4CAC421FD91A4968231A4A1B4830
:1056340002F007FD1A4802F004FD6821C6E7D4E928
:105644000A23B3F1FF3F08BFB2F1FF3F05D052EA8E
:105654000301206803D101F09DFA3034E2E71149D7
:10566400183001F067FEF8E7E9D301F099F8FDF787
:1056740013FD0D4A938923F00103938106B070BD95
:1056840057070020608F0000608F0000B48E000078
:10569400B48E0000B6AF000090AF0000B4960000D6
:1056A400E3AF000049630000C0030020A82370B5E5
:1056B400144E86B003FB0066134B012205930F239F
:1056C400CDE903320023CDE9013314234FF4A07252
:1056D4000E4D0F4903FB0055044602FB00110D4B10
:1056E4003046009500F08AFB337C2C7423F00403CD
:1056F4003374094B013403EBC423EE606B6006B0D2
:1057040070BD00BF1803002002B000000C07002089
:10571400603F002035580000603700207FB500202E
:10572400FFF71AFF344B03F5006282F3088883F312
:105734000A88E023314C84F822300023E37723766F
:105744006376A37684F82030626A42F4E0226262CF
:1057540084F82330FCF74EFCFCF74AFD4FF0FF338E
:10576400A362E362FCF772FFFCF7C6FD244800F075
:1057740001FC244B244A93420ED92449CC23244AC5
:10578400244802F05EFC244802F05BFCCC21204853
:1057940002F04EFC1C33EEE7FCD3FDF707F90120C1
:1057A400FFF7DAFE02201D4CFFF7D6FE01F06AF87F
:1057B4001B4B00255C611B4B0122059309231A49ED
:1057C400CDE9033220464FF40062184BCDE9015570
:1057D400009500F013FB0646237C204623F00403C7
:1057E400237400F069FD2846FFF760FF3146204628
:1057F4000E4AFCF7DBFC00BF6037002000ED00E040
:10580400680400201C8C00008C8C000007B0000091
:1058140090AF0000B4960000E3AF0000C003002086
:105824000C07002060950000A04000208D5500006A
:1058340008B50D4B9B6893F90E30002B09DB20242F
:10584400EFF3118384F31288BFF36F8F02F0DCFC53
:10585400F6E7064906481C23064A02F0F2FB1C211F
:10586400044802F0E5FB00BF0C07002045B000002F
:10587400B49600001FB000002DE9F341044617461A
:105884001E46EFF3058565B154497323544A5548C0
:1058940002F0D7FB544802F0D4FB7321504802F0C5
:1058A400C7FBEFF31188202383F31288BFF36F8FB4
:1058B4004E4801F0E5FC60B984234D4A4D494948FE
:1058C40002F0BFFB49494C4802F0BBFB8421484825
:1058D400E5E7464801F0F8FC484BE2689B6892B162
:1058E400A068984227D057EA06022CD13F4801F01D
:1058F400D5FC90B188F31188BFF36F8F6FF00F0060
:1059040002B0BDE8F08193F90E100132C4E902320D
:105914003648216101F0C2FC78B94FF49973344AD6
:105924003749304802F08DFB3049364802F089FB94
:105934004FF49971CBE72169E7E788F31188BFF346
:105944006F8F0020DCE793F90E1090F90E30994226
:1059540005DA9942A8BF194602F0F6FF0546224629
:105964004146CDE90076214800F034FD0028E8D016
:10597400EFF31186202383F31288BFF36F8F1B4844
:1059840001F07EFC002897D0184801F09DFCA06827
:10599400C0B1236821699C420AD04BB193F90E30FF
:1059A4009942A8BF19466FF07F039942B8BF1946C0
:1059B40002F0CAFF30B131460C4803F021F86FF011
:1059C4000A009DE7002DF6D1084801F067FC002885
:1059D400A3D086F31188BFF36F8FF0E794B0000073
:1059E4006DB00000B4960000A6B000002C070020A3
:1059F40095970000C7970000DC9700000C07002073
:105A0400F297000009980000F8B50546EFF3058306
:105A140063B15649EA23564A564802F012FB5648E7
:105A240002F00FFBEA21524802F002FB8368002BCC
:105A340000F09580514A9268934240F09380C36885
:105A44004BB94F494FF48173494A4A4802F0F9FA75
:105A54004FF48171E7E7012B03D0013BC3600020C1
:105A6400F8BDEFF31187202484F31288BFF36F8FFE
:105A7400444801F005FC60B98423434A43493D4846
:105A840002F0DFFA3F49424802F0DBFA84213E4843
:105A9400CAE73C4801F018FC2969A86802F054FFE1
:105AA400EFF3118384F31288BFF36F8F83F31188AC
:105AB400BFF36F8F5BB93749BB23374A2D4802F0D8
:105AC400C0FA364802F0BDFABB213348ACE72C6873
:105AD400AC4215D100232B48C5E9023301F0DEFBAB
