:10000000B0370020012F00006BB80000ED2E00007B
:10001000ED2E0000ED2E0000ED2E0000ED2E000074
:10002000000000000000000000000000392F000068
:10003000ED2E00000000000041310000ED2E000018
:10004000DD310000DD310000DD310000DD31000078
:10005000DD310000DD310000DD310000DD31000068
:10006000DD310000DD310000DD310000DD31000058
:10007000DD310000DD310000DD310000DD31000048
:10008000DD310000DD310000DD310000DD31000038
:10009000DD310000DD310000DD310000DD31000028
:1000A000DD310000DD310000DD310000DD31000018
:1000B000DD310000DD310000DD310000DD31000008
:1000C000DD310000DD310000DD310000DD310000F8
:1000D000DD310000DD310000DD310000DD310000E8
:1000E000DD310000DD310000DD310000DD310000D8
:1000F000DD310000DD310000DD310000DD310000C8
:10010000DD310000DD310000DD310000DD310000B7
:10011000DD310000DD310000DD310000DD310000A7
:10012000DD310000DD310000DD310000DD31000097
:10013000DD310000DD310000DD310000DD31000087
:10014000DD310000DD310000DD310000DD31000077
:04015000DD3100009D
:1001540080EA010C1CF0030F37D110F0030C20F0DF
:10016400030021F0030150F8042B08BF51F8043BAD
:100174000ED08CF0030C6FF07F434FEACC0C23FAC3
:100184000CFC51F8043B42EA0C0243EA0C0300BFA6
:10019400A2F1013C9A4201BF2CEA020C1CF0803F00
:1001A40050F8042B51F8043BF2D04FEA02604FEAB6
:1001B4001222012828BFB0EB036F08BF1B0AF4D03A
:1001C40003F0FF03000EC01A704710F0030F0AD0AB
:1001D40010F8012B11F8013B012A28BF9A42F4D0F0
:1001E400A2EB030070474DF8045D50F8042B01F0B6
:1001F400030521F0030151F8043B022D26D04DD80C
:1002040022F07F45B5EB132FA2F1013C2CEA020C3E
:100214000DD11CF0803C08BF51F8043B0AD185EA9B
:100224000205B5EB036F0CD150F8042BE8E74FEA55
:1002340013235BE03CF07F4C54D10B784FEA1265FA
:1002440054E04FEA126503F0FF034FE04FEA024522
:10025400A2F1013C4FEA15452CEA020CB5EB134F11
:1002640018D11CF0803C08BF51F8043B07D185EA43
:100274000205B5EB034F09D150F8042BE6E75FEA1A
:100284000C4C2FD10B884FEA12452FE04FEA034361
:100294004FEA12454FEA134328E000BF02F0FF057E
:1002A400B5EB136FA2F1013C2CEA020C0DD11CF04A
:1002B400803C08BF51F8043B0AD185EA0205B5EB3E
:1002C400032F0AD150F8042BE8E74FEA13630DE03B
:1002D40012F0FF0F06D051F8043B4FEA122523F029
:1002E4007F4303E04FF0000020BC704705F0FF029D
:1002F40003F0FF00012828BF904204BF2D0A1B0A07
:10030400F4D0A2EB000020BC704700BF844641EA51
:10031400000313F0030349D1403A23D30B6803606D
:100324004B6843608B688360CB68C3600B6903616F
:100334004B6943618B698361CB69C3610B6A036257
:100344004B6A43628B6A8362CB6AC3620B6B03633F
:100354004B6B43638B6B8363CB6BC3634030403124
:10036400403ADBD230320BD30B6803604B684360F6
:100374008B688360CB68C36010301031103AF3D2BD
:100384000C3205D351F8043B40F8043B043AF9D24B
:10039400043208D0D2071CBF11F8013B00F8013B1E
:1003A40001D30B8803806046704700BF082A13D32B
:1003B4008B07B1D010F00303AED0C3F10403D21AFB
:1003C400DB071CBF11F8013B00F8013BA4D331F853
:1003D400023B20F8023B9FE7043AD9D3013A11F8D3
:1003E400013B00F8013BF9D20B7803704B78437062
:1003F4008B7883706046704753B94AB9002908BFA7
:1004040000281CBF4FF0FF314FF0FF3000F05ABD01
:10041400ADF1080C6DE904CE00F056FDDDF804E002
:10042400DDE9022304B0704703685A004CBF43F06F
:10043400004323F00043184470472DE9F047054674
:10044400164621B34F1E4FF00009B84609EB0804C5
:1004540004EBD474641005EBC4014FEAC40A0846E3
:10046400FFF7E2FFA74215D0B04204D9A1450DD051
:1004740004F1FF38EAE70AF108002844FFF7D4FF43
:100484000138B04203D204F10109DFE70021084634
:10049400BDE8F087B042E9D8F9E7012806D0022880
:1004A40006D00028034818BF002070470248704750
:1004B40002487047D90A0000DD0A0000E10A000082
:1004C4001F4B37B504468D1E4BB101A92846AFF327
:1004D400008048B900230920236103B030BD1948C6
:1004E400194B1B1ADB10019301992A46FFF7A5FF4C
:1004F40001460028EED0FFF797FFA0644B68012B5C
:100504001BD0002B01F104000EDA0123C4E913030C
:100514000368002B0CDAC3F30360FFF7BEFF031E6E
:100524000CBF09200020D7E7FFF77EFF0023EDE78B
:10053400FFF77AFF03460020CEE700230520CBE730
:10054400000000001CDC00006CDE0000036810B535
:100554000446D80706D413F0020F04F1500018D053
:1005640000F0EEFB2368590703D404F1D80000F02F
:10057400EFFB23681A0703D404F5AC7000F0F0FB1A
:100584002368DB0608D404F5EC70BDE8104000F0E5
:100594002BBC00F0CDFBE5E710BD0346006800B1BD
:1005A40018447047704770B505460C46216C2846C0
:1005B400FFF786FF064608B103F094F9236C224640
:1005C400294601206B612B6998470828EED007283B
:1005D400F2D13046216CFFF7E5FF201D00F09CFBB3
:1005E4002DE9F04F0C1DADF5777DD0F80C90074642
:1005F400D0F818A0164603AD0DF108080DF5F87BE8
:100604000FCC0FC50FCC0FC50FCC0FC594E80F004E
:1006140085E80F000025C8F800500936D8F84010C6
:100624003846FFF74DFF0446F6B270BBD8F84030A9
:100634004FF4F472414658467B61FFF767FE3B690D
:100644005A46394630469847DBF838300546C8F8EC
:1006540048303A463B4631460120CDE9008AC84736
:10066400C0B9C4B94FF4F472594640462646FFF760
:100674004DFE082DD1D0072D0CD12046D8F84010BE
:10068400FFF790FF03A800F047FB46F01006D8F8E8
:100694003830DCE7092420460DF5777DBDE8F08F7E
:1006A400806C70472DE9F041CB6BFAB00D1D064606
:1006B4000B640F4601ACE8460FCD0FC40FCD0FC439
:1006C4000FCD0FC495E80F0084E80F004FF0FF33FF
:1006D4000093D8F840103046FFF7F2FE78B933693A
:1006E40042463146984708280446F2D04046FFF770
:1006F4002DFF062C03D139463046FFF754FF09205D
:100704007AB0BDE8F08110B4C16019468261DA6B39
:1007140010BC1A64002263E7436970B50B64044695
:10072400C6680D4626B10122FFF75AFF03F0DAF836
:1007340003690A46014602209847072805D008287D
:10074400F4D129462046FFF72EFF3046296CFFF7E7
:1007540029FF281D00F0E0FAC26808B52AB1CA6B67
:10076400BDE808400A6400223AE7FFF79BFF09202E
:1007740008BD7047836801460BB1012018477047D4
:1007840030B5039C052911D8DFE801F005031003F7
:10079400030E012030BD4BB90F2A07D800EB8200AD
:1007A400436800202360F5E7436CFAE70220F1E791
:1007B4001FB503AB0A46009300231946FFF7E0FF79
:1007C400039805B05DF804FB30B5039C052912D8E5
:1007D400DFE801F005031103030E012030BD53B916
:1007E4000F2A08D8236800EB820043600020F5E755
:1007F40023684364FAE70220F0E71FB503AB0392D2
:100804000A46009300231946FFF7DEFF05B05DF8A2
:1008140004FB2DE9F041D36BADF5107D141D0746A3
:100824001364884617AD16AE0FCC0FC50FCC0FC599
:100834000FCC0FC594E80F006C4685E80F004FF00D
:10084400FF333360316C2046FFF73AFE90B90C2138
:1008540030462246FFF7D1FF41463046B84748B9F3
:10086400236932462146082098470528054602D0C8
:100874000928E7D109253046FFF768FE28460DF51B
:10088400107DBDE8F0812DE9F04FCD6C87B017469F
:100894000C4655F8042B00F003099A46049553BB03
:1008A40012028DF8153003230392B9F1020F8DF86B
:1008B4001430236D08BFA56B13F0010840F00081CC
:1008C40000F0080300932B68FBB903A9384600F035
:1008D4007DFC002840F0F780B8F1000F00F0F580AF
:1008E4000F213846FFF764FF0E2102463846FFF712
:1008F40084FF774A4AE0130C12048DF81530DBB2FA
:10090400039205EB83050223CFE7BAF1020FA26C31
:100914004FF00F01384607BFD5F804B005F10806BB
:10092400B5F802B02E1D18BF2B882BF001050193DA
:100934001544FFF73DFF019B854229D823F00102AE
:100944002A44824294BF002201224FEA4B0003F062
:10095400010300F0020040EA0305012D1AD0022D24
:1009640060D0002D40F0AF80351DB9F1000FAAD042
:10097400002AA8D03046FFF757FDA5630646204657
:100984000CF006FD002800F09E8032460F213FE067
:100994000022DAE7B9F1000F26D1002A3FD07368AC
:1009A4003268991C4FEAD27200F08D8004F158012C
:1009B4000133029109D0301DFFF7EFFD02AB014670
:1009C400204608F0BDFD054648B30D213846FFF723
:1009D400EFFE022D029B206202D1E36204F12C039C
:1009E4000620C4E9093617E0256A0D213846FFF7C9
:1009F400DFFE854213D1A36A9E4210D13046FFF731
:100A040013FD0F2102463846FFF7F7FE2246002168
:100A14003846FFF7F2FE072007B0BDE8F08F06F175
:100A2400080550E7356825F00045B9F1000F2AD1D3
:100A34009AB1009BCBB185B9CB4618E00BF1010B01
:100A4400019B002206EB8B000293FFF7A6FD02AB8D
:100A54000146204608F074FD60B13368002B00DACB
:100A64000436013506EB85052DE7DDF800B004F109
:100A740058030193AB45E1D10D213846FFF798FEA9
:100A8400029B2062ACE7D4F820B00D213846FFF772
:100A94008FFE8345E1D1A36A9E42DED14FF0000868
:100AA4000423A562C4E90B83F318636333684345E5
:100AB40003DA681C06EB8000A1E74FF00108D0E7D9
:100AC4004FF0000801E70920A6E70820A4E700BFCB
:100AD400CD9C00000023D6E60123D4E60223D2E60F
:100AE4002DE9F0410446C2B015461E4605292AD810
:100AF400DFE801F003202983AD1A26BB836B92B291
:100B04000121043001FA06F717421CBF53F8047B95
:100B140040F826700136102EF4D1A90400D4A36342
:100B2400002042B0BDE8F081836B62B953F8042B16
:100B34004264F4E7012E4FEA124895B205D108EB5E
:100B44000503102B19D90220EBE7052EFBD108EB86
:100B54000507202FF7D8B8F10F0F40F29F8075B327
:100B64002F462368580740F1A48023F0040320464D
:100B740040F8D83B00F0F0F89BE0B8F1100FE2D059
:100B840000278FE0052E04F1500007D123F0010364
:100B940043F00203236000F0D7F887E023F0030357
:100BA400236000F0C9F881E0B8F10F0F02D820A843
:100BB40000F0CAF81FB1684600F0CEF882E00027C2
:100BC40082E020AA690002EBC802A3EB020C0139FF
:100BD40002EB0C0002D203EBC5057AE0006842F890
:100BE400040BF4E751F8040B43F8040F7DE00435DB
:100BF40020A8A56300F09CF892E7032EA3D197B236
:100C0400160C07EB1245102D9DD80368190706D55D
:100C140023F00803036000F5AC7000F0C3F820ADC6
:100C2400284600F0BFF8A26B05EBC6037900D61A7C
:100C3400013903EB060006D202EBC7022846A26381
:100C440000F08EF86CE7006843F8040BF0E7002E20
:100C54007FF479AF102A3FF676AF0368DA0606D53B
:100C640023F01003036000F5EC7000F0C7F820AE29
:100C7400304600F0C3F8A36B0022012101FA02F010
:100C840028421CBF53F8040B46F822000132042A00
:100C9400F4D13046A36300F0A7F841E7102F7FF6A4
:100CA4006FAF103F2368DA073FF56CAF002F7FF476
:100CB40058AF012E7FF478AF20A800F03DF8002F44
:100CC4003FF47DAFC8F11005002DA36B3FF779AF5A
:100CD4001D467FB1434642A97A00102B38BF10232A
:100CE40001EBC3032946A3F5C673013ABFF47AAFF7
:100CF40005EBC705012E3FF47AAFB8F10F0FA563DA
:100D040002D820A800F01CF8002F3FF409AF684671
:100D140000F01EF804E700BF00F1340191E8380048
:100D24009C46A6464CF8045D90E8FF0FE54600BDDE
:100D340090EC210B704700BF80EC210B704700BF83
:100D440090EC200B704700BF80EC200B704700BF75
:100D5400D0EC200B704700BFC0EC200B704700BFE5
:100D6400F0EC0201F0EC0211F0EC0221F0EC0231A3
:100D7400F0EC0241F0EC0251F0EC0261F0EC027193
:100D8400F0EC0281F0EC0291F0EC02A1F0EC02B183
:100D9400F0EC02C1F0EC02D1F0EC02E1F0EC02F173
:100DA400704700BFE0EC0201E0EC0211E0EC02212C
:100DB400E0EC0231E0EC0241E0EC0251E0EC0261D3
:100DC400E0EC0271E0EC0281E0EC0291E0EC02A1C3
:100DD400E0EC02B1E0EC02C1E0EC02D1E0EC02E1B3
:100DE400E0EC02F1704700BFB0FC0181B0FC01915E
:100DF400B0FC01A1B0FC01B1704700BFA0FC0181AF
:100E0400A0FC0191A0FC01A1A0FC01B1704700BFAE
:100E1400EC4600B52DE900502DE9FF1F4FF000030B
:100E24002DE90C0001A9FFF73DFCDDF840E012B00C
:100E3400704700BFEC4600B52DE900502DE9FF1FB7
:100E44004FF000032DE90C0001A9FFF765FCDDF864
:100E540040E012B0704700BFEC4600B52DE90050E9
:100E64002DE9FF1F4FF000032DE90C0001A9FFF746
:100E740073FCDDF840E012B0704700BFEC4600B5EB
:100E84002DE900502DE9FF1F4FF000032DE90C0060
:100E940001ABFFF738FCDDF840E012B0704700BF4B
:100EA400EC4600B52DE900502DE9FF1F4FF000037B
:100EB4002DE90C0001AAFFF7ACFCDDF840E012B00C
:100EC400704700BF704700BF2DE9F0478C468E463F
:100ED400089E154604461946002B40F0D080724502
:100EE40047D9B2FA82F74FB1C7F120030EFA07FCD3
:100EF400BD40BC4020FA03F343EA0C0C4FEA154E04
:100F0400A8B2230CBCFBFEF80EFB18CC08FB00F9BE
:100F140043EA0C43994528D9EB1808F1FF3204D26F
:100F2400994502D9A8F102022B44A3EB0903A4B208
:100F3400B3FBFEFC0EFB1C330CFB00F044EA034441
:100F4400A04214D92C190CF1FF3304D2A04202D9C7
:100F5400ACF102032C44241A43EA02401EB1FC40C3
:100F6400002334607360BDE8F0874246DDE76346E2
:100F7400F1E7002A79D0B2FA82F3002B3FD0194668
:100F8400C1F1200302FA01F500FA01F42EFA03F28A
:100F94000EFA01FE20FA03F3AFB243EA0E034FEA5E
:100FA400154EB2FBFEFC0EFB1C201A0C0CFB07F8C2
:100FB40042EA004290455AD9AA180CF1FF3004D2F3
:100FC400904502D9ACF102002A44A2EB08029BB27C
:100FD400B2FBFEFC0EFB1C220CFB07F743EA0243A8
:100FE4009F4246D9EB180CF1FF3204D29F4202D93A
:100FF400ACF102022B44DB1B42EA004202E0AEEBFE
:10100400020301224FEA154EAFB2200CB3FBFEFCE3
:101014000EFB1C330CFB07F840EA034398452AD91E
:10102400EB180CF1FF3004D2984502D9ACF1020060
:101034002B44A3EB0803A4B2B3FBFEFC0EFB1C334E
:101044000CFB07F744EA0344A74216D92C190CF108
:10105400FF3304D2A74202D9ACF102032C44E41BAF
:1010640043EA00400F46114678E71F2188E76046AF
:10107400ABE76246BFE76046DBE76346EFE77345ED
:1010840006D916B9002108466DE7C6E9000EF9E74E
:10109400B3FA83F787B9734501D3824207D8841A18
:1010A4006EEB030301209C461EB900215BE7384622
:1010B400FAE7C6E9004CF8E7C7F1200CBB4000FA98
:1010C40007F422FA0CF520FA0CF1BA401D432EFA6B
:1010D4000CF30EFA07FE4FEA154941EA0E011FFA16
:1010E40085FEB3FBF9F809FB18300B0C08FB0EFA6C
:1010F40043EA00439A4540D9EB1808F1FF3004D283
:101104009A4502D9A8F102002B44A3EB0A0389B241
:10111400B3FBF9F809FB183308FB0EFE41EA03415F
:101124008E452CD9691808F1FF3304D28E4502D9B3
:10113400A8F10203294443EA0040A1EB0E01A0FBFD
:1011440002984145CE46434602D306D14C4504D2CB
:101154000138B9EB020E68EB0503002EA5D0B4EB01
:101164000E0261EB030101FA0CFC22FA07F3F940C9
:101174004CEA0303C6E9003197E74046C5E7434616
:10118400D9E7027A03467AB9427A82B1013A4272C5
:101194004268111D12680260032241601A721A68C3
:1011A400100E12021A607047013AD2B2F6E7B0206C
:1011B40070471FB503AB0C22009300231946FFF7B9
:1011C400DFFA039805B05DF804FBF2E72DE9F0437C
:1011D400054685B00E4600273046FFF7D2FFB028FB
:1011E400044613D177B902AC3B460E223946284651
:1011F4000094FFF7C5FA3B460F223946284600946F
:10120400FFF7E2FA002005B0BDE8F08301061FD421
:101214004FEA800800230DF108090D225FFA88F8CF
:1012240019462846CDF80090FFF7AAFA08F10408F9
:10123400029B6206CDF800904CBFA3EB0803434425
:10124400029300230D2219462846FFF7BDFAC3E78F
:1012540000F0F003802B16D104023046FFF791FF13
:101264000443B4F5004F01D10920CCE72401002345
:101274002846A2B21946FFF733FC0028F4D1C4F380
:10128400C0342743A8E7902B11D100F00D030D2B98
:10129400EAD00DF10808002300F00F022846194691
:1012A400CDF80080FFF76CFACDF80080C9E7A02BD9
:1012B4000ED1C3434FF47F6203F007031A410307BF
:1012C40002F47F6201D542F480420023194647E0CC
:1012D400B02B61D1A0F1B103042B51D8DFE803F0A6
:1012E400030C313D47003046FFF74BFF431E0246D7
:1012F400DBB20E2BE9D9B7E7002302AC0D22284656
:10130400194600944FF00208FFF73AFA3046FFF707
:1013140038FF10F08003029A07D100FA08F002F5B2
:1013240001720094024402928CE700F07F0000FAFC
:1013340008F008F10708104402903046FFF721FF37
:10134400E7E73046FFF71DFF0123020300F00F001B
:1013540002F4702201300243B8E7002305211A4643
:101364002846FFF7BDFB00283FF436AF7CE703AB0C
:101374000D222846009300231946FFF701FA2BE7B4
:1013840000F0FC03B42B3FF46FAF00F0070201231D
:10139400013242F4002299E7C02B44D1C6280AD175
:1013A4003046FFF7EEFE0323020300F00F0002F4C1
:1013B40070220130CFE7C7280BD13046FFF7E1FE9A
:1013C400431E0246DBB20E2B3FF64EAF0023042130
:1013D400C6E700F0F803C02B06D100F00F02032388
:1013E400013242F4202271E7C8280DD13046FFF7BC
:1013F400C8FE00F0F00200F00F00052310320130A7
:1014040040EA02320121ABE7C9287FF42DAF304610
:10141400FFF7B7FE0523020300F00F0002F4702269
:1014240001300243EEE700F0F803D02B7FF41CAF49
:1014340000F007020523013242F40022E2E71FB55F
:1014440003460846DA6C53680832190202921B0EEE
:101454000322019101A98DF80C208DF80D30FFF7BE
:10146400B5FE05B05DF804FB08B5FFF7AEFE806C71
:1014740008BD08B5FFF7A9FEC06CC37900EB830073
:10148400083008BD024A0260024A0260704700BF89
:10149400C4100100A810010010B500F10C04054BA4
:1014A400994203D0084607F025FF08B1204610BD35
:1014B4000024FBE7D8100100054BD3E8EF1F0139E6
:1014C400C3E8E21F002AF8D10023C360704700BFBD
:1014D4005404002010B50446044B0360044B03601D
:1014E40010210BF0A0FE204610BD00BFC410010067
:1014F400A810010070B584B0054610B1284604B0A8
:1015040070BD0E461C460AAB039310460AF05DFB01
:1015140001460096089B224606480AF097F803996C
:10152400099800F0ABFD04480AF090F802F0E0FDE1
:10153400E4E700BF78E2000048F60000F0B583B0AD
:101544002D4BD3E8AF0F2D4B01932D4B00938423E8
:101554002C4A2D49B0FA80F04009FFF7CBFF042054
:1015640007F052FE044648B121230360224BD3E81E
:10157400EF1F0131C3E8E21F002AF8D11E4BD3E864
:10158400AF0F204D1D4F01971D4E009687232A460D
:101594001E49012814BF00200120FFF7ABFF20687B
:1015A4000197009688232A461949212814BF002050
:1015B4000120FFF79FFF6CB10F4BD3E8EF1F0139F8
:1015C400C3E8E21F002AF8D1002323600421204647
:1015D4000BF029FE084BD3E8AF0F084B0193084BDF
:1015E40000938D23074A0849B0FA80F04009FFF7B9
:1015F40081FF03B0F0BD00BF5404002020F60000BA
:10160400F8E20000A0E20000D0E2000014E30000D1
:101614003CE3000010B50446042007F0F5FD034642
:1016240048B121220260064AD2E8EF0F0130C2E835
:10163400E10F0029F8D1002222602360204610BD6A
:101644005404002079B108B50846074BD3E8EF1FCE
:101654000139C3E8E21F002AF8D100230360042102
:101664000BF0E1FD08BD7047540400202DE9F0475C
:1016740084B0384FD7E8AF0F374CDFF8E080384EEE
:101684000196384D00956C2322464146B0FA80F00D
:101694004009FFF72FFF0DF108094846FFF7BAFF8D
:1016A400D7E8AF0FDFF8C0A001960095702322465B
:1016B4005146012814BF00200120FFF71BFF029BA5
:1016C400186801960095712322462849212814BFE1
:1016D40000200120FFF70EFF029B039300230293D7
:1016E400D7E8AF0F0196009577232246514601288B
:1016F40014BF00200120FFF7FDFE0298019600951B
:10170400782322461A49B0FA80F04009FFF7F2FE26
:10171400039B1868019600957923224615492128D0
:1017240014BF00200120FFF7E5FE03A809F073FDB4
:10173400484609F070FDD7E8AF0F019600957D2368
:1017440022464146B0FA80F04009FFF7D3FE04B0C8
:10175400BDE8F08754040020A0E20000D0E20000BD
:1017640020F600006CE3000014E3000088E30000AE
:10177400BCE30000E4E3000000B585B003AB0193D3
:101784000290054B0360054B036001A809F05BFD63
:1017940005B05DF804FB00BFC4100100A8100100EF
:1017A40048B121220260044BD3E8EF1F0131C3E8A2
:1017B400E21F002AF8D170475404002070B584B0A9
:1017C40005460E4601A902A809F033FD039C54B155
:1017D4000A4B236001236360A3602046084B40F852
:1017E4000C3BFFF7DDFF002303932C600C343460C3
:1017F40002A809F028FD284604B070BDA810010015
:10180400C4100100F0B587B0214FD7E8AF0F214CC9
:10181400214E0196214D0095392322462049B0FAE4
:1018240080F04009FFF766FE03A904A809F014FD3F
:10183400D7E8AF0F019600953E23224619490128A7
:1018440014BF00200120FFF755FE049B1868019681
:1018540000953F2322461449212814BF002001206B
:10186400FFF748FE059808B109F09AFC084BD3E845
:10187400AF0F094B0193094B00934323054A0849D1
:10188400B0FA80F04009FFF735FE07B0F0BD00BFA5
:1018940054040020A0E2000020F6000018E4000038
:1018A400D0E2000014E3000040E400002DE9F04120
:1018B4008AB0002306930793424FD7E8AF0F424CF8
:1018C400424E0196424D00954E2322464149B0FABC
:1018D40080F04009FFF70EFE03A904A809F0BCFC40
:1018E400D7E8AF0FDFF8F080019600955323224626
:1018F4004146012814BF00200120FFF7FBFD049B93
:10190400069305A907A809F05EFCD7E8AF0F019676
:101914000095592322464146012814BF0020012086
:10192400FFF7E8FD069B1868019600955A232246A6
:101934002A49212814BF00200120FFF7DBFD01966E
:1019440000955B2322462649049C0698844214BFD2
:1019540000200120FFF7CEFD059808B109F020FC16
:10196400184BD3E8AF0F194B0193194B00935F2326
:10197400154A1949012814BF00200120FFF7BAFDB8
:1019840000230893099308A906A809F02DFC0998D7
:1019940008B109F005FC0B4BD3E8AF0F0B4B0193D7
:1019A4000B4B00936423084A0A49B0FA80F04009BB
:1019B400FFF7A0FD079808B109F0F2FB0AB0BDE8F3
:1019C400F08100BF54040020A0E2000020F60000D3
:1019D40074E40000D0E2000014E3000094E400008A
:1019E400C8E4000010B500EBC1038268B2F5004FF3
:1019F4001AD35B6813F0010F09D101EB5303B2F55D
:101A0400004F13D350F833401B1B8B4211D0452198
:101A1400134809F0F6FE002383F31188BFF36F8F98
:101A24000423184602DF10BD5B88E3E730F8334037
:101A3400EAE7B2F5004F0DD350F83130CB1A00EB82
:101A4400C300B2F5004F08D3426803EB52038B4244
:101A5400DDD1E8E730F83130F0E74288F5E700BF40
:101A640060E500002DE9F0410446154600EBC10293
:101A74008368B3F5004F34D3D6688E4233D0B3F5C0
:101A8400004F3CD3976804EBC708B3F5004F38D335
:101A9400D8F80C208A4207D104EBC602B3F5004FF4
:101AA40032D393688B420BD045211B4809F0A9FE21
:101AB400002383F31188BFF36F8F0423184602DFDA
:101AC400043544F82560A368B3F5004F1ED3C8F865
:101AD4000C6004EBC603A268B2F5004F19D39F60F3
:101AE4000BE0D688C9E7E3680122AA4023EA02038F
:101AF400E3600435002344F82530BDE8F08197887D
:101B0400C1E7B8F80620C5E79388CBE7A8F80660D4
:101B1400DFE79F80F1E700BF8CE500002DE9F84383
:101B240004460D46131D50F82360CEB9C368012145
:101B340091400B43C360043240F8225000EBC503CC
:101B44008268B2F5004F07D39D60A268B2F5004FDA
:101B540004D3DD60BDE8F8839D80F6E7DD80F9E716
:101B640000EBC6078368B3F5004F23D3D7F808907A
:101B740004EBC908B3F5004F1FD3D8F80C309E42CC
:101B84001ED104EBC503A268B2F5004F25D3C3F8F8
:101B94000890A268B2F5004F22D3DE60A368B3F5C3
:101BA400004F1FD3C8F80C50A368B3F5004F1CD3E3
:101BB400BD60CFE7B7F80490DAE7B8F80630DEE79F
:101BC40045210B4809F01DFE002383F31188BFF360
:101BD4006F8F0423184602DFD3E7A3F80490D8E7F5
:101BE400DE80DBE7A8F80650DEE7BD80B2E700BF81
:101BF4008CE50000002970D0F8B50E46056828462B
:101C040009F0DCFB044605EBC007AB68B3F5004FF5
:101C14002DD37B6813F0010F2BD0AA68B2F5004FC7
:101C240035D37B6804EB5303B2F5004F31D355F839
:101C340033209B1AA3422FD1AA68B2F5004F39D39F
:101C440055F83430E31A05EBC301B2F5004F34D331
:101C54004A6803EB5203A34231D1002221462846AD
:101C640009F00FFB2146284609F0FBFBF8BD7B88F1
:101C7400D0E732464521194809F0C3FD002383F318
:101C84001188BFF36F8F0423184602DFC5E77B88F2
:101C9400C8E735F83320CCE732464521104809F02F
:101CA400B0FD002383F31188BFF36F8F042318461C
:101CB40002DFC1E735F83430C4E74A88C9E7324661
:101CC4004521084809F09DFD002383F31188BFF3E3
:101CD4006F8F0423184602DFBFE7704740E6000019
:101CE400E4E5000014E600002DE9F0410D46144639
:101CF40006684B4203EA010731EA030357D0CD1BC0
:101D0400B368B3F5004F50D30823BB4228BF3B460A
:101D14006A1E2A425BD1002C00F08180EB1AD9089C
:101D240001EBD40104F0070203F007031344B26883
:101D3400B2F5004F5BD308200344073301EBD30112
:101D4400914228BF1146304609F0DCFB804600284A
:101D540067D00146304609F0B0FAC3192B44013B61
:101D6400B3FBF5F303FB05F5ED1B2C44073424F01A
:101D740007042946304609F021FB0746A41BE4105A
:101D8400804536D306EBC702B368B3F5004F3AD3A8
:101D9400536807EB53039C4237D30122394630463C
:101DA40009F06FFA2846BDE8F0810423ADE7B36873
:101DB400B3F5004F04D308239D4203D90027A7E7B6
:101DC4000423F9E7214609F0FCFB0546EAE7164C33
:101DD40040F2E91322461549154809F04EFC15480E
:101DE40009F04BFC40F2E911204609F03DFC0420C7
:101DF400A2E702464146304609F06AFA41463046B7
:101E040009F00BFBBEE75388C3E722463946304648
:101E140009F05EFA2146304609F0FFFABDE70025D5
:101E2400C0E70025BEE700BF6CE6000094E60000B2
:101E3400B0E60000D0E60000F8B5B2F5802F01D27C
:101E4400042A2BD9B2F5802F38D30823D21ACC1DFB
:101E540024F007040A4422F00702121BD108172AAF
:101E64002ED90460A1600023E360B2F5802F37D33C
:101E740008200830A1EBD0030133B3FA83F3C3F194
:101E8400200CC3F124039B0003F1070E4FEADE0686
:101E940006EBD000884225D8002338E0414C40F2BC
:101EA400E32322464049414809F0E7FB404809F052
:101EB400E4FB40F2E321204609F0D6FB0423C5E706
:101EC400384C4FF43B7322463A49384809F0D5FB65
:101ED400374809F0D2FB4FF43B71204609F0C4FBAC
:101EE4000420C6E72F4C40F20233224632492F48E1
:101EF40009F0C3FB2E4809F0C0FB40F20231204632
:101F040009F0B2FB181D002544F820500133634545
:101F1400F8DB7300B2F5802F31D36360B2F5802F04
:101F24002FD300232360B2F5802F2DD3636843F0B1
:101F340001036360881B47002EF00703E518B2F520
:101F4400802F26D36F60A568B5F5004F23D3E650E4
:101F540022F007032244A568B5F5004F1DD30025E0
:101F64005560A268B2F5004F1AD3E0500122204612
:101F740009F087F93146204609F04FFAF8BD63802D
:101F8400CCE700232380CEE7638843F0010363801A
:101F9400D0E76F80D7E7E652DAE700255580E0E71F
:101FA400E052E3E76CE60000F0E60000B0E6000073
:101FB40014E7000030E700005CE7000038B5EFF3F9
:101FC4001185202383F31288BFF36F8F1C4806F01A
:101FD40025FEA0B100241A4806F04AFE7CBB194B2A
:101FE40000221A605A609A60DA60154806F026FEEC
:101FF400A0B185F31188BFF36F8F0124EEE7124C73
:10200400842322461149124809F037FB0C49114830
:1020140009F033FB8421204609F026FB0A4C4FF4D7
:10202400997322460C490A4809F027FB04490B48D6
:1020340009F023FB4FF49971204609F015FB38BDD4
:102044005C04002008010020F0E7000024E8000000
:10205400B0E600003CE8000054E800006CE8000032
:1020640008B5024B1B68984708BD00BF000000205C
:10207400014B1860704700BF0000002000B585B018
:1020840084460A466846002300930193029303930F
:1020940002238DF80230044B0193614608F088F95D
:1020A40005B05DF804FB00BF6520000010B50C4BC3
:1020B4001B7823B101F0A0F80A4B185810BD0A4C44
:1020C40040F2463322460949094809F0D6FA09483C
:1020D40009F0D3FA40F24631204609F0C5FA00BFB0
:1020E4006A0600200800000084E80000B4E800004C
:1020F400B0E60000C8E8000080B504460D46164668
:102104001F4606F03FFA024601F076F8044B1A50D7
:102114003A4631462846A047FFF7C8FF00F0F4FFCF
:102124000800000010B504468C46838B002A12DB9D
:1021340003F007035A1F012A19D9042B51D1002196
:1021440009F0A9FA204609F0D0FA78B1A38B43F03C
:102154002003A3830AE0D0E900018CE803000023F4
:10216400236063600121204609F095FA10BDD0E98F
:1021740000018CE80300002222606260062B0FD06D
:10218400052B21D10021204609F085FA204609F0CB
:10219400ACFA0028EAD0A38B43F02003A383E5E73D
:1021A400DCF8003000E013464BB1E28B0132E283ED
:1021B4001A68002AF7D0002BF5D11A46F3E702215A
:1021C400204609F068FAE1E70C4C40F20913224674
:1021D4000B490C4809F051FA40F20911204609F064
:1021E40043FA064C40F21B1322460749054809F0FE
:1021F40044FA40F21B11204609F036FAF8E80000D0
:1022040024E90000B0E600001CF400002DE9F047CA
:1022140082B0838BE1B10446154603F0070603F050
:102224000802084692B301291FD0022921D143F0A4
:102234002003A3831434204606F000FD002800F098
:102244009B8185F31188BFF36F8F02B0BDE8F087DF
:10225400B84C40F233132246B749B84809F00DFA96
:1022640040F23311204609F0FFF943F01003A38331
:10227400E0E7B04C4FF49E732246B149AF4809F0F1
:10228400FCF94FF49E71204609F0EEF90023009307
:10229400019357E0204609F028FA55E0D4F8189045
:1022A4004A4669462046FFF73DFF0027A38B03F00B
:1022B4000708B04500F00581A268002A00F00181FA
:1022C400012643F00803A38304F1140A504606F0E0
:1022D400B5FC002800F0FE8085F31188BFF36F8FF2
:1022E400002E40F00881009B2BB14B4642466946C4
:1022F400204609F03BFA17B192492046B847EFF35C
:102304001185202383F31288BFF36F8F504606F0A4
:1023140085FC002800F0F580504606F0A9FCA38B4C
:1023240023F00803A383A38B13F0100F00F0F880AD
:1023340023F01003A3830120A68B06F007060028D0
:102344003FF478AF0228A5D0052800F2AD8001A3A0
:1023540053F820F039220000A1220000AD2400002F
:1023640071230000D9230000432400005EB92368D0
:10237400B3B123691F6807B30621204609F08BF91E
:102384004FF0000992E76B4C4FF4AB7322466E4951
:102394006A4809F072F94FF4AB71204609F064F908
:1023A400644C40F2571322466849644809F065F9C1
:1023B40040F25711204609F057F95E4C4FF4AD73C3
:1023C400224663495D4809F058F94FF4AD7120463F
:1023D40009F04AF9022E0BD1E38BB3B923695F6884
:1023E40007B30421204609F056F94FF000095DE7D0
:1023F400504C40F25D1322465649504809F03DF9CD
:1024040040F25D11204609F02FF94A4C4FF4AF73A6
:1024140022465149494809F030F94FF4AF7120463A
:1024240009F022F9434C40F26113224648494348DB
:1024340009F023F940F26111204609F015F9012E43
:102444000BD12368B3B123699F6807B305212046E4
:1024540009F021F94FF0000928E7364C4FF4B27324
:1024640022463E49354809F008F94FF4B271204636
:1024740009F0FAF82F4C40F26513224633492F48ED
:1024840009F0FBF840F26511204609F0EDF8294CFB
:102494004FF4B47322462E49284809F0EEF84FF45D
:1024A400B471204609F0E0F8224C40F26B13224646
:1024B4002B49224809F0E1F840F26B11204609F05B
:1024C400D3F8009A0AB10026FBE6002F3FF42BAFA5
:1024D4000026F6E6234C4FF4997322462249174806
:1024E40009F0CBF85146214809F0C7F84FF4997127
:1024F400204609F0B9F84A464146204609F0D3F887
:10250400F1E6184C8423224619490C4809F0B5F821
:102514005146184809F0B1F88421204609F0A4F87E
:1025240013F0200F04D023F02003A383022003E739
:10253400002001E7F8E800004CE90000B0E60000E4
:102544005CE90000B125000070E900007CE90000AE
:10255400A0E90000B8E90000D0E90000E0E90000CB
:102564001CF40000F0E7000054E800006CE80000F0
:1025740024E800003CE80000084D4FF499732A4613
:102584000749084809F079F82146074809F075F821
:102594004FF49971284609F067F800BFF0E700008E
:1025A40054E80000B0E600006CE80000F8B504460A
:1025B4000D4600F11406EFF31187202383F31288EC
:1025C400BFF36F8F304606F029FB48B1304606F062
:1025D4004FFBA5613A4601212046FFF717FEF8BDDF
:1025E400074C842322460749074809F046F8314638
:1025F400064809F042F88421204609F035F800BF66
:10260400F0E7000024E80000B0E600003CE8000029
:102614002DE9F04705460F4609F080F8041E4BDB10
:1026240005F11408EFF3118A202383F31288BFF312
:102634006F8F404606F0F2FA814698B1404606F0A4
:1026440017FBAE8B06F00706EB8B4FF6FF72934237
:1026540047D03446062E32D8DFE806F01D4919313A
:102664001D131D00364C842322463649364809F092
:1026740004F84146354809F000F88421204608F062
:10268400F3FF6FF085044FF000094B460EE0013371
:10269400EB8300230AE0B6FA86F35B0900223A6072
:1026A4006A68CAB117606F604FF000092BB35246D5
:1026B40002212846FFF7AAFD2046BDE8F087244CF6
:1026C4004FF4E473224623491F4808F0D6FF4FF421
:1026D400E471204608F0C8FF6F602F604FF00009D6
:1026E400E4E76FF00A044FF000094B46DEE76FF0B1
:1026F40004044FF000094B46D8E7404606F09EFA22
:1027040068B18AF31188BFF36F8FB9F1000FD3D08A
:10271400002332463946284609F015F8CCE7084C20
:102724004FF4997322460C49074808F0A6FF414626
:102734000A4808F0A2FF4FF49971204608F094FF6C
:10274400F0E7000024E80000B0E600003CE80000E8
:10275400F8E80000E0E9000054E800006CE800003C
:102764000346426802F003028160022A02D83AB1A9
:10277400002002E0032A03D1006800225A60704757
:1027840010B5054C452322460449054808F075FF59
:102794004521204608F068FFF8E900001CF4000019
:1027A400B0E60000014B036000207047E010010018
:1027B40008B50B68002B0EDB934206D95000B3EB2F
:1027C400420F02D20860002808DB0868013009D4EF
:1027D40006F01AFD08BD044806F05CFD6FF00043E6
:1027E4000B60F2E706F02EFD30EA000008B503485E
:1027F400034A121A002109F028F808BD0801002034
:102804006C06002008B50648064A121A064909F063
:1028140020F80648064A121A064909F01AF808BDB3
:102824000000002004010020D01701000000002057
:1028340000000020D017010010B582B00446836860
:1028440000934368026845210B4808F0DAFF636986
:1028540000932369E2684521084808F0D2FFE26941
:102864004521074808F0CDFFA2694521054808F035
:10287400C8FF02B010BD00BF54EA000088EA00009F
:10288400BCEA0000D0EA000038B504460D4611B198
:102894000846FFF7D1FF012C04D02946204604F056
:1028A40009F838BDEFF30582103A4521014808F0D4
:1028B400A8FFF2E704EB000030BFFFF7FDBF00BF45
:1028C40038B50446054D2A460549FDF71FFD054A5E
:1028D4000021601907F064FA38BD00BF0000000051
:1028E4005CE200000800000070B50646064D074B88
:1028F4001D444C1B2046FFF7E3FF083CC6F89840F4
:1029040005F1080070BD00BF0000000008000000D1
:102914008169104B5A6942F480725A61BFF34F8F38
:10292400BFF36F8F31F8021C5A6922F480725A6126
:10293400BFF34F8FBFF36F8F01F47F43B3F55F4F46
:1029440001D000207047C9B2022901D0002070478D
:102954000120704700ED00E04FF0000C83F800C048
:1029640002F07F4CBCF17F4F13D102F00C0CBCF190
:10297400080F04D012F0080F08D00846704708B5B5
:102984004521054808F03DFF002008BD01221A70CA
:1029940070470020704700BF1CEB0000F8B50546E7
:1029A4000F4614464521424808F02BFF414B9B6AD1
:1029B40013F0100F39D110263E4B9B6A13F0080F09
:1029C40039D13C4B9B6A13F0020F3AD1394B9B6AC5
:1029D40013F0010F4FD1374B9B6A13F0200F50D1E6
:1029E400344B9B6A13F0100F04D1324B9B6A13F0E3
:1029F400020F04D02F4B9B6A13F0100F47D12D4BBD
:102A04009B6A13F0200F04D02A4A536A23F400531C
:102A14005362284A936A43F0FF03936201212846D4
:102A240008F02EFF20703046F8BD4521224808F0FA
:102A3400E8FE1126C0E74521204808F0E2FE1226F0
:102A4400BFE745211E4808F0DCFE1A4B5A6B9B6A0F
:102A540013F0800F01D11326B8E74521194808F077
:102A6400D0FE37B1134A936A23F08003936213268E
:102A7400ACE71326AAE74521134808F0C2FE142642
:102A8400A9E74521114808F0BCFE1526A8E7104C1B
:102A940040F22D1322460F490F4808F0EEFD0F486F
:102AA40008F0EBFD40F22D11204608F0DDFD00BFDB
:102AB4004CEB000000ED00E068EB0000A0EB000030
:102AC400B8EB0000D8EB0000F4EB000018EC0000B9
:102AD4004CEC000084EC0000B0E60000D0EC0000F8
:102AE400F8B505460F4614464521334808F089FEDB
:102AF400324B9B6A13F4805F25D116262F4B9B6AB9
:102B040013F4006F25D12D4B9B6A13F4007F26D15B
:102B14002A4B9B6A13F4806F3BD1284B9B6A13F4B6
:102B2400807F3CD1254B9B6A13F4005F3DD1234A3F
:102B3400936A43F47F4393620121284608F0A0FE80
:102B440020703046F8BD45211D4808F05AFE17266E
:102B5400D4E745211B4808F054FE1826D3E7452145
:102B6400194808F04EFE154B9A6B9B6A13F4004FFC
:102B740001D11926CCE74521144808F042FE37B1AB
:102B84000E4A936A23F4004393621926C0E7192678
:102B9400BEE745210E4808F034FE1A26BDE745215C
:102BA4000C4808F02EFE1B26C1E745210A4808F010
:102BB40028FE1C26BBE700BF34ED000000ED00E05A
:102BC40050ED0000A0EB000068ED000088ED00006F
:102BD400A4ED0000C4ED000018EC000008B5452188
:102BE4002C4808F00EFE2C4B9B6A13F0007F26D174
:102BF4001D20294B9B6A13F0807F26D1264B9B6AAC
:102C040013F4801F27D1244B9B6A13F4002F28D17F
:102C1400214B9B6A13F4802F29D11F4B9B6A13F419
:102C2400003F2AD11C4B9B6A13F4803F2BD11A4AD4
:102C3400936A6FEA03436FEA1343936208BD452125
:102C4400164808F0DEFD1E20D3E74521144808F09D
:102C5400D8FD1F20D2E74521124808F0D2FD0220FA
:102C6400D1E74521104808F0CCFD2120D0E74521CB
:102C74000E4808F0C6FD2220CFE745210C4808F095
:102C8400C0FD2320CEE745210A4808F0BAFD2420E0
:102C9400CDE700BFE4ED000000ED00E004EE00002D
:102CA4001CEE00003CEE00006CEE000090EE000014
:102CB400BCEE0000DCEE000070B506460D46452172
:102CC400374808F09EFD00232B70364BDC6A14F065
:102CD400020424D1334BDB6A002B27DB314BDB6A44
:102CE40013F0804F4CD045212F4808F08AFD304620
:102CF400FFF70EFEF8B92B4B9B6A13F0FF0F21D19F
:102D0400284B9B6A13F47F4F23D1264B9B6AB3F560
:102D1400803F25D33046FFF761FF044604E0452198
:102D2400224808F06EFD0024204670BD452120484D
:102D340008F067FDF8E7326845211E4808F061FD98
:102D44003468F1E72A4601213046FFF727FE04469E
:102D5400EAE72A4601213046FFF7C2FE0446E3E7CC
:102D6400154C40F2ED2322461449154808F085FC21
:102D7400144808F082FC40F2ED21204608F074FC6F
:102D84000D4C4FF43C7322460C490D4808F075FC79
:102D94000D4808F072FC4FF43C71204608F064FCC6
:102DA4000CEF000000ED00E064EF000028EF0000ED
:102DB40050EF000088EF00004CEC00001CF4000011
:102DC400B0E60000ACEF0000D0EF000008B500232F
:102DD4000B704521014808F014FD08BD00F0000007
:102DE40008B50F2907DC054AA1F110034521044861
:102DF40008F007FD08BD034AF6E700BF2CF0000009
:102E040060F0000044F0000030B58BB0294B5D68E1
:102E1400C5F30805002383F31188BFF36F8F0DF109
:102E24002603FFF799FD58B104460DF12702294600
:102E340008F028FD86469DF827308BB10BB030BDD5
:102E44001D4C40F21B4322461C491D4808F015FC4A
:102E54001C4808F012FC40F21B41204608F004FC18
:102E64000DF1040C20686168A268E368ACE80F0007
:102E740020696169A269E369ACE80F009DF8263016
:102E84004BB1089BC3F308024AB96FEA53236FEAB4
:102E94004323089303E0089B6FF308030893BEF1F0
:102EA4000F0F01D94FF0000E01A97046FFF7ECFC9B
:102EB400C4E700BF00ED00E04CEC000078F0000037
:102EC400B0E600008CF00000064B5A6942F0100294
:102ED4005A615A6942F480625A615A6922F00802BE
:102EE4005A61704700ED00E0EFF30880EFF30981C9
:102EF40001B57246FFF788FF01BD00BF0B4880F3A0
:102F0400088802F0D1FC202080F3118808484FF48F
:102F14000061401880F30988EFF31480022108430C
:102F240080F31488BFF36F8F00F078F8B037002077
:102F3400702600201EF0040F0CBFEFF30880EFF39F
:102F44000980816911F8021C0229FFD001B572467B
:102F540008F083FC01BD00BF002807DB00F01F025E
:102F6400400901239340024A42F82030704700BFD1
:102F740000E100E0002808DB4901C9B200F160402B
:102F840000F5614080F80013704700F00F0049011C
:102F9400C9B2014B1954704714ED00E04209054BC6
:102FA40053F8222000F01F00012303FA00F0104020
:102FB400704700BF00E100E070B505460C460131E2
:102FC400072903D840B2FFF7D5FF70BD084E6B2325
:102FD40032460849084808F050FB07232A46214690
:102FE400064808F04AFB6B21304608F03DFB00BF61
:102FF400CCF0000008F10000B0E6000024F100006D
:10300400044B23F07F03044A9360BFF34F8FBFF355
:103014006F8F70470000000000ED00E008B5FFF777
:10302400EFFF0B4AD2F8883023F47003C2F88830DB
:10303400EFF3148323F0040383F31488BFF36F8F37
:10304400FFF7D4FBFFF7DEFB00F0ACF803F0ECFD78
:1030540000ED00E010B4A2F120040E4942F8081C6F
:1030640021F0010142F8081C42F8203C019B42F87F
:103074001C3C029B42F8183C039B42F8143C4FF062
:10308400807342F8043C04650023C0F89C3010BCF3
:10309400704700BFFD20000000B50E4615460D4BDD
:1030A4009860D0F898200C4B1A60D0F8883083F3DD
:1030B4000B882C4686F309880020044B9847204649
:1030C400002100220023024C20470000F9B8000030
:1030D400FD200000F005002060040020014B1022B8
:1030E4001A61704700ED00E0054B5A699B689A42EB
:1030F40004D0044A536843F080535360704700BFC0
:10310400F005002000ED00E008B50A4B9B688342FF
:1031140002D005F03DFA08BDEFF30583002BF8D08B
:10312400054B5A6842F080525A605A6A22F40042AF
:103134005A62EEE7F005002000ED00E016498A68C7
:103144004FF030001044EFF3098C80E8F01F20208A
:1031540080F31288BFF36F8F104F4FF000664A69F7
:103164008A603E60D2F898000D4C2060D2F89C0032
:103174000023C2F89C3080F3118802F1300090E8FB
:10318400F01F8CF3098802F1000004B508F0AAFBD3
:10319400BDE8044070470000F005002004ED00E0A5
:1031A40060040020002206E003F00F0309491944DB
:1031B40020230B760132442A0ADC53B2002BF3DBC2
:1031C40003F1604303F56143202183F80013F1E721
:1031D400704700BFFCEC00E008B5EFF30583103B3B
:1031E400044A02EBC301496852F833008847FFF7E9
:1031F4007BFF08BD1CDF0000014800687047000029
:103204006004002010B584B00A4C23460A4A012108
:103214000A4800F073FA01A8002301934360836015
:10322400074B0193E41A0294012100F089FA04B0D7
:1032340010BD00BF0000072000000020E0100100C6
:1032440008010020024B034AC3F8C020704700BFA6
:1032540000ED00E0AAFF4400034BC3F89800C3F854
:103264009C10C3F8A020704700ED00E00E4BC3F89B
:103274009800C3F89800D3F89C000A7A60F304021B
:103284000A72D3F8A020C2F34202087A62F347100C
:103294000872D3F89C2022F01F020A60D3F8A030F1
:1032A40023F01F03CB60704700ED00E010B5044627
:1032B400094BD3F89030C3F30723013B984203D85A
:1032C40008F05EFB204610BD02464521034808F085
:1032D40098FA6FF01500F6E700ED00E068F10000E1
:1032E4002DE9F04F87B081460091019314460027E1
:1032F40046E03A464521614808F083FA6FF0150428
:1033040006E0324645215E4808F07BFA6FF015046A
:10331400204607B0BDE8F08FD84564D12946C0B235
:1033240008F054FB2BE0574BC3F89860D3F89C107B
:1033340001F01F0122F01F020A43C3F89C20294612
:10334400E0B208F043FB044610F1160FE0D001345C
:1033540015E0013B4B4AC2F89860D2F8A01001F086
:103364001F0123F01F030B43C2F8A0302946E0B22B
:1033740008F02CFB044610F1160FC9D001340137B4
:10338400009B9F42C4DA07EB47054FEA850A09EB25
:1033940085056E68002EF2D0019B23B1284608F003
:1033A40003FB0028A5D0314659F80A0008F02DFB8C
:1033B400064610F1160FA4D0A042A2DA314BC3F88E
:1033C4009800D3F89C1021F01F01C3F89800D3F89B
:1033D400A03043F01F0859F80A306A681A4402F111
:1033E400FF3B994298D099429DD0D845B1D0013B3A
:1033F4002449C1F89860D1F8A02002F01F0223F0FC
:103404001F031343C1F8A0302946E0B208F0DEFAE6
:10341400044610F1160F3FF47BAF0130194BC3F88B
:103424009860D3F89C109DF8102061F304028DF885
:103434001020D3F8A030C3F34203D2B263F347128F
:103444008DF8102059F80A206B681A44029259F832
:103454000A20134423F01F03A8EB0B084344013B49
:1034640023F01F03059302A9C0B2FFF71FFF044610
:1034740010F1160F3FF44CAF013480E794F10000D3
:10348400C0F1000000ED00E010B5034C01232278E8
:10349400FFF726FF207010BD6006002070B50546BA
:1034A4000E46002400E00134A6421EDD04EB440372
:1034B4009A0005EB830359680029F4D0A85808F052
:1034C400A4FA04EB84030B4A42F8230010F1160F0C
:1034D4000CD0094B1B78984209DA04EB840302EB05
:1034E40083010431FFF7C2FEDDE7002070BD6FF0F9
:1034F4001500FBE76404002060060020F0B587B0E7
:10350400054605A8FFF74EF90646002442E0B3F14C
:10351400006F00F0B580B3F1805F3AD15768095865
:1035240027F01F0392681344013B23F01F03019704
:1035340002919DF80C20012161F304028DF80C2006
:10354400D2B222F0E0028DF80C20049317E0576801
:10355400095827F01F0392681344013B23F01F030B
:10356400019702919DF80C20012161F304028DF86A
:103574000C20D2B261F347128DF80C20049301A9F8
:103584002878FFF793FE0028C0F294802B7801334B
:103594002B700134B44280F090802001059901EB36
:1035A4000412D3686FF31303B3F1807F4ED0AED807
:1035B400B3F5001F06D0B3F5800F2ED0B3F5801FEE
:1035C400C5D0E6E75768095827F01F0390680344FD
:1035D400013B23F01F03019702919DF80C10012079
:1035E40060F304018DF80C10C9B2022060F3471196
:1035F4008DF80C100493D36813F0010FBFD0304C36
:10360400842322462F49304808F037F82F4808F021
:1036140034F88421204608F027F85768095827F021
:103624001F0392681344013B23F01F030197029187
:103634009DF80C20062161F304028DF80C20D2B20F
:1036440022F0E0028DF80C20049398E7576809589B
:1036540027F01F0392681344013B23F01F030197D3
:1036640002919DF80C20012161F304028DF80C20D5
:10367400D2B2032161F347128DF80C2004937EE744
:103684005768095827F01F0392681344013B23F03D
:103694001F03019702919DF80C20012161F304029C
:1036A4008DF80C20D2B2032161F347128DF80C205F
:1036B400049364E76FF0150000E0002007B0F0BD4C
:1036C400E8F100001CF20000B0E6000044F2000043
:1036D400044B0522C3F89420BFF34F8FBFF36F8FC1
:1036E400704700BF00ED00E0BFF35F8F024B002284
:1036F400C3F89420704700BF00ED00E038B50C46D5
:10370400FFF7C2FE10F1160F00D038BD084D40F28D
:1037140089132A460749084807F0AFFF214607489E
:1037240007F0ABFF40F28911284607F09DFF00BF68
:10373400E8F100001CF40000B0E6000074F20000A0
:1037440038B50C46FFF7AAFE10F1160F00D038BDAD
:10375400084D40F299132A460749084807F08DFF9F
:103764002146074807F089FF40F29911284607F0DF
:103774007BFF00BFE8F100001CF40000B0E600008D
:10378400A0F2000038B52D4B1D682D4BD3F89030B6
:10379400C3F307239D4205D8FFF7A6FFFFF752FDA9
:1037A40000241DE0274C40F20223224626492748E4
:1037B40007F063FF224BD3F89020C2F30722294677
:1037C400234807F05AFF40F20221204607F04CFF3D
:1037D4001A4B596801EB0411204608F0D1F8013462
:1037E400A542F5D81B480570FFF788FE10F1160FA7
:1037F40010D0184B1A78124BD3F89030C3F3072328
:103804009A4217DA0E4BC3F898200021C3F8A0108F
:103814000132F0E70B4C40F2352322460A490B48AB
:1038240007F02BFF0C4807F028FF40F23521204613
:1038340007F01AFFFFF74CFF002038BDEC10010021
:1038440000ED00E0E8F100001CF40000B0E6000028
:10385400D0F200006006002004F3000010B530B17F
:103864004FF0FF324FF0FF3303F086FA10BD054CE2
:10387400502322460449054807F0FFFE5021204604
:1038840007F0F2FE40F3000074F30000B0E600001D
:1038940010B510B103F088FB10BD054C6A23224615
:1038A4000449054807F0E9FE6A21204607F0DCFEDA
:1038B40040F3000074F30000B0E6000008B5024BCA
:1038C4001B689847002008BD78040020034B18604B
:1038D400034A937843F002039370704778040020FE
:1038E4000400002008B5054807F0B0FE002383F368
:1038F4001188BFF36F8F0423184602DFC4F300005E
:1039040010B54FF0FF324FF0FF33084808F093F83A
:1039140000B910BD064C7F2322460649064807F02D
:10392400ACFE7F21204607F09FFE00BF140000205C
:10393400D0F3000010F40000B0E6000008B506491A
:1039440021F00701C1F1005202F5E0220348FEF71D
:1039540073FA002008BD00BFB73700207C040020A4
:1039640038B50446FFF7CCFF224608210848FEF785
:10397400BBF9054620B1074803F016FB284638BDBD
:10398400002CF8D0FFF738FC034B0C221A50F2E756
:103994007C040020140000200C00000010B5044634
:1039A400FFF7AEFF21460348FEF724F9024803F06F
:1039B400FBFA10BD7C0400201400002068B108B597
:1039C400064A074B1B680749A1FB03139B0C00FB2A
:1039D40003F042F00103984708BD704770E200000D
:1039E400B800002083DE1B4338B51A4B1B78013323
:1039F400194AA2FB031202F4FE7101EB92029C1A13
:103A0400E5B208F001FD154B1B782BB1144A52F8AE
:103A14002530C01A07281AD94FF05023D3F814318F
:103A240063B14FF050230022C3F81421D3F81431AA
:103A3400084B1D7015B9094B01221A70054B1C78EF
:103A440008F0E2FC064B43F82400012038BD0020B6
:103A5400FCE700BF62060020CDCCCCCC6106002080
:103A64008804002010B503685A0904D0012A10D133
:103A74004FF6FF7101E04FF0FF3103F01F03D9400F
:103A840011F0010F05D00360EAB1012A0ED10F48ED
:103A940010BD0F4C4FF4747322460E490E4807F0C4
:103AA400ECFD4FF47471204607F0DEFD084C40F243
:103AB400D93322460949084807F0DFFD40F2D931DD
:103AC400204607F0D1FD0648E2E700BF00288450F5
:103AD40020F4000058F40000B0E600001CF40000DC
:103AE4000025845000B583B00E4B0022C3F8A821F2
:103AF400C3F8AC204FF48062C3F8B8254FF40062D9
:103B0400C3F83C250DF107020749084808F068FD91
:103B1400002804DB9DF8070001F0CAFF002003B071
:103B24005DF804FB00A002502CA0025028A1025012
:103B340038B50124124BC3F80045124D0223C5F8D1
:103B4400D0360321002007F07AFF0321204607F036
:103B540076FFC5F80447C5F80449C5F8004B00F0E2
:103B640081F800B938BD084C40F231232246074998
:103B7400074807F082FD40F23121204607F074FD2A
:103B840000100050004000507CF40000ACF4000031
:103B9400B0E6000010B507F065FF00B910BD064C93
:103BA40040F23B2322460549054807F066FD40F2F2
:103BB4003B21204607F058FD7CF40000ACF40000E3
:103BC400B0E6000010B503685A0904D0012A10D1E8
:103BD4004FF6FF7101E04FF0FF3103F01F03D940AE
:103BE40011F0010F05D00360EAB1012A0ED10F488C
:103BF40010BD0F4C4FF4747322460E490E4807F063
:103C04003CFD4FF47471204607F02EFD084C40F241
:103C1400D93322460949084807F02FFD40F2D9312B
:103C2400204607F021FD0648E2E700BF0028845043
:103C340020F4000058F40000B0E600001CF400007A
:103C44000025845038B50546002405E02946044B78
:103C5400185D07F048FF0134032CF7D938BD00BFC5
:103C64001411010008B50249024807F096FD08BD89
:103C7400181101009C04002008B505484FF0FF33DB
:103C840003603F23436001F0EBFE002008BD00BF4A
:103C9400BC040020032809D8DFE800F0020A040667
:103CA4000448704704487047044870470448704704
:103CB40004487047BCF40000CCF40000D4F40000C5
:103CC400DCF40000C4F40000F8B505460F461646BF
:103CD4000A4C05E0636813B1314638469847083406
:103CE400074B9C4208D2002DF4D02368002BF6D059
:103CF400314638469847F2E7F8BD00BFFCE10000C2
:103D040004E2000005280ED8DFE800F0030F0507E1
:103D1400090B07487047074870470748704707482A
:103D2400704707487047074870470748704700BF07
:103D3400E0F40000FCE40000F0F40000F8F40000FB
:103D440004F5000010F50000E8F4000010B50C4B79
:103D54001B7823B1FFF750FA0A4B185810BD0A4CD0
:103D640040F2463322460949094807F086FC0948CF
:103D740007F083FC40F24631204607F075FC00BF93
:103D84006A0600200800000084E80000B4E800008F
:103D9400B0E60000C8E8000008B50548FFF7B4F92C
:103DA40009F083F900B108BDFFF7D0FFFFF7ACF9C4
:103DB4001801002008B50248FFF7A6F9002008BD45
:103DC4001801002038B50546074C00E01C34074BA9
:103DD4009C4206D221682846FCF7BAF90028F5D19E
:103DE40000E00024204638BD90E10000ACE1000072
:103DF40070B505460E46114C00E00C34104B9C4245
:103E04000DD269686068FCF7A3F90028F5D1296828
:103E14002068FCF79DF90028EFD1237A00E0FF2306
:103E24001BB1012B05D0304670BD013E18BF0126E1
:103E3400F9E7023E18BF0126F5E700BF90E1000054
:103E440090E1000008B508F0DFFA0F4B1B68C01AB8
:103E5400C20E43011B1A62F10002920042EA9372FD
:103E64009B001B1842F10002D20042EA5372DB00AD
:103E740047F6FF715B1842F10002DB0B43EA424351
:103E8400024A136008BD00BFC8040020C404002017
:103E940038B5054669B10C46143400E01434074BB8
:103EA4009C4208D221682846FCF752F90028F5D133
:103EB40002E0034CF3E70024204638BDFCE1000097
:103EC400ACE100002DE9F04F89B0064600242146FC
:103ED4002546A0462746A14601E008F10108D6F888
:103EE40000A05046FFF7D4FF014678B101350B69B5
:103EF4001A69144458681A689042EED0DB689A42F2
:103F040001D00137EBE709F10109E8E7A84522D020
:103F1400002FD4BF00200120A5EB08021E4B03FB99
:103F240009F393FBF2F31D4A82FB03124FEAE37B8E
:103F3400CBEBA21B1A4A02FB0B331A4A82FB031275
:103F4400DE17C6EBA2066FF0090202FB0633042B50
:103F540004DD013602E002200026B346FFF79AFE94
:103F640001460E4BA3FB04239B094FF47A7202FB18
:103F74001344069405930495CDF80C800297CDF86C
:103F84000490CDF800A033465A46074807F05EFB7C
:103F940009B0BDE8F08F00BFA0860100D34D6210C8
:103FA40018FCFFFF676666661CF500002DE9F0410A
:103FB40084B0074600252FE00320FFF76BFE01467F
:103FC400D4F810C06B682A68204CA4FB0C04A40924
:103FD4004FF47A7000FB14C0039002940196A6EB90
:103FE400080600961A4807F031FB15E0022000E0AD
:103FF4000020FFF74FFE014626696B682A68134CC0
:10400400A4FB0604A4094FF47A7000FB146601961D
:104014000094104807F01AFB29463868FFF738FF68
:10402400054668B12C6963682668B342DED0D4F8CB
:104034000C804645DCD0B8F1000FBDD10120D8E793
:10404400054807F003FB04B0BDE8F081D34D6210CE
:1040540080F50000CCF5000048F6000010B50948D2
:1040640007F0F4FA084C06E02046FFF72BFF204641
:10407400FFF79CFF1C34054B9C42F5D3044807F022
:10408400E5FA10BDF8F5000090E10000ACE1000095
:1040940024F6000008B5FFF7E1FF0C4B1B7853B181
:1040A4000B4807F0D3FA0B4807F0D0FA0A490B483B
:1040B40007F0CCFA08BD064807F0C8FA054807F02F
:1040C400C5FA0749054807F0C1FAF3E76506002079
:1040D4004CF6000094F60000C0F60000C8F600009C
:1040E400E0F60000014B1870704700BF6406002022
:1040F40008B50D4B187848B1431EDBB2012B09D823
:104104000220FFF7EFFFFFF747FE08BD0520FFF78A
:10411400E9FFFAE7FFF7F6FD0146044807F096FACF
:10412400034B02221A70F0E7E4000020ECF60000D2
:1041340065060020014B1870704700BFE4000020A2
:10414400F0B589B006460C4615464968464807F05E
:104154007DFA0120FFF7EEFF08F056F9434B186093
:104164004FF0FF324FF0FF33CDE9062308230493C9
:104174004FF0FF3303930295019400963C4B4FF4A8
:1041840000523C493C4803F0A7F9616811B13A4830
:1041940003F020F9394B1B78043BDBB2012B47D8E1
:1041A4000320FFF7C7FFF3680BB1284698472A4658
:1041B40021460020FFF788FDFFF744FE23691969B3
:1041C4002F4A1268914200D21A610520FFF7B2FF0C
:1041D4002A4B1B78022B04D0052B02D0294A1278D3
:1041E40092B3284B00221A7001252046FFF7E2FD06
:1041F40045EA00012046FFF7FBFD0546FFF74AFDAF
:1042040001461F4B1A68204BA3FB02039B094FF482
:104214007A7000FB1322009262681C4807F016FAB9
:104224001B4807F013FA022D16D0284609B0F0BD3A
:10423400114F384604F04AF94FF0FF324FF0FF3384
:10424400384604F047FBABE7033BDBB2012B01D953
:104254000025CAE70225C8E70E4B1B78002BE4D0E3
:104264000D4B01221A70E0E720F70000C80400207B
:1042740061BB0000700600201801002064060020C5
:10428400C404002066060020D34D62102CF7000001
:104294004CF6000063060020650600202DE9F04777
:1042A400DDF82080F8B19A46064601683F4807F0D9
:1042B400CDF93F4807F0CAF900243E4B1C70204654
:1042C400FFF710FF2046FFF735FF3B4B1B78052B0C
:1042D4000FD073687BB19847B8F1000F0DD0002759
:1042E400B9463C464AE0354B02221A704FF0FF397A
:1042F40054E00020F0E70020EEE78046EFE70228D4
:1043040006D001280AD121698A6801328A6003E053
:1043140021694A6801324A60012B22D0274B1B785D
:10432400022B21D0356821462846FFF7B1FD04460B
:10433400D0B1234B9B686168284698470028EDD08C
:104344002269136801331360424621463046FFF761
:10435400F7FE03460028D2D12169CA680132CA6037
:10436400DAE709F10109D9E7144B1B782BB9B9F144
:10437400000F02D0114B01221A7001375745D1DBCF
:10438400B9F1000F0DDD31680E4807F05FF9042024
:10439400FFF7D0FE33690BB1404698474846BDE865
:1043A400F0873168084807F051F9F0E74CF700004E
:1043B4004CF6000063060020640600206506002019
:1043C400241101007CF7000064F700002DE9F04F90
:1043D40083B082460F4691461E46DDF830B08569AB
:1043E4000024A04612E00D9B00935B4632464946EA
:1043F4005046FFF753FF08F101082B6801332B6087
:10440400AB6880B101221344AB600134B4420CDACE
:10441400084B5B685146384698470028E3D16B68DF
:1044240001336B60F1E70022EDE7404603B0BDE8DD
:10443400F08F00BF241101002DE9F04782B09A46A5
:10444400104B1B78022B18D00746884691460E4C19
:1044540000250E4EB44211D200230193CDF800A0E2
:104464004B46424639462046FFF7B0FF0544054B0C
:104474001E78022E02D01C34EBE70025284602B039
:10448400BDE8F0876506002090E10000ACE1000083
:1044940070B5204C012600E01C341F4B9C4209D20D
:1044A400A3691B68002BF7D121681C4807F0CEF8DC
:1044B4000026F1E71A4C00E014341A4B9C420CD24B
:1044C40025682846FFF77EFC0028F5D12A46616856
:1044D400154807F0BBF80026EEE716B9134B012286
:1044E4001A700F4C08E062682168114807F0AEF8B2
:1044F4000E4B01221A7014340A4B9C4209D22269D1
:104504009368D1680B4451680B4412689342F2D00B
:10451400E9E770BD90E10000ACE1000094F7000011
:10452400ACE10000FCE10000BCF7000065060020DF
:1045340000F8000010B5024C2468A04710BD00BF6D
:10454400241101000048704768050020014BC01A7F
:1045540040117047E004002030B583B005460C4696
:10456400FFF7F4FF0146402300932346054A06481B
:1045740007F0AFFB011E01DB03B030BD2846A047A6
:10458400FAE700BF1FBD0000ACDE000010B582B02A
:10459400EFF31184202383F31288BFF36F8F134A40
:1045A400136843F00201116013F0010F09D10023D5
:1045B40084F31188BFF36F8F9BB907F0C5FB02B07A
:1045C40010BD0DF1070007F001FB9DF80730012B2A
:1045D40001D00023ECE7FFF7B5FF07F056FB0123FA
:1045E400E6E70021024807F062FBE8E790050020B7
:1045F400ACDE000010B5EFF31184202383F312889E
:10460400BFF36F8F074A136823F00201116013F0A0
:10461400010F04D084F31188BFF36F8F10BD07F02E
:10462400A2FBF7E79005002030B10022026042604F
:10463400826001224260704710B5064C4FF48573C6
:1046440022460549054807F018F84FF485712046BD
:1046540007F00AF818F800004CF80000B0E6000073
:1046640010B503282AD8DFE800F006021422084611
:1046740007F0ACFA10BD4FF05023D3F81804C0F380
:1046840000400029F6D0D3F8183403F003030B706C
:10469400F0E74FF05023D3F85C04C0F30040002946
:1046A400E8D0D3F85C3403F001030B70E2E74FF079
:1046B4005023D3F85404C0F30040DBE7064C4FF416
:1046C4009F7322460549064806F0D7FF4FF49F71B1
:1046D400204606F0C9FF00BF64F800001CF4000087
:1046E400B0E6000010B5C9B2032905D807F087FA6F
:1046F400806800F0070010BD054C7E232246054962
:10470400054806F0BAFF7E21204606F0ADFF00BF43
:10471400ACF80000F0F80000B0E6000070B5054603
:104724001646CCB2214607F06AFA032C0DD831465E
:10473400083007F075FA002806DB2146284607F002
:1047440065FA43689847002070BD064C4FF4E8733F
:1047540022460549054806F090FF4FF4E8712046CB
:1047640006F082FFACF80000F0F80000B0E60000AC
:1047740038B505460C46FFF7E9FE014640220348DA
:10478400FFF7CCFF01462846A04738BDACDE000049
:1047940010B5092826D8DFE800F0051325252525BE
:1047A40025180E09164807F0C0FA10BD0221144856
:1047B40007F07DFAF9E70321114807F078FAF4E7E6
:1047C40001210F4807F073FAEFE70E4C40F2FA2389
:1047D40022460D490D4806F050FF40F2FA212046CA
:1047E40006F042FF074C4FF441732246064907483E
:1047F40006F043FF4FF44171204606F035FF00BF39
:10480400ACDE0000ACF800001CF40000B0E60000D0
:1048140070B582B00546012807D14FF05023D3F874
:104824001C3403F00303022B33D008F03EFC04468F
:1048340010B9294B1B7843B9EFF31186202383F376
:104844001288BFF36F8F012411E04FF0502302222E
:10485400C3F8082300260AE0ECB1304607F06AF8F2
:104864004FF05023D3F81835DBB2012B17D00DF1DC
:1048740007010020FFF7F4FE0028EDD09DF8073073
:10488400022B01D0012DE7D104B386F31188BFF3C5
:104894006F8F02B070BD012007F079FAE0E74FF0A6
:1048A4005023D3F80431002BE1D04FF050230022E1
:1048B400C3F80421D3F804210222C3F81825074AB7
:1048C4002021C2F8801101229A60D0E74FF05023D2
:1048D4000222C3F80423DCE76A06002000E100E0BA
:1048E40000B585B06B46CDF800D0CDF804D00022D9
:1048F400029201220392074A07F007FA002805DB17
:104904004FF480420023684602F0C4FC05B05DF811
:1049140004FB00BFBFBD0000F8B50646002201211C
:104924000520FEF749FB114801F0EAF8C0B9074633
:1049340001F01AF90024032C16D82146304607F05A
:104944005EF905462146304607F066F9084906F047
:1049540024FF031E07DB0123AB601C44E4B2EAE737
:104964006FF0040700E01F463846F8BD9547000085
:104974003011010070B504461C4B0121D3E8EF2F20
:10498400C3E8E01F0028F9D142B134B1631EDBB2A1
:10499400012B1ED82046FFF73BFF70BD144807F0DB
:1049A4003BF90546134E3046FFF73EFE311F2846BD
:1049B400FDF72EFE0028E8DA0F4C40F2A32322462E
:1049C4000E490F4806F059FE40F2A321204606F096
:1049D4004BFE094C40F2B52322460A49084806F02A
:1049E4004CFE40F2B521204606F03EFEDC040020D9
:1049F400ACDE0000D0040020ACF8000014F9000084
:104A0400B0E600001CF4000010B504460A2806D0E5
:104A1400E1B2064883685B689847204610BD0348A6
:104A240083685B680D219847F2E700BF00DF000050
:104A340010B5044C2046FEF749FF2046FDF718FB4D
:104A440010BD00BF0D4A000008B5054808F0EAFA99
:104A540018B1FFF7EDFF002008BD6FF01200FBE76F
:104A640000DF000028B1012801D10348704700206D
:104A740070470248704700BFC8DE0000E4DE000053
:104A840070B569B1044616460D464B68B3B1036868
:104A940013B307F0B2F950BBFEB96FF0150022E072
:104AA400164C642322461649164806F0E6FD1648BD
:104AB40006F0E3FD6421204606F0D6FD0F4C652385
:104AC400224612490F4806F0D8FD114806F0D5FDDC
:104AD4006521204606F0C8FD32B123682B602560AD
:104AE400636843B1002070BD6FF01500FBE7002E32
:104AF400F3D10020F7E765600020F4E764F90000D3
:104B0400A8F90000B0E60000B4F90000C4F9000000
:104B1400D8F9000010B503685A0904D0012A10D14D
:104B24004FF6FF7101E04FF0FF3103F01F03D9404E
:104B340011F0010F05D00360EAB1012A0ED10F482C
:104B440010BD0F4C4FF4747322460E490E4806F004
:104B540094FD4FF47471204606F086FD084C40F233
:104B6400D93322460949084806F087FD40F2D93175
:104B7400204606F079FD0648E2E700BF002884508D
:104B840020F4000058F40000B0E600001CF400001B
:104B94000025845070B50E461546016891B10C6825
:104BA400ACB1A1B90C4612E0124C89232246124939
:104BB400124806F062FD124806F05FFD8921204686
:104BC40006F052FD0C4602E0234621461C4681B104
:104BD4008A682A4004D04B68002BE5D030469847B9
:104BE400002CF1D02368002BEFD0002CEDD123460C
:104BF400EBE770BD64F90000F0F90000B0E60000D6
:104C0400D8F900002DE9F04786B088461646994643
:104C1400446801F01F05237C45EA4315204607F04C
:104C24000EF9002867D0B6F5001F2FD00DF10C0A3D
:104C34000027039704974946304607F035F98DF865
:104C44000C00009701970297CDF804A0E36823FABB
:104C540008F313F0010F02D1B6F1A07F1CD00DF1BF
:104C640017022946A06801F0D5FC80B36A4629469C
:104C7400A06801F087FC002805DB01222946A06812
:104C840001F05EFD002006B0BDE8F0872946A0686B
:104C940001F06EFD0020F6E7284607F027F900280A
:104CA400DDD10DF117022946A06801F0B3FC10F123
:104CB400160F03D00DF117030493D7E70DF1170274
:104CC4004146204607F08BF90028F3DADBE79DF82C
:104CD4001710A06801F0FEFC0028C7D0074C4FF461
:104CE400F37322460649074806F0C7FC4FF4F371F4
:104CF400204606F0B9FC6FF08500C4E7FCF900001B
:104D0400ACF40000B0E60000F0B589B00E461446DD
:104D1400456801F01F072B7C47EA4317104607F04C
:104D240093F88DF81E0040F206332340B3F5837FD9
:104D340051D016D8062B4AD009D81BB3022B03D165
:104D440004238DF81D3020E06FF0150039E0B3F531
:104D5400807F03D101238DF81D3016E06FF015001C
:104D64002FE040F20222934239D0B3F5407F2AD09B
:104D7400B3F5007F03D102238DF81D3005E06FF0F9
:104D840015001EE000238DF81D300123B34014F4F8
:104D9400002F28D06A689360284607F050F840B383
:104DA4000DF11F023946A86801F034FC064614F4DC
:104DB400403F37D13946A86801F074FC002E6BD00F
:104DC400002009B0F0BD03238DF81D30DDE7062374
:104DD4008DF81D30D9E707238DF81D30D5E705235D
:104DE4008DF81D30D1E714F4802FD5D06A68D360D4
:104DF400D2E7C4F340438DF8083004F48034B4FAA5
:104E040084F464098DF81040002401940DF11D030D
:104E140000930DF11E0304AA02A9384607F075F8A1
:104E24002046CEE702A900230293039304AA049325
:104E34005360936005913946A86801F0A3FB0028EC
:104E44001BDB14F4003F1AD09DF81D308DF8103090
:104E540004F48034B4FA84F464098DF811409DF8A4
:104E64001E308DF81230002304AA3946A86801F0D8
:104E7400A1FB0028A2DA0020A3E70020A1E704AAEE
:104E840000230493536093600DF11E030493394689
:104E9400A86801F077FBECE79DF81F10A86801F003
:104EA40019FC00288DD0054CF523224604490548F9
:104EB40006F0E3FBF521204606F0D6FBFCF90000E2
:104EC400ACF40000B0E6000038B504464568284656
:104ED40006F0B5FF20B90E49204606F09EFF38BD06
:104EE400A86801F0C7FB0028F5D10021A86801F0EB
:104EF400A9FB50B900220749A86801F073FB0022FE
:104F040005210D20FEF758F8E5E76FF00400E6E709
:104F1400D9BE0000C5BF000010B503685A0904D00B
:104F2400012A10D14FF6FF7101E04FF0FF3103F079
:104F34001F03D94011F0010F05D00360EAB1012A23
:104F44000ED10F4810BD0F4C4FF4747322460E4916
:104F54000E4806F092FB4FF47471204606F084FB71
:104F6400084C40F2D93322460949084806F085FB2B
:104F740040F2D931204606F077FB0648E2E700BF4D
:104F84000028845020F4000058F40000B0E600002B
:104F94001CF4000000258450F0B583B001900C4649
:104FA40017461E4601A8FFF7B7FF0199803150F854
:104FB4002130094D1D4044EA470444EA86039DF824
:104FC400202043EA02239DF8242043EA02432B4392
:104FD40040F8213003B0F0BDF0F0FCFF2DE9F04FB4
:104FE40085B005460E4690460024B44280F05681B2
:104FF4004FEA840955F82430C3F3C322C3F30807E6
:10500400082A00F24D81AA4911F802A040F2FF12C9
:10501400974254D01B0E4E2B00F24581DFE813F06B
:10502400520077008000880091009900A10043019C
:10503400430143014301B200BE0043014301430164
:10504400430143014301430143014301CA00D50025
:10505400E000EB00430143014301F600FF000701B8
:10506400100119012201430143014301430143019A
:10507400430143014301430143014301430143010C
:1050840043014301430143014301430143014301FC
:1050940043014301430143014301430143014301EC
:1050A40043014301430143014301430143014301DC
:1050B400430143014301430143014301AA004FF06B
:1050C400FF37A7E7C8F80C754FF0010BCDF80CB00B
:1050D4005946B7F1FF3F17D0B1F1FF3F40F0DA80F6
:1050E40055F8093013F4004F03D04FF0010B0022A0
:1050F400039200220192CDF800A0C3F341235A4643
:1051040003993846FFF748FF0134E4B26DE7C8F865
:1051140014754FF0000BCDF80CB04FF0FF31D8E709
:10512400C8F808754FF0010BCDF80CB05946D0E71C
:10513400C8F810754FF0000BCDF80CB04FF0FF31EC
:10514400C7E7C8F808754FF0000B012303935946CD
:10515400BFE7C8F80C754FF0010BCDF80CB0002177
:10516400B7E7C8F810754FF0000BCDF80CB04FF04E
:10517400FF31AEE7C8F814754FF0010BCDF80CB051
:105184005946A6E7C8F80875BAF1000F72D04FF077
:10519400000BCDF80CB04FF0FF319AE7C8F80C754E
:1051A400BAF1000F6ED04FF0000BCDF80CB04FF0F9
:1051B400FF318EE7C8F8607555F80910C1F3004156
:1051C4004FF0010BCDF80CB083E7C8F8647555F8BF
:1051D4000910C1F300414FF0010BCDF80CB078E792
:1051E400C8F8687555F80910C1F300414FF0010B78
:1051F400CDF80CB06DE7C8F86C7555F80910C1F31B
:1052040000414FF0010BCDF80CB062E7C8F82475EB
:105214004FF0010B002303934FF0FF3159E7C8F817
:1052240028754FF0010BCDF80CB0594651E7C8F87A
:1052340030754FF0010B002303934FF0FF3148E723
:10524400C8F834754FF0010B002303934FF0FF317E
:105254003FE7C8F838754FF0010B002303934FF074
:10526400FF3136E7C8F83C754FF0010BCDF80CB0B0
:1052740059462EE7D346CDF80CA04FF0FF314FF03E
:10528400060A26E7D346CDF80CA04FF0FF314FF0C5
:10529400060A1EE7384606F0DBFE21E7002004E09C
:1052A4006FF0150001E06FF0850005B0BDE8F08FE8
:1052B40094110100F8B505460E46476807F0F5FE5F
:1052C40010B9114B1B787BB9EFF31184202383F3BE
:1052D4001288BFF36F8F284606F004FF40B984F3A9
:1052E4001188BFF36F8FEFE7284606F04AFF0446A4
:1052F400FB691E700122F969284606F007FF84F352
:105304001188BFF36F8FF8BD6A06002038B50D46CB
:105314000023C0F8A031C0F88C3001F1080200F17C
:105324000C0100F5907007F05BF9041E05DB287A88
:1053340000F0BEFB0024204638BD4521014806F09C
:1053440060FAF8E748FA000038B5054644680121D8
:10535400E06806F03BFF6B681A682369C2F82435DD
:10536400637DA17D0B43218B0B43217D0B43C2F84D
:105374006C35284606F061FF00B138BD0249284665
:1053840006F06EFEF9E700BF2BC2000021F07F415A
:1053940000F5A870014B43F82010704700500150ED
:1053A4004FF480338340024AC2F84433704700BF4D
:1053B400005001504FF480338340024AC2F848330E
:1053C400704700BF00500150014BD3F804057047EB
:1053D400005001502DE9F843054689469046FFF7F1
:1053E400E9FF284606F0CFFF4E46032710E0FFF7FB
:1053F400EBFF0446494606F0B5FFB0F5000F26D989
:10540400284606F0C0FFB8F1000F22D13E1901373B
:1054140031462846FFF7BAFF2846FFF7C1FFFFF7DA
:10542400D3FF0446C11C304606F09CFF0A4B984249
:105434000AD9284606F09AFF0028D8D1B8F1000FFF
:10544400E4D06FF0150000E00020BDE8F8830020F0
:10545400FBE76FF01500F8E7FDFF7F00034B044AFC
:10546400C3F80823C3F84823704700BF0050015015
:1054740003000F00B1F5805F02D2C0F80815704731
:1054840010B5064C4FF4EA7322460549054806F068
:10549400F4F84FF4EA71204606F0E6F888FA0000C2
:1054A400C0FA0000B0E600004FF480338340124A93
:1054B400D2F80423134201D10020704710B50446EA
:1054C40001238340DB430D49D1E8EF2F02EA0300B7
:1054D400C1E8EC0FBCF1000FF6D122FA04F313F08B
:1054E400010F03D1204606F041FF18B1204606F013
:1054F4004AFF012010BD00BF00500150B805002034
:1055040010B5012383406FEA030C0C4AD2E8EF1F65
:1055140001EA0C0EC2E8E4EF002CF7D14FF480321C
:1055240082400748C0F80823BFF35F8FBFF36F8F33
:1055340003EA0100003818BF012010BDBC0500209B
:105544000050015038B514461046194606F027FF9E
:1055540002460D490B68E01A1B184C6844F100041C
:105564000B604C60A2F50013B3F5400F09D2074B52
:105574001B68190A1B06D41841F10005044BC3E942
:10558400004506F01CFF38BDD0010020C0050020F6
:10559400D801002001B97047012383400D4AD2E8A5
:1055A400EFCF4CEA030CC2E8E1CF0029F7D14FF466
:1055B40080338340084AC2F80433084BD3E8AF3F32
:1055C400C34013F0010FE6D0054B4FF40012C3F8AB
:1055D4000021E0E7BC05002000500150B805002080
:1055E40000E100E038B50D4B1C68250A2406BFF322
:1055F4005F8FFFF7E9FE0346001945F10001B3F59B
:10560400801F0AD2064BD3E90023904271EB0303B7
:1056140003D210F1807041F1000138BDC0050020B3
:10562400D80100202DE9F04782B00446FFF73CFF83
:1056340010B902B0BDE8F087FFF7D4FF82460D46EB
:1056440006F0B0FE0646154B03EB0413D3E90289BA
:10565400C24575EB09050BD20025304606F0AAFEBB
:10566400002DE6D0009742464B462046A847E0E787
:105674000A4A230102EB0411D5584F680020D05088
:105684004FF0FF324FF0FF33C1E902232046FFF70A
:1056940091FE204606F077FEDFE700BFC001002040
:1056A40010B50D4BD3F8043313F0020F01D10024CD
:1056B4000EE00221084806F01FFE0028F7D0074A32
:1056C400136801331360F2E72046FFF7ABFF0134A0
:1056D400002CF9DD10BD00BF00500150C0050020B2
:1056E4002DE9F041044616461F469DF820801046D9
:1056F400194606F054FE0546FFF774FFB04271EBFD
:10570400070319D2301A67EB01011B4B984271F160
:1057140000012BD2194B03EB0413D3E90223BB4240
:1057240008BFB24201D1002014E042462946204677
:10573400FFF750FE70B117E0B8F1000F19D1012343
:10574400A3400F4AD2E8EF0F1843C2E8E10F002943
:10575400F8D10020094B220103EB0414C4E90267C9
:1057640006999950079B6360BDE8F0816FF01500BE
:10577400FAE76FF01500F7E701008000C001002090
:10578400B805002030B585B0FFF768FE00211E483B
:10579400FFF770FE0023002B25DD1B4C0225C4F807
:1057A40004531A4B4FF40012C3F880210022012144
:1057B4001520FDF701FC152006F089F80123A360EC
:1057C4002360134A1360002402940194114B009344
:1057D400114A0023204606F0FBFD2846FFF7CAF8CD
:1057E400204605B030BD0D4A02EB03124FF0FF30E6
:1057F4004FF0FF31C2E902014FF480329A4002496E
:10580400C1F804230133C6E70050015000E100E071
:10581400BC05002049550000FFFF7F00C0010020A7
:1058240010B584B0B0F1FF3F18D001281BDD154B33
:105834009842A8BF18460446134B01221A70FFF77A
:10584400D1FE124B1A685B68801AB0F5000F0CD2B7
:105854000444B4F5000F09D30A4C07E00A4B0022B4
:105864001A70084CEBE70124E6E7064C00201219F5
:10587400029001900649009143F1000306F0A8FD4F
:1058840004B010BDFFFF7F0069060020D001002096
:105894004955000008B5FFF7A5FE024B1B68C01A66
:1058A40008BD00BFD001002008B506F019FE68B19C
:1058B400634BD3F8203A4BB9614B0D22C3F8202A2D
:1058C4000122C3F81C290022C3F81C2900220BE082
:1058D40002F160034FF47F0151F83310DB0003F54C
:1058E4007F035B680B6001321F2A08D802F1600352
:1058F4004FF47F0151F83330B3F1FF3FE8D106F0A4
:10590400C7FD30B14E4B2922C3F80C270322C3F83C
:105914003C2706F07DFD40B14A4B4B4AC3F8302585
:105924004FF050230122C3F8582506F085FD18B125
:10593400464B0022C3F84C2506F096FD68B14FF0A3
:105944005023D3F8003413F0010F06D04FF0502346
:105954000022C3F81421C3F818214FF47F03D3F8AD
:105964003021D3F83431072A3FD006F0A5FD18B111
:10597400334B6522C3F80C274FF47F03D3F830214F
:10598400D3F83431072A3ED006F0BEFDE8B12C4BE3
:105994007E22C3F80C27C3F83C292D4A7F23C2F882
:1059A400183128490023C1F8043EC1F8083E01F526
:1059B4004821C1F81031C2F82431C2F82C3102F563
:1059C400FF1202F58052C2F8A032224AD2F88C307B
:1059D40043F44063C2F88C301F4A11681F4BC3F86C
:1059E4004415D269C3F84C2508BD4FF05023D3F8B1
:1059F400003413F0010FB8D04FF050236FF00102C0
:105A0400C3F80024B1E7114BD3F82034002BBBDAE0
:105A14004FF050230322C3F8182501229A604FF057
:105A24005023D3F80431002BF9D04FF05023002237
:105A3400C3F804210122DA60C3F81825A4E700BFE3
:105A440000400050009003504400EFBE002003507B
:105A54000020005000ED00E00080FF0000600050D6
:105A6400014B1860704700BFC405002010B50C4BF3
:105A7400186838B1144606F064FD002801DB207074
:105A8400002010BD074C40F2F31322460649074894
:105A940005F0F3FD40F2F311204605F0E5FD00BFEB
:105AA400C405002050FB000094FB0000B0E6000099
:105AB40001238340014AC2F8043570470070015045
:105AC40008B5024B1B680020984708BDC805002094
:105AD40008B5024B1B68984708BD00BFC8050020E5
